{
  "contractName": "IPFSHashRSCF",
  "abi": [
    {
      "anonymous": false,
      "inputs": [
        {
          "indexed": false,
          "internalType": "string",
          "name": "documentId",
          "type": "string"
        },
        {
          "indexed": false,
          "internalType": "string",
          "name": "hashcodeIPFS",
          "type": "string"
        },
        {
          "indexed": false,
          "internalType": "string",
          "name": "fileName",
          "type": "string"
        },
        {
          "indexed": false,
          "internalType": "string",
          "name": "filePath",
          "type": "string"
        }
      ],
      "name": "NewHashCodeRSCF",
      "type": "event"
    },
    {
      "inputs": [
        {
          "internalType": "string",
          "name": "",
          "type": "string"
        }
      ],
      "name": "hashRSCFs",
      "outputs": [
        {
          "internalType": "string",
          "name": "documentId",
          "type": "string"
        },
        {
          "internalType": "string",
          "name": "hashcodeIPFS",
          "type": "string"
        },
        {
          "internalType": "string",
          "name": "fileName",
          "type": "string"
        },
        {
          "internalType": "string",
          "name": "filePath",
          "type": "string"
        }
      ],
      "stateMutability": "view",
      "type": "function",
      "constant": true
    },
    {
      "inputs": [
        {
          "components": [
            {
              "internalType": "string",
              "name": "documentId",
              "type": "string"
            },
            {
              "internalType": "string",
              "name": "hashcodeIPFS",
              "type": "string"
            },
            {
              "internalType": "string",
              "name": "fileName",
              "type": "string"
            },
            {
              "internalType": "string",
              "name": "filePath",
              "type": "string"
            }
          ],
          "internalType": "struct IPFSHashRSCF.HashRSCF",
          "name": "hashRSCF_",
          "type": "tuple"
        }
      ],
      "name": "addFileHashCode",
      "outputs": [],
      "stateMutability": "nonpayable",
      "type": "function"
    }
  ],
  "bytecode": "0x608060405234801561001057600080fd5b50610b73806100206000396000f3fe608060405234801561001057600080fd5b50600436106100365760003560e01c8063d11d955e1461003b578063fff055691461006e575b600080fd5b6100556004803603810190610050919061059e565b61008a565b6040516100659493929190610666565b60405180910390f35b610088600480360381019061008391906107b9565b6102f0565b005b6001818051602081018201805184825260208301602085012081835280955050505050506000915090508060000180546100c390610831565b80601f01602080910402602001604051908101604052809291908181526020018280546100ef90610831565b801561013c5780601f106101115761010080835404028352916020019161013c565b820191906000526020600020905b81548152906001019060200180831161011f57829003601f168201915b50505050509080600101805461015190610831565b80601f016020809104026020016040519081016040528092919081815260200182805461017d90610831565b80156101ca5780601f1061019f576101008083540402835291602001916101ca565b820191906000526020600020905b8154815290600101906020018083116101ad57829003601f168201915b5050505050908060020180546101df90610831565b80601f016020809104026020016040519081016040528092919081815260200182805461020b90610831565b80156102585780601f1061022d57610100808354040283529160200191610258565b820191906000526020600020905b81548152906001019060200180831161023b57829003601f168201915b50505050509080600301805461026d90610831565b80601f016020809104026020016040519081016040528092919081815260200182805461029990610831565b80156102e65780601f106102bb576101008083540402835291602001916102e6565b820191906000526020600020905b8154815290600101906020018083116102c957829003601f168201915b5050505050905084565b8060018260200151604051610305919061089e565b908152602001604051809103902060008201518160000190816103289190610a6b565b50602082015181600101908161033e9190610a6b565b5060408201518160020190816103549190610a6b565b50606082015181600301908161036a9190610a6b565b50905050600081908060018154018082558091505060019003906000526020600020906004020160009091909190915060008201518160000190816103af9190610a6b565b5060208201518160010190816103c59190610a6b565b5060408201518160020190816103db9190610a6b565b5060608201518160030190816103f19190610a6b565b5050507f2f7f24d89e8a8330d01593b20e580c10b60ae4e8733af2055029b49d46756fa881600001518260200151836040015184606001516040516104399493929190610666565b60405180910390a150565b6000604051905090565b600080fd5b600080fd5b600080fd5b600080fd5b6000601f19601f8301169050919050565b7f4e487b7100000000000000000000000000000000000000000000000000000000600052604160045260246000fd5b6104ab82610462565b810181811067ffffffffffffffff821117156104ca576104c9610473565b5b80604052505050565b60006104dd610444565b90506104e982826104a2565b919050565b600067ffffffffffffffff82111561050957610508610473565b5b61051282610462565b9050602081019050919050565b82818337600083830152505050565b600061054161053c846104ee565b6104d3565b90508281526020810184848401111561055d5761055c61045d565b5b61056884828561051f565b509392505050565b600082601f83011261058557610584610458565b5b813561059584826020860161052e565b91505092915050565b6000602082840312156105b4576105b361044e565b5b600082013567ffffffffffffffff8111156105d2576105d1610453565b5b6105de84828501610570565b91505092915050565b600081519050919050565b600082825260208201905092915050565b60005b83811015610621578082015181840152602081019050610606565b60008484015250505050565b6000610638826105e7565b61064281856105f2565b9350610652818560208601610603565b61065b81610462565b840191505092915050565b60006080820190508181036000830152610680818761062d565b90508181036020830152610694818661062d565b905081810360408301526106a8818561062d565b905081810360608301526106bc818461062d565b905095945050505050565b600080fd5b600080fd5b6000608082840312156106e7576106e66106c7565b5b6106f160806104d3565b9050600082013567ffffffffffffffff811115610711576107106106cc565b5b61071d84828501610570565b600083015250602082013567ffffffffffffffff811115610741576107406106cc565b5b61074d84828501610570565b602083015250604082013567ffffffffffffffff811115610771576107706106cc565b5b61077d84828501610570565b604083015250606082013567ffffffffffffffff8111156107a1576107a06106cc565b5b6107ad84828501610570565b60608301525092915050565b6000602082840312156107cf576107ce61044e565b5b600082013567ffffffffffffffff8111156107ed576107ec610453565b5b6107f9848285016106d1565b91505092915050565b7f4e487b7100000000000000000000000000000000000000000000000000000000600052602260045260246000fd5b6000600282049050600182168061084957607f821691505b60208210810361085c5761085b610802565b5b50919050565b600081905092915050565b6000610878826105e7565b6108828185610862565b9350610892818560208601610603565b80840191505092915050565b60006108aa828461086d565b915081905092915050565b60008190508160005260206000209050919050565b60006020601f8301049050919050565b600082821b905092915050565b6000600883026109177fffffffffffffffffffffffffffffffffffffffffffffffffffffffffffffffff826108da565b61092186836108da565b95508019841693508086168417925050509392505050565b6000819050919050565b6000819050919050565b600061096861096361095e84610939565b610943565b610939565b9050919050565b6000819050919050565b6109828361094d565b61099661098e8261096f565b8484546108e7565b825550505050565b600090565b6109ab61099e565b6109b6818484610979565b505050565b5b818110156109da576109cf6000826109a3565b6001810190506109bc565b5050565b601f821115610a1f576109f0816108b5565b6109f9846108ca565b81016020851015610a08578190505b610a1c610a14856108ca565b8301826109bb565b50505b505050565b600082821c905092915050565b6000610a4260001984600802610a24565b1980831691505092915050565b6000610a5b8383610a31565b9150826002028217905092915050565b610a74826105e7565b67ffffffffffffffff811115610a8d57610a8c610473565b5b610a978254610831565b610aa28282856109de565b600060209050601f831160018114610ad55760008415610ac3578287015190505b610acd8582610a4f565b865550610b35565b601f198416610ae3866108b5565b60005b82811015610b0b57848901518255600182019150602085019450602081019050610ae6565b86831015610b285784890151610b24601f891682610a31565b8355505b6001600288020188555050505b50505050505056fea26469706673582212205303c5b3ee6e934bde6fa0f38cfed794de91040a58a93ee9acd44a1901698d0964736f6c63430008130033",
  "immutableReferences": {},
  "source": "// SPDX-License-Identifier: GPL-3.0\r\npragma experimental ABIEncoderV2;\r\npragma solidity >=0.4.25 <0.9.0;\r\n\r\n/**\r\n * @dev manage IPFS hashcode\r\n */\r\n\r\ncontract IPFSHashRSCF {\r\n\r\n    struct HashRSCF {\r\n        string documentId;\r\n        string hashcodeIPFS;\r\n        string fileName;\r\n        string filePath;\r\n    }\r\n\r\n    HashRSCF[] internal fileIPFSHashs;\r\n    mapping(string => HashRSCF) public hashRSCFs;\r\n\r\n    // Events\r\n    event NewHashCodeRSCF(\r\n        string documentId,\r\n        string hashcodeIPFS,\r\n        string fileName,\r\n        string filePath\r\n    );\r\n\r\n    /**\r\n     * @dev Adds new Hashcode\r\n     * @param hashRSCF_ file IPFS information\r\n     */\r\n    function addFileHashCode(IPFSHashRSCF.HashRSCF memory hashRSCF_)     \r\n        public {\r\n        hashRSCFs[hashRSCF_.hashcodeIPFS] = hashRSCF_;\r\n        fileIPFSHashs.push(hashRSCF_);\r\n        emit NewHashCodeRSCF(\r\n            hashRSCF_.documentId,\r\n            hashRSCF_.hashcodeIPFS,\r\n            hashRSCF_.fileName,\r\n            hashRSCF_.filePath\r\n        );\r\n    }\r\n\r\n    /**\r\n     * @dev Get one hashcode\r\n     */\r\n    function getSpecificHashRSCF(string memory hashcodeIPFS_)\r\n        internal\r\n        view\r\n        returns (HashRSCF memory)\r\n    {\r\n        return (hashRSCFs[hashcodeIPFS_]);\r\n    }\r\n\r\n        /**\r\n     * @dev Get one hashcode\r\n     */\r\n    function getAllFileIPFSHashRSCF()\r\n        internal\r\n        view\r\n        returns (HashRSCF[] memory)\r\n    {\r\n        return fileIPFSHashs;\r\n    }\r\n\r\n}\r\n\r\n",
  "sourcePath": "D:\\SupplyChainDev\\trufflerscf\\contracts\\IPFSHashRSCF.sol",
  "compiler": {
    "name": "solc",
    "version": "0.8.19+commit.7dd6d404.Emscripten.clang"
  },
  "schemaVersion": "3.4.16",
  "updatedAt": "2024-05-15T06:59:13.130Z",
  "networkType": "ethereum",
  "devdoc": {
    "details": "manage IPFS hashcode",
    "kind": "dev",
    "methods": {
      "addFileHashCode((string,string,string,string))": {
        "details": "Adds new Hashcode",
        "params": {
          "hashRSCF_": "file IPFS information"
        }
      }
    },
    "version": 1
  },
  "userdoc": {
    "kind": "user",
    "methods": {},
    "version": 1
  }
}