{
  "contractName": "OrderRSCF",
  "abi": [
    {
      "anonymous": false,
      "inputs": [
        {
          "indexed": false,
          "internalType": "string",
          "name": "orderId",
          "type": "string"
        }
      ],
      "name": "OrderCompleted",
      "type": "event"
    },
    {
      "anonymous": false,
      "inputs": [
        {
          "indexed": false,
          "internalType": "string",
          "name": "orderId",
          "type": "string"
        }
      ],
      "name": "OrderGenerated",
      "type": "event"
    },
    {
      "anonymous": false,
      "inputs": [
        {
          "indexed": false,
          "internalType": "string",
          "name": "orderId",
          "type": "string"
        },
        {
          "indexed": false,
          "internalType": "address",
          "name": "customerName",
          "type": "address"
        },
        {
          "indexed": false,
          "internalType": "string",
          "name": "productId",
          "type": "string"
        },
        {
          "indexed": false,
          "internalType": "string",
          "name": "productName",
          "type": "string"
        },
        {
          "indexed": false,
          "internalType": "uint256",
          "name": "quantity",
          "type": "uint256"
        },
        {
          "indexed": false,
          "internalType": "uint256",
          "name": "price",
          "type": "uint256"
        }
      ],
      "name": "OrderPurchased",
      "type": "event"
    },
    {
      "anonymous": false,
      "inputs": [
        {
          "indexed": false,
          "internalType": "string",
          "name": "orderId",
          "type": "string"
        }
      ],
      "name": "OrderTransferred",
      "type": "event"
    },
    {
      "inputs": [
        {
          "internalType": "string",
          "name": "",
          "type": "string"
        }
      ],
      "name": "orders",
      "outputs": [
        {
          "internalType": "string",
          "name": "orderId",
          "type": "string"
        },
        {
          "internalType": "address",
          "name": "customerName",
          "type": "address"
        },
        {
          "internalType": "string",
          "name": "productId",
          "type": "string"
        },
        {
          "internalType": "string",
          "name": "productName",
          "type": "string"
        },
        {
          "internalType": "uint256",
          "name": "quantity",
          "type": "uint256"
        },
        {
          "internalType": "uint256",
          "name": "price",
          "type": "uint256"
        },
        {
          "internalType": "enum TypeRSCF.OrderStatus",
          "name": "orderStatus",
          "type": "uint8"
        }
      ],
      "stateMutability": "view",
      "type": "function",
      "constant": true
    },
    {
      "inputs": [
        {
          "components": [
            {
              "internalType": "string",
              "name": "orderId",
              "type": "string"
            },
            {
              "internalType": "address",
              "name": "customerName",
              "type": "address"
            },
            {
              "internalType": "string",
              "name": "productId",
              "type": "string"
            },
            {
              "internalType": "string",
              "name": "productName",
              "type": "string"
            },
            {
              "internalType": "uint256",
              "name": "quantity",
              "type": "uint256"
            },
            {
              "internalType": "uint256",
              "name": "price",
              "type": "uint256"
            },
            {
              "internalType": "enum TypeRSCF.OrderStatus",
              "name": "orderStatus",
              "type": "uint8"
            }
          ],
          "internalType": "struct TypeRSCF.OrderRSCF",
          "name": "orderRSCF_",
          "type": "tuple"
        },
        {
          "internalType": "uint256",
          "name": "currentTime_",
          "type": "uint256"
        }
      ],
      "name": "addOrder",
      "outputs": [],
      "stateMutability": "nonpayable",
      "type": "function"
    },
    {
      "inputs": [
        {
          "internalType": "string",
          "name": "orderId",
          "type": "string"
        }
      ],
      "name": "generateOrder",
      "outputs": [],
      "stateMutability": "nonpayable",
      "type": "function"
    },
    {
      "inputs": [
        {
          "internalType": "string",
          "name": "orderId",
          "type": "string"
        }
      ],
      "name": "transferOrder",
      "outputs": [],
      "stateMutability": "nonpayable",
      "type": "function"
    },
    {
      "inputs": [
        {
          "internalType": "string",
          "name": "orderId",
          "type": "string"
        }
      ],
      "name": "completeOrder",
      "outputs": [],
      "stateMutability": "nonpayable",
      "type": "function"
    }
  ],
  "bytecode": "0x608060405234801561001057600080fd5b5061194d806100206000396000f3fe608060405234801561001057600080fd5b50600436106100575760003560e01c80631a9489471461005c5780632a1a47f814610092578063a1168c42146100ae578063b96c0866146100ca578063e74a8093146100e6575b600080fd5b61007660048036038101906100719190610e26565b610102565b6040516100899796959493929190610fbf565b60405180910390f35b6100ac60048036038101906100a79190610e26565b61031f565b005b6100c860048036038101906100c391906111d2565b6104b3565b005b6100e460048036038101906100df9190610e26565b610767565b005b61010060048036038101906100fb9190610e26565b6108fb565b005b60018180516020810182018051848252602083016020850120818352809550505050505060009150905080600001805461013b9061125d565b80601f01602080910402602001604051908101604052809291908181526020018280546101679061125d565b80156101b45780601f10610189576101008083540402835291602001916101b4565b820191906000526020600020905b81548152906001019060200180831161019757829003601f168201915b5050505050908060010160009054906101000a900473ffffffffffffffffffffffffffffffffffffffff16908060020180546101ef9061125d565b80601f016020809104026020016040519081016040528092919081815260200182805461021b9061125d565b80156102685780601f1061023d57610100808354040283529160200191610268565b820191906000526020600020905b81548152906001019060200180831161024b57829003601f168201915b50505050509080600301805461027d9061125d565b80601f01602080910402602001604051908101604052809291908181526020018280546102a99061125d565b80156102f65780601f106102cb576101008083540402835291602001916102f6565b820191906000526020600020905b8154815290600101906020018083116102d957829003601f168201915b5050505050908060040154908060050154908060060160009054906101000a900460ff16905087565b600060018260405161033191906112ca565b908152602001604051809103902090503373ffffffffffffffffffffffffffffffffffffffff168160010160009054906101000a900473ffffffffffffffffffffffffffffffffffffffff1673ffffffffffffffffffffffffffffffffffffffff16146103d3576040517f08c379a00000000000000000000000000000000000000000000000000000000081526004016103ca90611353565b60405180910390fd5b600160038111156103e7576103e6610f48565b5b8160060160009054906101000a900460ff16600381111561040b5761040a610f48565b5b1461044b576040517f08c379a0000000000000000000000000000000000000000000000000000000008152600401610442906113e5565b60405180910390fd5b60028160060160006101000a81548160ff0219169083600381111561047357610472610f48565b5b02179055507fac14f6f0cc901964c24513b4eef52446d25d1da3d20792622418673ea2d80eb2826040516104a79190611405565b60405180910390a15050565b33826020019073ffffffffffffffffffffffffffffffffffffffff16908173ffffffffffffffffffffffffffffffffffffffff168152505060008260c00190600381111561050457610503610f48565b5b9081600381111561051857610517610f48565b5b81525050816001836000015160405161053191906112ca565b9081526020016040518091039020600082015181600001908161055491906115d3565b5060208201518160010160006101000a81548173ffffffffffffffffffffffffffffffffffffffff021916908373ffffffffffffffffffffffffffffffffffffffff16021790555060408201518160020190816105b191906115d3565b5060608201518160030190816105c791906115d3565b506080820151816004015560a0820151816005015560c08201518160060160006101000a81548160ff0219169083600381111561060757610606610f48565b5b02179055509050506000829080600181540180825580915050600190039060005260206000209060070201600090919091909150600082015181600001908161065091906115d3565b5060208201518160010160006101000a81548173ffffffffffffffffffffffffffffffffffffffff021916908373ffffffffffffffffffffffffffffffffffffffff16021790555060408201518160020190816106ad91906115d3565b5060608201518160030190816106c391906115d3565b506080820151816004015560a0820151816005015560c08201518160060160006101000a81548160ff0219169083600381111561070357610702610f48565b5b021790555050507fe36918c4e178c1be44849f3ac6dda1fc6dd191b53f504dd4475ce7eccc2c37ed826000015183602001518460400151856060015186608001518760a0015160405161075b969594939291906116a5565b60405180910390a15050565b600060018260405161077991906112ca565b908152602001604051809103902090503373ffffffffffffffffffffffffffffffffffffffff168160010160009054906101000a900473ffffffffffffffffffffffffffffffffffffffff1673ffffffffffffffffffffffffffffffffffffffff161461081b576040517f08c379a000000000000000000000000000000000000000000000000000000000815260040161081290611767565b60405180910390fd5b6002600381111561082f5761082e610f48565b5b8160060160009054906101000a900460ff16600381111561085357610852610f48565b5b14610893576040517f08c379a000000000000000000000000000000000000000000000000000000000815260040161088a906117f9565b60405180910390fd5b60038160060160006101000a81548160ff021916908360038111156108bb576108ba610f48565b5b02179055507fc54168d3090b6f00fab4ccb0e6661857004c64ab480534010cdf71800c75241d826040516108ef9190611405565b60405180910390a15050565b600060018260405161090d91906112ca565b90815260200160405180910390206040518060e00160405290816000820180546109369061125d565b80601f01602080910402602001604051908101604052809291908181526020018280546109629061125d565b80156109af5780601f10610984576101008083540402835291602001916109af565b820191906000526020600020905b81548152906001019060200180831161099257829003601f168201915b505050505081526020016001820160009054906101000a900473ffffffffffffffffffffffffffffffffffffffff1673ffffffffffffffffffffffffffffffffffffffff1673ffffffffffffffffffffffffffffffffffffffff168152602001600282018054610a1e9061125d565b80601f0160208091040260200160405190810160405280929190818152602001828054610a4a9061125d565b8015610a975780601f10610a6c57610100808354040283529160200191610a97565b820191906000526020600020905b815481529060010190602001808311610a7a57829003601f168201915b50505050508152602001600382018054610ab09061125d565b80601f0160208091040260200160405190810160405280929190818152602001828054610adc9061125d565b8015610b295780601f10610afe57610100808354040283529160200191610b29565b820191906000526020600020905b815481529060010190602001808311610b0c57829003601f168201915b5050505050815260200160048201548152602001600582015481526020016006820160009054906101000a900460ff166003811115610b6b57610b6a610f48565b5b6003811115610b7d57610b7c610f48565b5b8152505090503373ffffffffffffffffffffffffffffffffffffffff16816020015173ffffffffffffffffffffffffffffffffffffffff1614610bf5576040517f08c379a0000000000000000000000000000000000000000000000000000000008152600401610bec90611865565b60405180910390fd5b60006003811115610c0957610c08610f48565b5b8160c001516003811115610c2057610c1f610f48565b5b14610c60576040517f08c379a0000000000000000000000000000000000000000000000000000000008152600401610c57906118f7565b60405180910390fd5b60018160c001906003811115610c7957610c78610f48565b5b90816003811115610c8d57610c8c610f48565b5b815250507f49a8e1507a6f693a113e03a6b7d2ca032ebdf2908f1fcbc1b021ed7845cadf8a82604051610cc09190611405565b60405180910390a15050565b6000604051905090565b600080fd5b600080fd5b600080fd5b600080fd5b6000601f19601f8301169050919050565b7f4e487b7100000000000000000000000000000000000000000000000000000000600052604160045260246000fd5b610d3382610cea565b810181811067ffffffffffffffff82111715610d5257610d51610cfb565b5b80604052505050565b6000610d65610ccc565b9050610d718282610d2a565b919050565b600067ffffffffffffffff821115610d9157610d90610cfb565b5b610d9a82610cea565b9050602081019050919050565b82818337600083830152505050565b6000610dc9610dc484610d76565b610d5b565b905082815260208101848484011115610de557610de4610ce5565b5b610df0848285610da7565b509392505050565b600082601f830112610e0d57610e0c610ce0565b5b8135610e1d848260208601610db6565b91505092915050565b600060208284031215610e3c57610e3b610cd6565b5b600082013567ffffffffffffffff811115610e5a57610e59610cdb565b5b610e6684828501610df8565b91505092915050565b600081519050919050565b600082825260208201905092915050565b60005b83811015610ea9578082015181840152602081019050610e8e565b60008484015250505050565b6000610ec082610e6f565b610eca8185610e7a565b9350610eda818560208601610e8b565b610ee381610cea565b840191505092915050565b600073ffffffffffffffffffffffffffffffffffffffff82169050919050565b6000610f1982610eee565b9050919050565b610f2981610f0e565b82525050565b6000819050919050565b610f4281610f2f565b82525050565b7f4e487b7100000000000000000000000000000000000000000000000000000000600052602160045260246000fd5b60048110610f8857610f87610f48565b5b50565b6000819050610f9982610f77565b919050565b6000610fa982610f8b565b9050919050565b610fb981610f9e565b82525050565b600060e0820190508181036000830152610fd9818a610eb5565b9050610fe86020830189610f20565b8181036040830152610ffa8188610eb5565b9050818103606083015261100e8187610eb5565b905061101d6080830186610f39565b61102a60a0830185610f39565b61103760c0830184610fb0565b98975050505050505050565b600080fd5b600080fd5b61105681610f0e565b811461106157600080fd5b50565b6000813590506110738161104d565b92915050565b61108281610f2f565b811461108d57600080fd5b50565b60008135905061109f81611079565b92915050565b600481106110b257600080fd5b50565b6000813590506110c4816110a5565b92915050565b600060e082840312156110e0576110df611043565b5b6110ea60e0610d5b565b9050600082013567ffffffffffffffff81111561110a57611109611048565b5b61111684828501610df8565b600083015250602061112a84828501611064565b602083015250604082013567ffffffffffffffff81111561114e5761114d611048565b5b61115a84828501610df8565b604083015250606082013567ffffffffffffffff81111561117e5761117d611048565b5b61118a84828501610df8565b606083015250608061119e84828501611090565b60808301525060a06111b284828501611090565b60a08301525060c06111c6848285016110b5565b60c08301525092915050565b600080604083850312156111e9576111e8610cd6565b5b600083013567ffffffffffffffff81111561120757611206610cdb565b5b611213858286016110ca565b925050602061122485828601611090565b9150509250929050565b7f4e487b7100000000000000000000000000000000000000000000000000000000600052602260045260246000fd5b6000600282049050600182168061127557607f821691505b6020821081036112885761128761122e565b5b50919050565b600081905092915050565b60006112a482610e6f565b6112ae818561128e565b93506112be818560208601610e8b565b80840191505092915050565b60006112d68284611299565b915081905092915050565b7f4f6e6c7920637573746f6d65724e616d652063616e206469737472696275746560008201527f206f726465720000000000000000000000000000000000000000000000000000602082015250565b600061133d602683610e7a565b9150611348826112e1565b604082019050919050565b6000602082019050818103600083015261136c81611330565b9050919050565b7f4f72646572206d75737420626520696e2047656e65726174656420737461747560008201527f7300000000000000000000000000000000000000000000000000000000000000602082015250565b60006113cf602183610e7a565b91506113da82611373565b604082019050919050565b600060208201905081810360008301526113fe816113c2565b9050919050565b6000602082019050818103600083015261141f8184610eb5565b905092915050565b60008190508160005260206000209050919050565b60006020601f8301049050919050565b600082821b905092915050565b6000600883026114897fffffffffffffffffffffffffffffffffffffffffffffffffffffffffffffffff8261144c565b611493868361144c565b95508019841693508086168417925050509392505050565b6000819050919050565b60006114d06114cb6114c684610f2f565b6114ab565b610f2f565b9050919050565b6000819050919050565b6114ea836114b5565b6114fe6114f6826114d7565b848454611459565b825550505050565b600090565b611513611506565b61151e8184846114e1565b505050565b5b818110156115425761153760008261150b565b600181019050611524565b5050565b601f8211156115875761155881611427565b6115618461143c565b81016020851015611570578190505b61158461157c8561143c565b830182611523565b50505b505050565b600082821c905092915050565b60006115aa6000198460080261158c565b1980831691505092915050565b60006115c38383611599565b9150826002028217905092915050565b6115dc82610e6f565b67ffffffffffffffff8111156115f5576115f4610cfb565b5b6115ff825461125d565b61160a828285611546565b600060209050601f83116001811461163d576000841561162b578287015190505b61163585826115b7565b86555061169d565b601f19841661164b86611427565b60005b828110156116735784890151825560018201915060208501945060208101905061164e565b86831015611690578489015161168c601f891682611599565b8355505b6001600288020188555050505b505050505050565b600060c08201905081810360008301526116bf8189610eb5565b90506116ce6020830188610f20565b81810360408301526116e08187610eb5565b905081810360608301526116f48186610eb5565b90506117036080830185610f39565b61171060a0830184610f39565b979650505050505050565b7f4f6e6c7920637573746f6d65724e616d652063616e2073656c6c206f72646572600082015250565b6000611751602083610e7a565b915061175c8261171b565b602082019050919050565b6000602082019050818103600083015261178081611744565b9050919050565b7f4f72646572206d75737420626520696e205472616e736665727265642073746160008201527f7475730000000000000000000000000000000000000000000000000000000000602082015250565b60006117e3602383610e7a565b91506117ee82611787565b604082019050919050565b60006020820190508181036000830152611812816117d6565b9050919050565b7f4f6e6c7920637573746f6d65722063616e2067656e6572617465206f72646572600082015250565b600061184f602083610e7a565b915061185a82611819565b602082019050919050565b6000602082019050818103600083015261187e81611842565b9050919050565b7f4f72646572206d75737420626520696e2050757263686173656420737461747560008201527f7300000000000000000000000000000000000000000000000000000000000000602082015250565b60006118e1602183610e7a565b91506118ec82611885565b604082019050919050565b60006020820190508181036000830152611910816118d4565b905091905056fea264697066735822122074ca37775f6483b741c8d585de1ed3d655ec65f65e1aa6f70690e9bf98c1588664736f6c63430008130033",
  "immutableReferences": {},
  "source": "// SPDX-License-Identifier: MIT\r\npragma solidity >=0.4.22 <0.9.0;\r\n\r\nimport \"./TypeRSCF.sol\";\r\n\r\ncontract OrderRSCF {\r\n\r\n    TypeRSCF.OrderRSCF[] internal orderRSCFs;\r\n    mapping (string => TypeRSCF.OrderRSCF) public orders;\r\n\r\n    event OrderPurchased(string orderId, address customerName, string productId, string productName, uint256 quantity, uint256 price);\r\n    event OrderGenerated(string orderId);\r\n    event OrderTransferred(string orderId);\r\n    event OrderCompleted(string orderId);\r\n\r\n\r\n    /**\r\n     * @dev Adds new order\r\n     * @param orderRSCF_ unique order ID  \r\n     * @param currentTime_ Current Date, Time in epoch (when added)\r\n     */\r\n    function addOrder(TypeRSCF.OrderRSCF memory orderRSCF_, uint256 currentTime_) public {\r\n        orderRSCF_.customerName = msg.sender;\r\n        orderRSCF_.orderStatus = TypeRSCF.OrderStatus.Purchased;\r\n        orders[orderRSCF_.orderId] = orderRSCF_;\r\n        orderRSCFs.push(orderRSCF_);\r\n        emit OrderPurchased(\r\n            orderRSCF_.orderId,\r\n            orderRSCF_.customerName, \r\n            orderRSCF_.productId,            \r\n            orderRSCF_.productName, \r\n            orderRSCF_.quantity, \r\n            orderRSCF_.price\r\n        );\r\n    }\r\n\r\n    function generateOrder(string memory orderId) public {\r\n        TypeRSCF.OrderRSCF memory order = orders[orderId];\r\n        require(order.customerName == msg.sender, \"Only customer can generate order\");\r\n        require(order.orderStatus == TypeRSCF.OrderStatus.Purchased, \"Order must be in Purchased status\");\r\n        order.orderStatus = TypeRSCF.OrderStatus.Generated;\r\n        emit OrderGenerated(orderId);\r\n    }\r\n\r\n    function transferOrder(string memory orderId) public {\r\n        TypeRSCF.OrderRSCF storage order = orders[orderId];\r\n        require(order.customerName == msg.sender, \"Only customerName can distribute order\");\r\n        require(order.orderStatus == TypeRSCF.OrderStatus.Generated, \"Order must be in Generated status\");\r\n        order.orderStatus = TypeRSCF.OrderStatus.Transferred;\r\n        emit OrderTransferred(orderId);\r\n    }\r\n\r\n    function completeOrder(string memory orderId) public {\r\n        TypeRSCF.OrderRSCF storage order = orders[orderId];\r\n        require(order.customerName == msg.sender, \"Only customerName can sell order\");\r\n        require(order.orderStatus == TypeRSCF.OrderStatus.Transferred, \"Order must be in Transferred status\");\r\n        order.orderStatus = TypeRSCF.OrderStatus.Completed;\r\n        emit OrderCompleted(orderId);\r\n    }\r\n\r\n       /**\r\n     * @dev Get one order\r\n     * @param orderRSCFId_ Unique order ID \r\n     * @return orderRSCF_ Details of the order\r\n     */\r\n    function getSpecificOrderRSCF(string memory orderRSCFId_)\r\n        internal\r\n        view\r\n        returns (TypeRSCF.OrderRSCF memory)\r\n    {\r\n        return (orders[orderRSCFId_]);\r\n    }\r\n\r\n    function getAllOrder() \r\n        internal \r\n        view \r\n        returns (TypeRSCF.OrderRSCF[] memory) \r\n    {\r\n        return orderRSCFs;\r\n    }\r\n}",
  "sourcePath": "D:\\SupplyChainDev\\trufflerscf\\contracts\\OrderRSCF.sol",
  "compiler": {
    "name": "solc",
    "version": "0.8.19+commit.7dd6d404.Emscripten.clang"
  },
  "schemaVersion": "3.4.16",
  "updatedAt": "2024-05-15T06:59:13.037Z",
  "networkType": "ethereum",
  "devdoc": {
    "kind": "dev",
    "methods": {
      "addOrder((string,address,string,string,uint256,uint256,uint8),uint256)": {
        "details": "Adds new order",
        "params": {
          "currentTime_": "Current Date, Time in epoch (when added)",
          "orderRSCF_": "unique order ID  "
        }
      }
    },
    "version": 1
  },
  "userdoc": {
    "kind": "user",
    "methods": {},
    "version": 1
  }
}