{
  "contractName": "SupplyChain",
  "abi": [
    {
      "inputs": [
        {
          "internalType": "string",
          "name": "name_",
          "type": "string"
        },
        {
          "internalType": "string",
          "name": "email_",
          "type": "string"
        }
      ],
      "stateMutability": "nonpayable",
      "type": "constructor"
    },
    {
      "anonymous": false,
      "inputs": [
        {
          "indexed": false,
          "internalType": "string",
          "name": "name",
          "type": "string"
        },
        {
          "indexed": false,
          "internalType": "string",
          "name": "email",
          "type": "string"
        },
        {
          "indexed": false,
          "internalType": "enum Types.UserRole",
          "name": "role",
          "type": "uint8"
        }
      ],
      "name": "LostUser",
      "type": "event"
    },
    {
      "anonymous": false,
      "inputs": [
        {
          "indexed": false,
          "internalType": "string",
          "name": "name",
          "type": "string"
        },
        {
          "indexed": false,
          "internalType": "string",
          "name": "manufacturerName",
          "type": "string"
        },
        {
          "indexed": false,
          "internalType": "string",
          "name": "scientificName",
          "type": "string"
        },
        {
          "indexed": false,
          "internalType": "string",
          "name": "barcodeId",
          "type": "string"
        },
        {
          "indexed": false,
          "internalType": "uint256",
          "name": "manDateEpoch",
          "type": "uint256"
        },
        {
          "indexed": false,
          "internalType": "uint256",
          "name": "expDateEpoch",
          "type": "uint256"
        }
      ],
      "name": "NewProduct",
      "type": "event"
    },
    {
      "anonymous": false,
      "inputs": [
        {
          "indexed": false,
          "internalType": "string",
          "name": "name",
          "type": "string"
        },
        {
          "indexed": false,
          "internalType": "string",
          "name": "email",
          "type": "string"
        },
        {
          "indexed": false,
          "internalType": "enum Types.UserRole",
          "name": "role",
          "type": "uint8"
        }
      ],
      "name": "NewUser",
      "type": "event"
    },
    {
      "anonymous": false,
      "inputs": [
        {
          "indexed": false,
          "internalType": "string",
          "name": "name",
          "type": "string"
        },
        {
          "indexed": false,
          "internalType": "string",
          "name": "manufacturerName",
          "type": "string"
        },
        {
          "indexed": false,
          "internalType": "string",
          "name": "scientificName",
          "type": "string"
        },
        {
          "indexed": false,
          "internalType": "string",
          "name": "barcodeId",
          "type": "string"
        },
        {
          "indexed": false,
          "internalType": "string",
          "name": "buyerName",
          "type": "string"
        },
        {
          "indexed": false,
          "internalType": "string",
          "name": "buyerEmail",
          "type": "string"
        }
      ],
      "name": "ProductOwnershipTransfer",
      "type": "event"
    },
    {
      "inputs": [],
      "name": "getAllProducts",
      "outputs": [
        {
          "components": [
            {
              "internalType": "string",
              "name": "name",
              "type": "string"
            },
            {
              "internalType": "string",
              "name": "manufacturerName",
              "type": "string"
            },
            {
              "internalType": "address",
              "name": "manufacturer",
              "type": "address"
            },
            {
              "internalType": "uint256",
              "name": "manDateEpoch",
              "type": "uint256"
            },
            {
              "internalType": "uint256",
              "name": "expDateEpoch",
              "type": "uint256"
            },
            {
              "internalType": "bool",
              "name": "isInBatch",
              "type": "bool"
            },
            {
              "internalType": "uint256",
              "name": "batchCount",
              "type": "uint256"
            },
            {
              "internalType": "string",
              "name": "barcodeId",
              "type": "string"
            },
            {
              "internalType": "string",
              "name": "productImage",
              "type": "string"
            },
            {
              "internalType": "enum Types.ProductType",
              "name": "productType",
              "type": "uint8"
            },
            {
              "internalType": "string",
              "name": "scientificName",
              "type": "string"
            },
            {
              "internalType": "string",
              "name": "usage",
              "type": "string"
            },
            {
              "internalType": "string[]",
              "name": "composition",
              "type": "string[]"
            },
            {
              "internalType": "string[]",
              "name": "sideEffects",
              "type": "string[]"
            }
          ],
          "internalType": "struct Types.Product[]",
          "name": "",
          "type": "tuple[]"
        }
      ],
      "stateMutability": "view",
      "type": "function"
    },
    {
      "inputs": [],
      "name": "getMyProducts",
      "outputs": [
        {
          "components": [
            {
              "internalType": "string",
              "name": "name",
              "type": "string"
            },
            {
              "internalType": "string",
              "name": "manufacturerName",
              "type": "string"
            },
            {
              "internalType": "address",
              "name": "manufacturer",
              "type": "address"
            },
            {
              "internalType": "uint256",
              "name": "manDateEpoch",
              "type": "uint256"
            },
            {
              "internalType": "uint256",
              "name": "expDateEpoch",
              "type": "uint256"
            },
            {
              "internalType": "bool",
              "name": "isInBatch",
              "type": "bool"
            },
            {
              "internalType": "uint256",
              "name": "batchCount",
              "type": "uint256"
            },
            {
              "internalType": "string",
              "name": "barcodeId",
              "type": "string"
            },
            {
              "internalType": "string",
              "name": "productImage",
              "type": "string"
            },
            {
              "internalType": "enum Types.ProductType",
              "name": "productType",
              "type": "uint8"
            },
            {
              "internalType": "string",
              "name": "scientificName",
              "type": "string"
            },
            {
              "internalType": "string",
              "name": "usage",
              "type": "string"
            },
            {
              "internalType": "string[]",
              "name": "composition",
              "type": "string[]"
            },
            {
              "internalType": "string[]",
              "name": "sideEffects",
              "type": "string[]"
            }
          ],
          "internalType": "struct Types.Product[]",
          "name": "",
          "type": "tuple[]"
        }
      ],
      "stateMutability": "view",
      "type": "function"
    },
    {
      "inputs": [
        {
          "internalType": "string",
          "name": "barcodeId_",
          "type": "string"
        }
      ],
      "name": "getSingleProduct",
      "outputs": [
        {
          "components": [
            {
              "internalType": "string",
              "name": "name",
              "type": "string"
            },
            {
              "internalType": "string",
              "name": "manufacturerName",
              "type": "string"
            },
            {
              "internalType": "address",
              "name": "manufacturer",
              "type": "address"
            },
            {
              "internalType": "uint256",
              "name": "manDateEpoch",
              "type": "uint256"
            },
            {
              "internalType": "uint256",
              "name": "expDateEpoch",
              "type": "uint256"
            },
            {
              "internalType": "bool",
              "name": "isInBatch",
              "type": "bool"
            },
            {
              "internalType": "uint256",
              "name": "batchCount",
              "type": "uint256"
            },
            {
              "internalType": "string",
              "name": "barcodeId",
              "type": "string"
            },
            {
              "internalType": "string",
              "name": "productImage",
              "type": "string"
            },
            {
              "internalType": "enum Types.ProductType",
              "name": "productType",
              "type": "uint8"
            },
            {
              "internalType": "string",
              "name": "scientificName",
              "type": "string"
            },
            {
              "internalType": "string",
              "name": "usage",
              "type": "string"
            },
            {
              "internalType": "string[]",
              "name": "composition",
              "type": "string[]"
            },
            {
              "internalType": "string[]",
              "name": "sideEffects",
              "type": "string[]"
            }
          ],
          "internalType": "struct Types.Product",
          "name": "",
          "type": "tuple"
        },
        {
          "components": [
            {
              "components": [
                {
                  "internalType": "address",
                  "name": "id_",
                  "type": "address"
                },
                {
                  "internalType": "uint256",
                  "name": "date",
                  "type": "uint256"
                }
              ],
              "internalType": "struct Types.UserHistory",
              "name": "manufacturer",
              "type": "tuple"
            },
            {
              "components": [
                {
                  "internalType": "address",
                  "name": "id_",
                  "type": "address"
                },
                {
                  "internalType": "uint256",
                  "name": "date",
                  "type": "uint256"
                }
              ],
              "internalType": "struct Types.UserHistory",
              "name": "supplier",
              "type": "tuple"
            },
            {
              "components": [
                {
                  "internalType": "address",
                  "name": "id_",
                  "type": "address"
                },
                {
                  "internalType": "uint256",
                  "name": "date",
                  "type": "uint256"
                }
              ],
              "internalType": "struct Types.UserHistory",
              "name": "vendor",
              "type": "tuple"
            },
            {
              "components": [
                {
                  "internalType": "address",
                  "name": "id_",
                  "type": "address"
                },
                {
                  "internalType": "uint256",
                  "name": "date",
                  "type": "uint256"
                }
              ],
              "internalType": "struct Types.UserHistory[]",
              "name": "customers",
              "type": "tuple[]"
            }
          ],
          "internalType": "struct Types.ProductHistory",
          "name": "",
          "type": "tuple"
        }
      ],
      "stateMutability": "view",
      "type": "function"
    },
    {
      "inputs": [
        {
          "components": [
            {
              "internalType": "string",
              "name": "name",
              "type": "string"
            },
            {
              "internalType": "string",
              "name": "manufacturerName",
              "type": "string"
            },
            {
              "internalType": "address",
              "name": "manufacturer",
              "type": "address"
            },
            {
              "internalType": "uint256",
              "name": "manDateEpoch",
              "type": "uint256"
            },
            {
              "internalType": "uint256",
              "name": "expDateEpoch",
              "type": "uint256"
            },
            {
              "internalType": "bool",
              "name": "isInBatch",
              "type": "bool"
            },
            {
              "internalType": "uint256",
              "name": "batchCount",
              "type": "uint256"
            },
            {
              "internalType": "string",
              "name": "barcodeId",
              "type": "string"
            },
            {
              "internalType": "string",
              "name": "productImage",
              "type": "string"
            },
            {
              "internalType": "enum Types.ProductType",
              "name": "productType",
              "type": "uint8"
            },
            {
              "internalType": "string",
              "name": "scientificName",
              "type": "string"
            },
            {
              "internalType": "string",
              "name": "usage",
              "type": "string"
            },
            {
              "internalType": "string[]",
              "name": "composition",
              "type": "string[]"
            },
            {
              "internalType": "string[]",
              "name": "sideEffects",
              "type": "string[]"
            }
          ],
          "internalType": "struct Types.Product",
          "name": "product_",
          "type": "tuple"
        },
        {
          "internalType": "uint256",
          "name": "currentTime_",
          "type": "uint256"
        }
      ],
      "name": "addProduct",
      "outputs": [],
      "stateMutability": "nonpayable",
      "type": "function"
    },
    {
      "inputs": [
        {
          "internalType": "address",
          "name": "partyId_",
          "type": "address"
        },
        {
          "internalType": "string",
          "name": "barcodeId_",
          "type": "string"
        },
        {
          "internalType": "uint256",
          "name": "currentTime_",
          "type": "uint256"
        }
      ],
      "name": "sellProduct",
      "outputs": [],
      "stateMutability": "nonpayable",
      "type": "function"
    }
  ],
  "bytecode": "0x60806040523480156200001157600080fd5b50604051620054f7380380620054f7833981810160405281019062000037919062000565565b60006040518060800160405280600060038111156200005b576200005a620005ea565b5b81526020013373ffffffffffffffffffffffffffffffffffffffff1681526020018481526020018381525090506200009981620000a260201b60201c565b50505062000aab565b600073ffffffffffffffffffffffffffffffffffffffff16816020015173ffffffffffffffffffffffffffffffffffffffff1603620000e057600080fd5b620000fa816000015182602001516200027960201b60201c565b156200013d576040517f08c379a000000000000000000000000000000000000000000000000000000000815260040162000134906200067a565b60405180910390fd5b80600080836020015173ffffffffffffffffffffffffffffffffffffffff1673ffffffffffffffffffffffffffffffffffffffff16815260200190815260200160002060008201518160000160006101000a81548160ff02191690836003811115620001ae57620001ad620005ea565b5b021790555060208201518160000160016101000a81548173ffffffffffffffffffffffffffffffffffffffff021916908373ffffffffffffffffffffffffffffffffffffffff1602179055506040820151816001019081620002119190620008e7565b506060820151816002019081620002299190620008e7565b509050507f71d9dffdac919adfd06ab94bdebcd997efa2ba73e829a41e63107c7f8ae330f68160400151826060015183600001516040516200026e9392919062000a60565b60405180910390a150565b60008073ffffffffffffffffffffffffffffffffffffffff168273ffffffffffffffffffffffffffffffffffffffff1603620002b457600080fd5b600073ffffffffffffffffffffffffffffffffffffffff166000808473ffffffffffffffffffffffffffffffffffffffff1673ffffffffffffffffffffffffffffffffffffffff16815260200190815260200160002060000160019054906101000a900473ffffffffffffffffffffffffffffffffffffffff1673ffffffffffffffffffffffffffffffffffffffff1614158015620003ca5750826003811115620003645762000363620005ea565b5b6000808473ffffffffffffffffffffffffffffffffffffffff1673ffffffffffffffffffffffffffffffffffffffff16815260200190815260200160002060000160009054906101000a900460ff166003811115620003c857620003c7620005ea565b5b145b905092915050565b6000604051905090565b600080fd5b600080fd5b600080fd5b600080fd5b6000601f19601f8301169050919050565b7f4e487b7100000000000000000000000000000000000000000000000000000000600052604160045260246000fd5b6200043b82620003f0565b810181811067ffffffffffffffff821117156200045d576200045c62000401565b5b80604052505050565b600062000472620003d2565b905062000480828262000430565b919050565b600067ffffffffffffffff821115620004a357620004a262000401565b5b620004ae82620003f0565b9050602081019050919050565b60005b83811015620004db578082015181840152602081019050620004be565b60008484015250505050565b6000620004fe620004f88462000485565b62000466565b9050828152602081018484840111156200051d576200051c620003eb565b5b6200052a848285620004bb565b509392505050565b600082601f8301126200054a5762000549620003e6565b5b81516200055c848260208601620004e7565b91505092915050565b600080604083850312156200057f576200057e620003dc565b5b600083015167ffffffffffffffff811115620005a0576200059f620003e1565b5b620005ae8582860162000532565b925050602083015167ffffffffffffffff811115620005d257620005d1620003e1565b5b620005e08582860162000532565b9150509250929050565b7f4e487b7100000000000000000000000000000000000000000000000000000000600052602160045260246000fd5b600082825260208201905092915050565b7f53616d65207573657220776974682073616d6520726f6c652065786973747300600082015250565b600062000662601f8362000619565b91506200066f826200062a565b602082019050919050565b60006020820190508181036000830152620006958162000653565b9050919050565b600081519050919050565b7f4e487b7100000000000000000000000000000000000000000000000000000000600052602260045260246000fd5b60006002820490506001821680620006ef57607f821691505b602082108103620007055762000704620006a7565b5b50919050565b60008190508160005260206000209050919050565b60006020601f8301049050919050565b600082821b905092915050565b6000600883026200076f7fffffffffffffffffffffffffffffffffffffffffffffffffffffffffffffffff8262000730565b6200077b868362000730565b95508019841693508086168417925050509392505050565b6000819050919050565b6000819050919050565b6000620007c8620007c2620007bc8462000793565b6200079d565b62000793565b9050919050565b6000819050919050565b620007e483620007a7565b620007fc620007f382620007cf565b8484546200073d565b825550505050565b600090565b6200081362000804565b62000820818484620007d9565b505050565b5b8181101562000848576200083c60008262000809565b60018101905062000826565b5050565b601f821115620008975762000861816200070b565b6200086c8462000720565b810160208510156200087c578190505b620008946200088b8562000720565b83018262000825565b50505b505050565b600082821c905092915050565b6000620008bc600019846008026200089c565b1980831691505092915050565b6000620008d78383620008a9565b9150826002028217905092915050565b620008f2826200069c565b67ffffffffffffffff8111156200090e576200090d62000401565b5b6200091a8254620006d6565b620009278282856200084c565b600060209050601f8311600181146200095f57600084156200094a578287015190505b620009568582620008c9565b865550620009c6565b601f1984166200096f866200070b565b60005b82811015620009995784890151825560018201915060208501945060208101905062000972565b86831015620009b95784890151620009b5601f891682620008a9565b8355505b6001600288020188555050505b505050505050565b6000620009db826200069c565b620009e7818562000619565b9350620009f9818560208601620004bb565b62000a0481620003f0565b840191505092915050565b6004811062000a235762000a22620005ea565b5b50565b600081905062000a368262000a0f565b919050565b600062000a488262000a26565b9050919050565b62000a5a8162000a3b565b82525050565b6000606082019050818103600083015262000a7c8186620009ce565b9050818103602083015262000a928185620009ce565b905062000aa3604083018462000a4f565b949350505050565b614a3c8062000abb6000396000f3fe608060405234801561001057600080fd5b50600436106100575760003560e01c806302ee3a521461005c578063067f046a1461007a57806316756b0e146100965780638248581e146100c7578063fdca4ca3146100e3575b600080fd5b610064610101565b60405161007191906137bc565b60405180910390f35b610094600480360381019061008f919061397f565b610749565b005b6100b060048036038101906100ab91906139ee565b6109a5565b6040516100be929190613cd7565b60405180910390f35b6100e160048036038101906100dc919061407d565b6109c7565b005b6100eb610bc9565b6040516100f891906137bc565b60405180910390f35b60606004805480602002602001604051908101604052809291908181526020016000905b8282101561074057838290600052602060002090600e0201604051806101c001604052908160008201805461015990614108565b80601f016020809104026020016040519081016040528092919081815260200182805461018590614108565b80156101d25780601f106101a7576101008083540402835291602001916101d2565b820191906000526020600020905b8154815290600101906020018083116101b557829003601f168201915b505050505081526020016001820180546101eb90614108565b80601f016020809104026020016040519081016040528092919081815260200182805461021790614108565b80156102645780601f1061023957610100808354040283529160200191610264565b820191906000526020600020905b81548152906001019060200180831161024757829003601f168201915b505050505081526020016002820160009054906101000a900473ffffffffffffffffffffffffffffffffffffffff1673ffffffffffffffffffffffffffffffffffffffff1673ffffffffffffffffffffffffffffffffffffffff16815260200160038201548152602001600482015481526020016005820160009054906101000a900460ff161515151581526020016006820154815260200160078201805461030c90614108565b80601f016020809104026020016040519081016040528092919081815260200182805461033890614108565b80156103855780601f1061035a57610100808354040283529160200191610385565b820191906000526020600020905b81548152906001019060200180831161036857829003601f168201915b5050505050815260200160088201805461039e90614108565b80601f01602080910402602001604051908101604052809291908181526020018280546103ca90614108565b80156104175780601f106103ec57610100808354040283529160200191610417565b820191906000526020600020905b8154815290600101906020018083116103fa57829003601f168201915b505050505081526020016009820160009054906101000a900460ff1660048111156104455761044461348e565b5b60048111156104575761045661348e565b5b8152602001600a8201805461046b90614108565b80601f016020809104026020016040519081016040528092919081815260200182805461049790614108565b80156104e45780601f106104b9576101008083540402835291602001916104e4565b820191906000526020600020905b8154815290600101906020018083116104c757829003601f168201915b50505050508152602001600b820180546104fd90614108565b80601f016020809104026020016040519081016040528092919081815260200182805461052990614108565b80156105765780601f1061054b57610100808354040283529160200191610576565b820191906000526020600020905b81548152906001019060200180831161055957829003601f168201915b50505050508152602001600c8201805480602002602001604051908101604052809291908181526020016000905b828210156106505783829060005260206000200180546105c390614108565b80601f01602080910402602001604051908101604052809291908181526020018280546105ef90614108565b801561063c5780601f106106115761010080835404028352916020019161063c565b820191906000526020600020905b81548152906001019060200180831161061f57829003601f168201915b5050505050815260200190600101906105a4565b505050508152602001600d8201805480602002602001604051908101604052809291908181526020016000905b8282101561072957838290600052602060002001805461069c90614108565b80601f01602080910402602001604051908101604052809291908181526020018280546106c890614108565b80156107155780601f106106ea57610100808354040283529160200191610715565b820191906000526020600020905b8154815290600101906020018083116106f857829003601f168201915b50505050508152602001906001019061067d565b505050508152505081526020019060010190610125565b50505050905090565b61075283610bd8565b610791576040517f08c379a000000000000000000000000000000000000000000000000000000000815260040161078890614196565b60405180910390fd5b60008060008573ffffffffffffffffffffffffffffffffffffffff1673ffffffffffffffffffffffffffffffffffffffff1681526020019081526020016000206040518060800160405290816000820160009054906101000a900460ff1660038111156108015761080061348e565b5b60038111156108135761081261348e565b5b81526020016000820160019054906101000a900473ffffffffffffffffffffffffffffffffffffffff1673ffffffffffffffffffffffffffffffffffffffff1673ffffffffffffffffffffffffffffffffffffffff16815260200160018201805461087d90614108565b80601f01602080910402602001604051908101604052809291908181526020018280546108a990614108565b80156108f65780601f106108cb576101008083540402835291602001916108f6565b820191906000526020600020905b8154815290600101906020018083116108d957829003601f168201915b5050505050815260200160028201805461090f90614108565b80601f016020809104026020016040519081016040528092919081815260200182805461093b90614108565b80156109885780601f1061095d57610100808354040283529160200191610988565b820191906000526020600020905b81548152906001019060200180831161096b57829003601f168201915b505050505081525050905061099f84848385610cbc565b50505050565b6109ad61315f565b6109b56131f8565b6109be836116a5565b91509150915091565b600073ffffffffffffffffffffffffffffffffffffffff163373ffffffffffffffffffffffffffffffffffffffff1603610a36576040517f08c379a0000000000000000000000000000000000000000000000000000000008152600401610a2d90614202565b60405180910390fd5b600073ffffffffffffffffffffffffffffffffffffffff166000803373ffffffffffffffffffffffffffffffffffffffff1673ffffffffffffffffffffffffffffffffffffffff16815260200190815260200160002060000160019054906101000a900473ffffffffffffffffffffffffffffffffffffffff1673ffffffffffffffffffffffffffffffffffffffff1603610b06576040517f08c379a0000000000000000000000000000000000000000000000000000000008152600401610afd9061426e565b60405180910390fd5b60006003811115610b1a57610b1961348e565b5b6000803373ffffffffffffffffffffffffffffffffffffffff1673ffffffffffffffffffffffffffffffffffffffff16815260200190815260200160002060000160009054906101000a900460ff166003811115610b7b57610b7a61348e565b5b14610bbb576040517f08c379a0000000000000000000000000000000000000000000000000000000008152600401610bb2906142da565b60405180910390fd5b610bc58282611f1a565b5050565b6060610bd361251b565b905090565b600080600073ffffffffffffffffffffffffffffffffffffffff168373ffffffffffffffffffffffffffffffffffffffff1603610c185780915050610cb7565b600073ffffffffffffffffffffffffffffffffffffffff166000808573ffffffffffffffffffffffffffffffffffffffff1673ffffffffffffffffffffffffffffffffffffffff16815260200190815260200160002060000160019054906101000a900473ffffffffffffffffffffffffffffffffffffffff1673ffffffffffffffffffffffffffffffffffffffff1614610cb257600190505b809150505b919050565b82610d7f600582604051610cd09190614336565b90815260200160405180910390206007018054610cec90614108565b80601f0160208091040260200160405190810160405280929190818152602001828054610d1890614108565b8015610d655780601f10610d3a57610100808354040283529160200191610d65565b820191906000526020600020905b815481529060010190602001808311610d4857829003601f168201915b505050505060405180602001604052806000815250612cfb565b15610d8957600080fd5b6000600585604051610d9b9190614336565b9081526020016040518091039020604051806101c0016040529081600082018054610dc590614108565b80601f0160208091040260200160405190810160405280929190818152602001828054610df190614108565b8015610e3e5780601f10610e1357610100808354040283529160200191610e3e565b820191906000526020600020905b815481529060010190602001808311610e2157829003601f168201915b50505050508152602001600182018054610e5790614108565b80601f0160208091040260200160405190810160405280929190818152602001828054610e8390614108565b8015610ed05780601f10610ea557610100808354040283529160200191610ed0565b820191906000526020600020905b815481529060010190602001808311610eb357829003601f168201915b505050505081526020016002820160009054906101000a900473ffffffffffffffffffffffffffffffffffffffff1673ffffffffffffffffffffffffffffffffffffffff1673ffffffffffffffffffffffffffffffffffffffff16815260200160038201548152602001600482015481526020016005820160009054906101000a900460ff1615151515815260200160068201548152602001600782018054610f7890614108565b80601f0160208091040260200160405190810160405280929190818152602001828054610fa490614108565b8015610ff15780601f10610fc657610100808354040283529160200191610ff1565b820191906000526020600020905b815481529060010190602001808311610fd457829003601f168201915b5050505050815260200160088201805461100a90614108565b80601f016020809104026020016040519081016040528092919081815260200182805461103690614108565b80156110835780601f1061105857610100808354040283529160200191611083565b820191906000526020600020905b81548152906001019060200180831161106657829003601f168201915b505050505081526020016009820160009054906101000a900460ff1660048111156110b1576110b061348e565b5b60048111156110c3576110c261348e565b5b8152602001600a820180546110d790614108565b80601f016020809104026020016040519081016040528092919081815260200182805461110390614108565b80156111505780601f1061112557610100808354040283529160200191611150565b820191906000526020600020905b81548152906001019060200180831161113357829003601f168201915b50505050508152602001600b8201805461116990614108565b80601f016020809104026020016040519081016040528092919081815260200182805461119590614108565b80156111e25780601f106111b7576101008083540402835291602001916111e2565b820191906000526020600020905b8154815290600101906020018083116111c557829003601f168201915b50505050508152602001600c8201805480602002602001604051908101604052809291908181526020016000905b828210156112bc57838290600052602060002001805461122f90614108565b80601f016020809104026020016040519081016040528092919081815260200182805461125b90614108565b80156112a85780601f1061127d576101008083540402835291602001916112a8565b820191906000526020600020905b81548152906001019060200180831161128b57829003601f168201915b505050505081526020019060010190611210565b505050508152602001600d8201805480602002602001604051908101604052809291908181526020016000905b8282101561139557838290600052602060002001805461130890614108565b80601f016020809104026020016040519081016040528092919081815260200182805461133490614108565b80156113815780601f1061135657610100808354040283529160200191611381565b820191906000526020600020905b81548152906001019060200180831161136457829003601f168201915b5050505050815260200190600101906112e9565b5050505081525050905060006040518060400160405280866020015173ffffffffffffffffffffffffffffffffffffffff168152602001858152509050600160038111156113e6576113e561348e565b5b856000015160038111156113fd576113fc61348e565b5b0361147d57806007876040516114139190614336565b908152602001604051809103902060020160008201518160000160006101000a81548173ffffffffffffffffffffffffffffffffffffffff021916908373ffffffffffffffffffffffffffffffffffffffff16021790555060208201518160010155905050611637565b600260038111156114915761149061348e565b5b856000015160038111156114a8576114a761348e565b5b0361152857806007876040516114be9190614336565b908152602001604051809103902060040160008201518160000160006101000a81548173ffffffffffffffffffffffffffffffffffffffff021916908373ffffffffffffffffffffffffffffffffffffffff16021790555060208201518160010155905050611636565b60038081111561153b5761153a61348e565b5b856000015160038111156115525761155161348e565b5b036115fa576007866040516115679190614336565b908152602001604051809103902060060181908060018154018082558091505060019003906000526020600020906002020160009091909190915060008201518160000160006101000a81548173ffffffffffffffffffffffffffffffffffffffff021916908373ffffffffffffffffffffffffffffffffffffffff160217905550602082015181600101555050611635565b6040517f08c379a000000000000000000000000000000000000000000000000000000000815260040161162c90614399565b60405180910390fd5b5b5b611642338888612d54565b7fe506af946a27b45d5181c4cb95c3a98fa538282ac2f40f4afce8a3de328e51fd826000015183602001518461014001518560e0015189604001518a60600151604051611694969594939291906143f2565b60405180910390a150505050505050565b6116ad61315f565b6116b56131f8565b6005836040516116c59190614336565b90815260200160405180910390206007846040516116e39190614336565b908152602001604051809103902081604051806101c001604052908160008201805461170e90614108565b80601f016020809104026020016040519081016040528092919081815260200182805461173a90614108565b80156117875780601f1061175c57610100808354040283529160200191611787565b820191906000526020600020905b81548152906001019060200180831161176a57829003601f168201915b505050505081526020016001820180546117a090614108565b80601f01602080910402602001604051908101604052809291908181526020018280546117cc90614108565b80156118195780601f106117ee57610100808354040283529160200191611819565b820191906000526020600020905b8154815290600101906020018083116117fc57829003601f168201915b505050505081526020016002820160009054906101000a900473ffffffffffffffffffffffffffffffffffffffff1673ffffffffffffffffffffffffffffffffffffffff1673ffffffffffffffffffffffffffffffffffffffff16815260200160038201548152602001600482015481526020016005820160009054906101000a900460ff16151515158152602001600682015481526020016007820180546118c190614108565b80601f01602080910402602001604051908101604052809291908181526020018280546118ed90614108565b801561193a5780601f1061190f5761010080835404028352916020019161193a565b820191906000526020600020905b81548152906001019060200180831161191d57829003601f168201915b5050505050815260200160088201805461195390614108565b80601f016020809104026020016040519081016040528092919081815260200182805461197f90614108565b80156119cc5780601f106119a1576101008083540402835291602001916119cc565b820191906000526020600020905b8154815290600101906020018083116119af57829003601f168201915b505050505081526020016009820160009054906101000a900460ff1660048111156119fa576119f961348e565b5b6004811115611a0c57611a0b61348e565b5b8152602001600a82018054611a2090614108565b80601f0160208091040260200160405190810160405280929190818152602001828054611a4c90614108565b8015611a995780601f10611a6e57610100808354040283529160200191611a99565b820191906000526020600020905b815481529060010190602001808311611a7c57829003601f168201915b50505050508152602001600b82018054611ab290614108565b80601f0160208091040260200160405190810160405280929190818152602001828054611ade90614108565b8015611b2b5780601f10611b0057610100808354040283529160200191611b2b565b820191906000526020600020905b815481529060010190602001808311611b0e57829003601f168201915b50505050508152602001600c8201805480602002602001604051908101604052809291908181526020016000905b82821015611c05578382906000526020600020018054611b7890614108565b80601f0160208091040260200160405190810160405280929190818152602001828054611ba490614108565b8015611bf15780601f10611bc657610100808354040283529160200191611bf1565b820191906000526020600020905b815481529060010190602001808311611bd457829003601f168201915b505050505081526020019060010190611b59565b505050508152602001600d8201805480602002602001604051908101604052809291908181526020016000905b82821015611cde578382906000526020600020018054611c5190614108565b80601f0160208091040260200160405190810160405280929190818152602001828054611c7d90614108565b8015611cca5780601f10611c9f57610100808354040283529160200191611cca565b820191906000526020600020905b815481529060010190602001808311611cad57829003601f168201915b505050505081526020019060010190611c32565b5050505081525050915080604051806080016040529081600082016040518060400160405290816000820160009054906101000a900473ffffffffffffffffffffffffffffffffffffffff1673ffffffffffffffffffffffffffffffffffffffff1673ffffffffffffffffffffffffffffffffffffffff1681526020016001820154815250508152602001600282016040518060400160405290816000820160009054906101000a900473ffffffffffffffffffffffffffffffffffffffff1673ffffffffffffffffffffffffffffffffffffffff1673ffffffffffffffffffffffffffffffffffffffff1681526020016001820154815250508152602001600482016040518060400160405290816000820160009054906101000a900473ffffffffffffffffffffffffffffffffffffffff1673ffffffffffffffffffffffffffffffffffffffff1673ffffffffffffffffffffffffffffffffffffffff168152602001600182015481525050815260200160068201805480602002602001604051908101604052809291908181526020016000905b82821015611f0757838290600052602060002090600202016040518060400160405290816000820160009054906101000a900473ffffffffffffffffffffffffffffffffffffffff1673ffffffffffffffffffffffffffffffffffffffff1673ffffffffffffffffffffffffffffffffffffffff16815260200160018201548152505081526020019060010190611e75565b5050505081525050905091509150915091565b8160e00151611fe1600582604051611f329190614336565b90815260200160405180910390206007018054611f4e90614108565b80601f0160208091040260200160405190810160405280929190818152602001828054611f7a90614108565b8015611fc75780601f10611f9c57610100808354040283529160200191611fc7565b820191906000526020600020905b815481529060010190602001808311611faa57829003601f168201915b505050505060405180602001604052806000815250612cfb565b611fea57600080fd5b3373ffffffffffffffffffffffffffffffffffffffff16836040015173ffffffffffffffffffffffffffffffffffffffff161461205c576040517f08c379a0000000000000000000000000000000000000000000000000000000008152600401612053906142da565b60405180910390fd5b60048390806001815401808255809150506001900390600052602060002090600e0201600090919091909150600082015181600001908161209d9190614629565b5060208201518160010190816120b39190614629565b5060408201518160020160006101000a81548173ffffffffffffffffffffffffffffffffffffffff021916908373ffffffffffffffffffffffffffffffffffffffff160217905550606082015181600301556080820151816004015560a08201518160050160006101000a81548160ff02191690831515021790555060c0820151816006015560e082015181600701908161214e9190614629565b506101008201518160080190816121659190614629565b506101208201518160090160006101000a81548160ff021916908360048111156121925761219161348e565b5b021790555061014082015181600a0190816121ad9190614629565b5061016082015181600b0190816121c49190614629565b5061018082015181600c0190805190602001906121e2929190613232565b506101a082015181600d019080519060200190612200929190613232565b5050508260058460e001516040516122189190614336565b9081526020016040518091039020600082015181600001908161223b9190614629565b5060208201518160010190816122519190614629565b5060408201518160020160006101000a81548173ffffffffffffffffffffffffffffffffffffffff021916908373ffffffffffffffffffffffffffffffffffffffff160217905550606082015181600301556080820151816004015560a08201518160050160006101000a81548160ff02191690831515021790555060c0820151816006015560e08201518160070190816122ec9190614629565b506101008201518160080190816123039190614629565b506101208201518160090160006101000a81548160ff021916908360048111156123305761232f61348e565b5b021790555061014082015181600a01908161234b9190614629565b5061016082015181600b0190816123629190614629565b5061018082015181600c019080519060200190612380929190613232565b506101a082015181600d01908051906020019061239e929190613232565b5090505060405180604001604052803373ffffffffffffffffffffffffffffffffffffffff1681526020018381525060078460e001516040516123e19190614336565b908152602001604051809103902060000160008201518160000160006101000a81548173ffffffffffffffffffffffffffffffffffffffff021916908373ffffffffffffffffffffffffffffffffffffffff16021790555060208201518160010155905050600660003373ffffffffffffffffffffffffffffffffffffffff1673ffffffffffffffffffffffffffffffffffffffff1681526020019081526020016000208360e001519080600181540180825580915050600190039060005260206000200160009091909190915090816124bb9190614629565b507f6d3f7be874572e7843c7697df05672c142e68bab8cc20a6a88f885ed0a49d900836000015184602001518561014001518660e001518760600151886080015160405161250e9695949392919061470a565b60405180910390a1505050565b60606000600660003373ffffffffffffffffffffffffffffffffffffffff1673ffffffffffffffffffffffffffffffffffffffff168152602001908152602001600020805480602002602001604051908101604052809291908181526020016000905b8282101561262a57838290600052602060002001805461259d90614108565b80601f01602080910402602001604051908101604052809291908181526020018280546125c990614108565b80156126165780601f106125eb57610100808354040283529160200191612616565b820191906000526020600020905b8154815290600101906020018083116125f957829003601f168201915b50505050508152602001906001019061257e565b5050505090506000815167ffffffffffffffff81111561264d5761264c613828565b5b60405190808252806020026020018201604052801561268657816020015b61267361315f565b81526020019060019003908161266b5790505b50905060005b8251811015612cf25760058382815181106126aa576126a9614787565b5b60200260200101516040516126bf9190614336565b9081526020016040518091039020604051806101c00160405290816000820180546126e990614108565b80601f016020809104026020016040519081016040528092919081815260200182805461271590614108565b80156127625780601f1061273757610100808354040283529160200191612762565b820191906000526020600020905b81548152906001019060200180831161274557829003601f168201915b5050505050815260200160018201805461277b90614108565b80601f01602080910402602001604051908101604052809291908181526020018280546127a790614108565b80156127f45780601f106127c9576101008083540402835291602001916127f4565b820191906000526020600020905b8154815290600101906020018083116127d757829003601f168201915b505050505081526020016002820160009054906101000a900473ffffffffffffffffffffffffffffffffffffffff1673ffffffffffffffffffffffffffffffffffffffff1673ffffffffffffffffffffffffffffffffffffffff16815260200160038201548152602001600482015481526020016005820160009054906101000a900460ff161515151581526020016006820154815260200160078201805461289c90614108565b80601f01602080910402602001604051908101604052809291908181526020018280546128c890614108565b80156129155780601f106128ea57610100808354040283529160200191612915565b820191906000526020600020905b8154815290600101906020018083116128f857829003601f168201915b5050505050815260200160088201805461292e90614108565b80601f016020809104026020016040519081016040528092919081815260200182805461295a90614108565b80156129a75780601f1061297c576101008083540402835291602001916129a7565b820191906000526020600020905b81548152906001019060200180831161298a57829003601f168201915b505050505081526020016009820160009054906101000a900460ff1660048111156129d5576129d461348e565b5b60048111156129e7576129e661348e565b5b8152602001600a820180546129fb90614108565b80601f0160208091040260200160405190810160405280929190818152602001828054612a2790614108565b8015612a745780601f10612a4957610100808354040283529160200191612a74565b820191906000526020600020905b815481529060010190602001808311612a5757829003601f168201915b50505050508152602001600b82018054612a8d90614108565b80601f0160208091040260200160405190810160405280929190818152602001828054612ab990614108565b8015612b065780601f10612adb57610100808354040283529160200191612b06565b820191906000526020600020905b815481529060010190602001808311612ae957829003601f168201915b50505050508152602001600c8201805480602002602001604051908101604052809291908181526020016000905b82821015612be0578382906000526020600020018054612b5390614108565b80601f0160208091040260200160405190810160405280929190818152602001828054612b7f90614108565b8015612bcc5780601f10612ba157610100808354040283529160200191612bcc565b820191906000526020600020905b815481529060010190602001808311612baf57829003601f168201915b505050505081526020019060010190612b34565b505050508152602001600d8201805480602002602001604051908101604052809291908181526020016000905b82821015612cb9578382906000526020600020018054612c2c90614108565b80601f0160208091040260200160405190810160405280929190818152602001828054612c5890614108565b8015612ca55780601f10612c7a57610100808354040283529160200191612ca5565b820191906000526020600020905b815481529060010190602001808311612c8857829003601f168201915b505050505081526020019060010190612c0d565b5050505081525050828281518110612cd457612cd3614787565b5b60200260200101819052508080612cea906147e5565b91505061268c565b50809250505090565b600081604051602001612d0e9190614336565b6040516020818303038152906040528051906020012083604051602001612d359190614336565b6040516020818303038152906040528051906020012014905092915050565b600660008373ffffffffffffffffffffffffffffffffffffffff1673ffffffffffffffffffffffffffffffffffffffff16815260200190815260200160002081908060018154018082558091505060019003906000526020600020016000909190919091509081612dc59190614629565b506000600660008573ffffffffffffffffffffffffffffffffffffffff1673ffffffffffffffffffffffffffffffffffffffff168152602001908152602001600020805480602002602001604051908101604052809291908181526020016000905b82821015612ed3578382906000526020600020018054612e4690614108565b80601f0160208091040260200160405190810160405280929190818152602001828054612e7290614108565b8015612ebf5780601f10612e9457610100808354040283529160200191612ebf565b820191906000526020600020905b815481529060010190602001808311612ea257829003601f168201915b505050505081526020019060010190612e27565b505050509050600060018251612ee9919061482d565b905060005b8251811015612f3b57612f1b838281518110612f0d57612f0c614787565b5b602002602001015185612cfb565b15612f2857809150612f3b565b8080612f33906147e5565b915050612eee565b5081518110612f4d57612f4c614861565b5b6001825103612fa657600660008673ffffffffffffffffffffffffffffffffffffffff1673ffffffffffffffffffffffffffffffffffffffff1681526020019081526020016000206000612fa1919061328b565b613158565b600660008673ffffffffffffffffffffffffffffffffffffffff1673ffffffffffffffffffffffffffffffffffffffff16815260200190815260200160002060018351612ff39190614890565b8154811061300457613003614787565b5b90600052602060002001600660008773ffffffffffffffffffffffffffffffffffffffff1673ffffffffffffffffffffffffffffffffffffffff168152602001908152602001600020828154811061305f5761305e614787565b5b90600052602060002001908161307591906148ef565b50600660008673ffffffffffffffffffffffffffffffffffffffff1673ffffffffffffffffffffffffffffffffffffffff168152602001908152602001600020600183516130c39190614890565b815481106130d4576130d3614787565b5b9060005260206000200160006130ea91906132ac565b600660008673ffffffffffffffffffffffffffffffffffffffff1673ffffffffffffffffffffffffffffffffffffffff168152602001908152602001600020805480613139576131386149d7565b5b60019003818190600052602060002001600061315591906132ac565b90555b5050505050565b604051806101c001604052806060815260200160608152602001600073ffffffffffffffffffffffffffffffffffffffff1681526020016000815260200160008152602001600015158152602001600081526020016060815260200160608152602001600060048111156131d6576131d561348e565b5b8152602001606081526020016060815260200160608152602001606081525090565b604051806080016040528061320b6132ec565b81526020016132186132ec565b81526020016132256132ec565b8152602001606081525090565b82805482825590600052602060002090810192821561327a579160200282015b828111156132795782518290816132699190614629565b5091602001919060010190613252565b5b509050613287919061331c565b5090565b50805460008255906000526020600020908101906132a9919061331c565b50565b5080546132b890614108565b6000825580601f106132ca57506132e9565b601f0160209004906000526020600020908101906132e89190613340565b5b50565b6040518060400160405280600073ffffffffffffffffffffffffffffffffffffffff168152602001600081525090565b5b8082111561333c576000818161333391906132ac565b5060010161331d565b5090565b5b80821115613359576000816000905550600101613341565b5090565b600081519050919050565b600082825260208201905092915050565b6000819050602082019050919050565b600081519050919050565b600082825260208201905092915050565b60005b838110156133c35780820151818401526020810190506133a8565b60008484015250505050565b6000601f19601f8301169050919050565b60006133eb82613389565b6133f58185613394565b93506134058185602086016133a5565b61340e816133cf565b840191505092915050565b600073ffffffffffffffffffffffffffffffffffffffff82169050919050565b600061344482613419565b9050919050565b61345481613439565b82525050565b6000819050919050565b61346d8161345a565b82525050565b60008115159050919050565b61348881613473565b82525050565b7f4e487b7100000000000000000000000000000000000000000000000000000000600052602160045260246000fd5b600581106134ce576134cd61348e565b5b50565b60008190506134df826134bd565b919050565b60006134ef826134d1565b9050919050565b6134ff816134e4565b82525050565b600081519050919050565b600082825260208201905092915050565b6000819050602082019050919050565b600061353d83836133e0565b905092915050565b6000602082019050919050565b600061355d82613505565b6135678185613510565b93508360208202850161357985613521565b8060005b858110156135b557848403895281516135968582613531565b94506135a183613545565b925060208a0199505060018101905061357d565b50829750879550505050505092915050565b60006101c08301600083015184820360008601526135e582826133e0565b915050602083015184820360208601526135ff82826133e0565b9150506040830151613614604086018261344b565b5060608301516136276060860182613464565b50608083015161363a6080860182613464565b5060a083015161364d60a086018261347f565b5060c083015161366060c0860182613464565b5060e083015184820360e086015261367882826133e0565b91505061010083015184820361010086015261369482826133e0565b9150506101208301516136ab6101208601826134f6565b506101408301518482036101408601526136c582826133e0565b9150506101608301518482036101608601526136e182826133e0565b9150506101808301518482036101808601526136fd8282613552565b9150506101a08301518482036101a08601526137198282613552565b9150508091505092915050565b600061373283836135c7565b905092915050565b6000602082019050919050565b60006137528261335d565b61375c8185613368565b93508360208202850161376e85613379565b8060005b858110156137aa578484038952815161378b8582613726565b94506137968361373a565b925060208a01995050600181019050613772565b50829750879550505050505092915050565b600060208201905081810360008301526137d68184613747565b905092915050565b6000604051905090565b600080fd5b600080fd5b6137fb81613439565b811461380657600080fd5b50565b600081359050613818816137f2565b92915050565b600080fd5b600080fd5b7f4e487b7100000000000000000000000000000000000000000000000000000000600052604160045260246000fd5b613860826133cf565b810181811067ffffffffffffffff8211171561387f5761387e613828565b5b80604052505050565b60006138926137de565b905061389e8282613857565b919050565b600067ffffffffffffffff8211156138be576138bd613828565b5b6138c7826133cf565b9050602081019050919050565b82818337600083830152505050565b60006138f66138f1846138a3565b613888565b90508281526020810184848401111561391257613911613823565b5b61391d8482856138d4565b509392505050565b600082601f83011261393a5761393961381e565b5b813561394a8482602086016138e3565b91505092915050565b61395c8161345a565b811461396757600080fd5b50565b60008135905061397981613953565b92915050565b600080600060608486031215613998576139976137e8565b5b60006139a686828701613809565b935050602084013567ffffffffffffffff8111156139c7576139c66137ed565b5b6139d386828701613925565b92505060406139e48682870161396a565b9150509250925092565b600060208284031215613a0457613a036137e8565b5b600082013567ffffffffffffffff811115613a2257613a216137ed565b5b613a2e84828501613925565b91505092915050565b60006101c0830160008301518482036000860152613a5582826133e0565b91505060208301518482036020860152613a6f82826133e0565b9150506040830151613a84604086018261344b565b506060830151613a976060860182613464565b506080830151613aaa6080860182613464565b5060a0830151613abd60a086018261347f565b5060c0830151613ad060c0860182613464565b5060e083015184820360e0860152613ae882826133e0565b915050610100830151848203610100860152613b0482826133e0565b915050610120830151613b1b6101208601826134f6565b50610140830151848203610140860152613b3582826133e0565b915050610160830151848203610160860152613b5182826133e0565b915050610180830151848203610180860152613b6d8282613552565b9150506101a08301518482036101a0860152613b898282613552565b9150508091505092915050565b604082016000820151613bac600085018261344b565b506020820151613bbf6020850182613464565b50505050565b600081519050919050565b600082825260208201905092915050565b6000819050602082019050919050565b6000613bfd8383613b96565b60408301905092915050565b6000602082019050919050565b6000613c2182613bc5565b613c2b8185613bd0565b9350613c3683613be1565b8060005b83811015613c67578151613c4e8882613bf1565b9750613c5983613c09565b925050600181019050613c3a565b5085935050505092915050565b600060e083016000830151613c8c6000860182613b96565b506020830151613c9f6040860182613b96565b506040830151613cb26080860182613b96565b50606083015184820360c0860152613cca8282613c16565b9150508091505092915050565b60006040820190508181036000830152613cf18185613a37565b90508181036020830152613d058184613c74565b90509392505050565b600080fd5b600080fd5b613d2181613473565b8114613d2c57600080fd5b50565b600081359050613d3e81613d18565b92915050565b60058110613d5157600080fd5b50565b600081359050613d6381613d44565b92915050565b600067ffffffffffffffff821115613d8457613d83613828565b5b602082029050602081019050919050565b600080fd5b6000613dad613da884613d69565b613888565b90508083825260208201905060208402830185811115613dd057613dcf613d95565b5b835b81811015613e1757803567ffffffffffffffff811115613df557613df461381e565b5b808601613e028982613925565b85526020850194505050602081019050613dd2565b5050509392505050565b600082601f830112613e3657613e3561381e565b5b8135613e46848260208601613d9a565b91505092915050565b60006101c08284031215613e6657613e65613d0e565b5b613e716101c0613888565b9050600082013567ffffffffffffffff811115613e9157613e90613d13565b5b613e9d84828501613925565b600083015250602082013567ffffffffffffffff811115613ec157613ec0613d13565b5b613ecd84828501613925565b6020830152506040613ee184828501613809565b6040830152506060613ef58482850161396a565b6060830152506080613f098482850161396a565b60808301525060a0613f1d84828501613d2f565b60a08301525060c0613f318482850161396a565b60c08301525060e082013567ffffffffffffffff811115613f5557613f54613d13565b5b613f6184828501613925565b60e08301525061010082013567ffffffffffffffff811115613f8657613f85613d13565b5b613f9284828501613925565b61010083015250610120613fa884828501613d54565b6101208301525061014082013567ffffffffffffffff811115613fce57613fcd613d13565b5b613fda84828501613925565b6101408301525061016082013567ffffffffffffffff81111561400057613fff613d13565b5b61400c84828501613925565b6101608301525061018082013567ffffffffffffffff81111561403257614031613d13565b5b61403e84828501613e21565b610180830152506101a082013567ffffffffffffffff81111561406457614063613d13565b5b61407084828501613e21565b6101a08301525092915050565b60008060408385031215614094576140936137e8565b5b600083013567ffffffffffffffff8111156140b2576140b16137ed565b5b6140be85828601613e4f565b92505060206140cf8582860161396a565b9150509250929050565b7f4e487b7100000000000000000000000000000000000000000000000000000000600052602260045260246000fd5b6000600282049050600182168061412057607f821691505b602082108103614133576141326140d9565b5b50919050565b600082825260208201905092915050565b7f5061727479206e6f7420666f756e640000000000000000000000000000000000600082015250565b6000614180600f83614139565b915061418b8261414a565b602082019050919050565b600060208201905081810360008301526141af81614173565b9050919050565b7f53656e6465722773206164647265737320697320456d70747900000000000000600082015250565b60006141ec601983614139565b91506141f7826141b6565b602082019050919050565b6000602082019050818103600083015261421b816141df565b9050919050565b7f557365722773206164647265737320697320456d707479000000000000000000600082015250565b6000614258601783614139565b915061426382614222565b602082019050919050565b600060208201905081810360008301526142878161424b565b9050919050565b7f4f6e6c79206d616e7566616374757265722063616e2061646400000000000000600082015250565b60006142c4601983614139565b91506142cf8261428e565b602082019050919050565b600060208201905081810360008301526142f3816142b7565b9050919050565b600081905092915050565b600061431082613389565b61431a81856142fa565b935061432a8185602086016133a5565b80840191505092915050565b60006143428284614305565b915081905092915050565b7f4e6f742076616c6964206f7065726174696f6e00000000000000000000000000600082015250565b6000614383601383614139565b915061438e8261434d565b602082019050919050565b600060208201905081810360008301526143b281614376565b9050919050565b60006143c482613389565b6143ce8185614139565b93506143de8185602086016133a5565b6143e7816133cf565b840191505092915050565b600060c082019050818103600083015261440c81896143b9565b9050818103602083015261442081886143b9565b9050818103604083015261443481876143b9565b9050818103606083015261444881866143b9565b9050818103608083015261445c81856143b9565b905081810360a083015261447081846143b9565b9050979650505050505050565b60008190508160005260206000209050919050565b60006020601f8301049050919050565b600082821b905092915050565b6000600883026144df7fffffffffffffffffffffffffffffffffffffffffffffffffffffffffffffffff826144a2565b6144e986836144a2565b95508019841693508086168417925050509392505050565b6000819050919050565b600061452661452161451c8461345a565b614501565b61345a565b9050919050565b6000819050919050565b6145408361450b565b61455461454c8261452d565b8484546144af565b825550505050565b600090565b61456961455c565b614574818484614537565b505050565b5b818110156145985761458d600082614561565b60018101905061457a565b5050565b601f8211156145dd576145ae8161447d565b6145b784614492565b810160208510156145c6578190505b6145da6145d285614492565b830182614579565b50505b505050565b600082821c905092915050565b6000614600600019846008026145e2565b1980831691505092915050565b600061461983836145ef565b9150826002028217905092915050565b61463282613389565b67ffffffffffffffff81111561464b5761464a613828565b5b6146558254614108565b61466082828561459c565b600060209050601f8311600181146146935760008415614681578287015190505b61468b858261460d565b8655506146f3565b601f1984166146a18661447d565b60005b828110156146c9578489015182556001820191506020850194506020810190506146a4565b868310156146e657848901516146e2601f8916826145ef565b8355505b6001600288020188555050505b505050505050565b6147048161345a565b82525050565b600060c082019050818103600083015261472481896143b9565b9050818103602083015261473881886143b9565b9050818103604083015261474c81876143b9565b9050818103606083015261476081866143b9565b905061476f60808301856146fb565b61477c60a08301846146fb565b979650505050505050565b7f4e487b7100000000000000000000000000000000000000000000000000000000600052603260045260246000fd5b7f4e487b7100000000000000000000000000000000000000000000000000000000600052601160045260246000fd5b60006147f08261345a565b91507fffffffffffffffffffffffffffffffffffffffffffffffffffffffffffffffff8203614822576148216147b6565b5b600182019050919050565b60006148388261345a565b91506148438361345a565b925082820190508082111561485b5761485a6147b6565b5b92915050565b7f4e487b7100000000000000000000000000000000000000000000000000000000600052600160045260246000fd5b600061489b8261345a565b91506148a68361345a565b92508282039050818111156148be576148bd6147b6565b5b92915050565b6000815490506148d381614108565b9050919050565b60008190508160005260206000209050919050565b8181036148fd5750506149d5565b614906826148c4565b67ffffffffffffffff81111561491f5761491e613828565b5b6149298254614108565b61493482828561459c565b6000601f8311600181146149635760008415614951578287015490505b61495b858261460d565b8655506149ce565b601f198416614971876148da565b965061497c8661447d565b60005b828110156149a45784890154825560018201915060018501945060208101905061497f565b868310156149c157848901546149bd601f8916826145ef565b8355505b6001600288020188555050505b5050505050505b565b7f4e487b7100000000000000000000000000000000000000000000000000000000600052603160045260246000fdfea26469706673582212203437cc76f94c4e4e6fe509b6ed3b847e539e5df91134858c80c95363bfcafd7664736f6c63430008130033",
  "immutableReferences": {},
  "source": "// SPDX-License-Identifier: GPL-3.0\npragma experimental ABIEncoderV2;\npragma solidity >=0.4.25 <0.9.0;\n\nimport \"./Products.sol\";\nimport \"./Users.sol\";\n\n/**\n * @title SupplyChain\n * @author Suresh Konakanchi | GeekyAnts\n * @dev Implements the transparency in the supply chain to\n * understand the actual user & the flow of the products/medicines\n */\ncontract SupplyChain is Users, Products {\n    /**\n     * @dev Create a new SupplyChain with the provided 'manufacturer'\n     * @param name_ Name of the manufacturer\n     * @param email_ Email of the manufacturer\n     */\n    constructor(string memory name_, string memory email_) {\n        Types.UserDetails memory mn_ = Types.UserDetails({\n            role: Types.UserRole.Manufacturer,\n            id_: msg.sender,\n            name: name_,\n            email: email_\n        });\n        add(mn_);\n    }\n\n    /**\n     * @dev To get All the products list.\n     * @return productsList All the products that were added so far\n     */\n    function getAllProducts() public view returns (Types.Product[] memory) {\n        return products;\n    }\n\n    /**\n     * @dev To get all the products linked a particular user\n     * @return productsList All the products that were linked to current logged-in user\n     */\n    function getMyProducts() public view returns (Types.Product[] memory) {\n        return getUserProducts();\n    }\n\n    /**\n     * @dev Get single product\n     * @param barcodeId_ Unique ID of the product\n     * @return product_ Details of the product & it's timeline\n     * @return history_ product lifecycle, who purchased when\n     */\n    function getSingleProduct(string memory barcodeId_)\n        public\n        view\n        returns (Types.Product memory, Types.ProductHistory memory)\n    {\n        return getSpecificProduct(barcodeId_);\n    }\n\n    /**\n     * @dev Adds new product to the products list\n     * @param product_ unique ID of the product\n     * @param currentTime_ Current Date, Time in epoch (To store when it got added)\n     */\n    function addProduct(Types.Product memory product_, uint256 currentTime_)\n        public\n        onlyManufacturer\n    {\n        addAProduct(product_, currentTime_);\n    }\n\n    /**\n     * @dev Transfer the ownership\n     * @param partyId_ Purchase user's account address\n     * @param barcodeId_ unique ID of the product\n     * @param currentTime_ Current Date Time in epoch to keep track of the history\n     */\n    function sellProduct(\n        address partyId_,\n        string memory barcodeId_,\n        uint256 currentTime_\n    ) public {\n        require(isPartyExists(partyId_), \"Party not found\");\n        Types.UserDetails memory party_ = users[partyId_];\n        sell(partyId_, barcodeId_, party_, currentTime_);\n    }\n\n    // /**\n    //  * @dev To add an user to my account, which can be used in future at the time of selling\n    //  * @param user_ Details of the user that need to be added\n    //  */\n    // function addParty(Types.UserDetails memory user_) public {\n    //     addparty(user_, msg.sender);\n    // }\n\n    // /**\n    //  * @dev To get details of the user\n    //  * @param id_ User Id for whom the details were needed\n    //  * @return user_ Details of the current logged-in User\n    //  */\n    // function getUserDetails(address id_)\n    //     public\n    //     view\n    //     returns (Types.UserDetails memory)\n    // {\n    //     return getPartyDetails(id_);\n    // }\n\n    // /**\n    //  * @dev To get details of the current logged-in user\n    //  * @return user_ Details of the current logged-in User\n    //  */\n    // function getMyDetails() public view returns (Types.UserDetails memory) {\n    //     return getPartyDetails(msg.sender);\n    // }\n\n    // /**\n    //  * @dev To get List of users that were added by the current logged-in user\n    //  * @return usersList_ List of UserDetail objects will be returned (Which are added by same user)\n    //  */\n    // function getMyUsersList()\n    //     public\n    //     view\n    //     returns (Types.UserDetails[] memory usersList_)\n    // {\n    //     return getMyPartyList(msg.sender);\n    // }\n}\n",
  "sourcePath": "D:\\SupplyChainDev\\trufflerscf\\contracts\\SupplyChain.sol",
  "compiler": {
    "name": "solc",
    "version": "0.8.19+commit.7dd6d404.Emscripten.clang"
  },
  "schemaVersion": "3.4.16",
  "updatedAt": "2024-05-21T00:11:16.224Z",
  "devdoc": {
    "author": "Suresh Konakanchi | GeekyAnts",
    "details": "Implements the transparency in the supply chain to understand the actual user & the flow of the products/medicines",
    "kind": "dev",
    "methods": {
      "addProduct((string,string,address,uint256,uint256,bool,uint256,string,string,uint8,string,string,string[],string[]),uint256)": {
        "details": "Adds new product to the products list",
        "params": {
          "currentTime_": "Current Date, Time in epoch (To store when it got added)",
          "product_": "unique ID of the product"
        }
      },
      "constructor": {
        "details": "Create a new SupplyChain with the provided 'manufacturer'",
        "params": {
          "email_": "Email of the manufacturer",
          "name_": "Name of the manufacturer"
        }
      },
      "getAllProducts()": {
        "details": "To get All the products list.",
        "returns": {
          "_0": "productsList All the products that were added so far"
        }
      },
      "getMyProducts()": {
        "details": "To get all the products linked a particular user",
        "returns": {
          "_0": "productsList All the products that were linked to current logged-in user"
        }
      },
      "getSingleProduct(string)": {
        "details": "Get single product",
        "params": {
          "barcodeId_": "Unique ID of the product"
        },
        "returns": {
          "_0": "product_ Details of the product & it's timeline",
          "_1": "history_ product lifecycle, who purchased when"
        }
      },
      "sellProduct(address,string,uint256)": {
        "details": "Transfer the ownership",
        "params": {
          "barcodeId_": "unique ID of the product",
          "currentTime_": "Current Date Time in epoch to keep track of the history",
          "partyId_": "Purchase user's account address"
        }
      }
    },
    "title": "SupplyChain",
    "version": 1
  },
  "userdoc": {
    "kind": "user",
    "methods": {},
    "version": 1
  }
}