{
  "contractName": "SupplyChainAddProduct",
  "abi": [
    {
      "inputs": [],
      "name": "customerOutput",
      "outputs": [
        {
          "internalType": "string",
          "name": "",
          "type": "string"
        }
      ],
      "stateMutability": "view",
      "type": "function"
    },
    {
      "inputs": [],
      "name": "flag",
      "outputs": [
        {
          "internalType": "bool",
          "name": "",
          "type": "bool"
        }
      ],
      "stateMutability": "view",
      "type": "function"
    },
    {
      "inputs": [],
      "name": "isManufacturerVeryfied",
      "outputs": [
        {
          "internalType": "string",
          "name": "",
          "type": "string"
        }
      ],
      "stateMutability": "view",
      "type": "function"
    },
    {
      "inputs": [
        {
          "internalType": "uint256",
          "name": "",
          "type": "uint256"
        }
      ],
      "name": "manufacturer_id",
      "outputs": [
        {
          "internalType": "string",
          "name": "",
          "type": "string"
        }
      ],
      "stateMutability": "view",
      "type": "function"
    },
    {
      "inputs": [],
      "name": "proFlag",
      "outputs": [
        {
          "internalType": "bool",
          "name": "",
          "type": "bool"
        }
      ],
      "stateMutability": "view",
      "type": "function"
    },
    {
      "inputs": [],
      "name": "productOutput",
      "outputs": [
        {
          "internalType": "string",
          "name": "",
          "type": "string"
        }
      ],
      "stateMutability": "view",
      "type": "function"
    },
    {
      "inputs": [],
      "name": "retailerOutput",
      "outputs": [
        {
          "internalType": "string",
          "name": "",
          "type": "string"
        }
      ],
      "stateMutability": "view",
      "type": "function"
    },
    {
      "inputs": [],
      "name": "status",
      "outputs": [
        {
          "internalType": "uint256",
          "name": "",
          "type": "uint256"
        }
      ],
      "stateMutability": "view",
      "type": "function"
    },
    {
      "inputs": [],
      "name": "getValue1",
      "outputs": [
        {
          "internalType": "string",
          "name": "",
          "type": "string"
        }
      ],
      "stateMutability": "view",
      "type": "function"
    },
    {
      "inputs": [],
      "name": "getValue2",
      "outputs": [
        {
          "internalType": "string",
          "name": "",
          "type": "string"
        }
      ],
      "stateMutability": "view",
      "type": "function"
    },
    {
      "inputs": [],
      "name": "getValue3",
      "outputs": [
        {
          "internalType": "string",
          "name": "",
          "type": "string"
        }
      ],
      "stateMutability": "view",
      "type": "function"
    },
    {
      "inputs": [],
      "name": "manufacturerOutput",
      "outputs": [
        {
          "internalType": "string",
          "name": "",
          "type": "string"
        }
      ],
      "stateMutability": "view",
      "type": "function"
    },
    {
      "inputs": [
        {
          "internalType": "string",
          "name": "_manufacturerId",
          "type": "string"
        }
      ],
      "name": "VerifyManufacturer",
      "outputs": [],
      "stateMutability": "nonpayable",
      "type": "function"
    },
    {
      "inputs": [],
      "name": "proOutput",
      "outputs": [
        {
          "internalType": "string",
          "name": "",
          "type": "string"
        }
      ],
      "stateMutability": "view",
      "type": "function"
    },
    {
      "inputs": [
        {
          "internalType": "string",
          "name": "_brand",
          "type": "string"
        },
        {
          "internalType": "string",
          "name": "_product_Id",
          "type": "string"
        },
        {
          "internalType": "uint256",
          "name": "_status",
          "type": "uint256"
        },
        {
          "internalType": "string",
          "name": "_manufacuterId",
          "type": "string"
        },
        {
          "internalType": "string",
          "name": "_manufactuerName",
          "type": "string"
        },
        {
          "internalType": "string",
          "name": "_manufactuerLocation",
          "type": "string"
        },
        {
          "internalType": "string",
          "name": "_serialNo",
          "type": "string"
        },
        {
          "internalType": "string",
          "name": "_retailerId",
          "type": "string"
        }
      ],
      "name": "createProduct",
      "outputs": [],
      "stateMutability": "nonpayable",
      "type": "function"
    },
    {
      "inputs": [],
      "name": "retOutput",
      "outputs": [
        {
          "internalType": "string",
          "name": "",
          "type": "string"
        }
      ],
      "stateMutability": "view",
      "type": "function"
    },
    {
      "inputs": [
        {
          "internalType": "string",
          "name": "_name",
          "type": "string"
        },
        {
          "internalType": "string",
          "name": "_phno",
          "type": "string"
        },
        {
          "internalType": "string",
          "name": "_location",
          "type": "string"
        },
        {
          "internalType": "string",
          "name": "_retailerId",
          "type": "string"
        }
      ],
      "name": "createRetailer",
      "outputs": [],
      "stateMutability": "nonpayable",
      "type": "function"
    },
    {
      "inputs": [],
      "name": "custOutput",
      "outputs": [
        {
          "internalType": "string",
          "name": "",
          "type": "string"
        }
      ],
      "stateMutability": "view",
      "type": "function"
    },
    {
      "inputs": [
        {
          "internalType": "string",
          "name": "_name",
          "type": "string"
        },
        {
          "internalType": "string",
          "name": "_id",
          "type": "string"
        },
        {
          "internalType": "string",
          "name": "_location",
          "type": "string"
        },
        {
          "internalType": "string",
          "name": "_serialNo",
          "type": "string"
        }
      ],
      "name": "create_customer",
      "outputs": [],
      "stateMutability": "nonpayable",
      "type": "function"
    },
    {
      "inputs": [
        {
          "internalType": "string",
          "name": "product_Id",
          "type": "string"
        },
        {
          "internalType": "string",
          "name": "serial_No",
          "type": "string"
        }
      ],
      "name": "check_fake",
      "outputs": [],
      "stateMutability": "nonpayable",
      "type": "function"
    },
    {
      "inputs": [
        {
          "internalType": "string",
          "name": "a",
          "type": "string"
        },
        {
          "internalType": "string",
          "name": "b",
          "type": "string"
        }
      ],
      "name": "compareStrings",
      "outputs": [
        {
          "internalType": "bool",
          "name": "",
          "type": "bool"
        }
      ],
      "stateMutability": "pure",
      "type": "function"
    }
  ],
  "bytecode": "0x608060405260405180606001604052806040518060400160405280600281526020017f6d3100000000000000000000000000000000000000000000000000000000000081525081526020016040518060400160405280600281526020017f6d3200000000000000000000000000000000000000000000000000000000000081525081526020016040518060400160405280600281526020017f6d330000000000000000000000000000000000000000000000000000000000008152508152506000906003620000d09291906200011b565b506000600960006101000a81548160ff0219169083151502179055506000600c60006101000a81548160ff0219169083151502179055503480156200011457600080fd5b5062000569565b82805482825590600052602060002090810192821562000168579160200282015b828111156200016757825182908162000156919062000482565b50916020019190600101906200013c565b5b5090506200017791906200017b565b5090565b5b808211156200019f5760008181620001959190620001a3565b506001016200017c565b5090565b508054620001b19062000271565b6000825580601f10620001c55750620001e6565b601f016020900490600052602060002090810190620001e59190620001e9565b5b50565b5b8082111562000204576000816000905550600101620001ea565b5090565b600081519050919050565b7f4e487b7100000000000000000000000000000000000000000000000000000000600052604160045260246000fd5b7f4e487b7100000000000000000000000000000000000000000000000000000000600052602260045260246000fd5b600060028204905060018216806200028a57607f821691505b602082108103620002a0576200029f62000242565b5b50919050565b60008190508160005260206000209050919050565b60006020601f8301049050919050565b600082821b905092915050565b6000600883026200030a7fffffffffffffffffffffffffffffffffffffffffffffffffffffffffffffffff82620002cb565b620003168683620002cb565b95508019841693508086168417925050509392505050565b6000819050919050565b6000819050919050565b6000620003636200035d62000357846200032e565b62000338565b6200032e565b9050919050565b6000819050919050565b6200037f8362000342565b620003976200038e826200036a565b848454620002d8565b825550505050565b600090565b620003ae6200039f565b620003bb81848462000374565b505050565b5b81811015620003e357620003d7600082620003a4565b600181019050620003c1565b5050565b601f8211156200043257620003fc81620002a6565b6200040784620002bb565b8101602085101562000417578190505b6200042f6200042685620002bb565b830182620003c0565b50505b505050565b600082821c905092915050565b6000620004576000198460080262000437565b1980831691505092915050565b600062000472838362000444565b9150826002028217905092915050565b6200048d8262000208565b67ffffffffffffffff811115620004a957620004a862000213565b5b620004b5825462000271565b620004c2828285620003e7565b600060209050601f831160018114620004fa5760008415620004e5578287015190505b620004f1858262000464565b86555062000561565b601f1984166200050a86620002a6565b60005b8281101562000534578489015182556001820191506020850194506020810190506200050d565b8683101562000554578489015162000550601f89168262000444565b8355505b6001600288020188555050505b505050505050565b6121f780620005796000396000f3fe608060405234801561001057600080fd5b50600436106101375760003560e01c8063890eba68116100b8578063c515205d1161007c578063c515205d1461031c578063dbc03e971461033a578063f2d14b0014610358578063f59f4b2d14610376578063f76f8a9e14610392578063f7e5e7be146103b057610137565b8063890eba681461027657806389e3cc29146102945780639e04334d146102b2578063bed34bba146102d0578063c2fcccc01461030057610137565b80635b515e32116100ff5780635b515e32146101ce5780635cba21d1146101ec5780635de1088f1461021c57806360d586f81461023a5780636b126da41461025857610137565b806310eb184b1461013c578063200d2ed2146101585780633768539b146101765780634aff05ec1461019457806353640b4e146101b2575b600080fd5b610156600480360381019061015191906117d8565b6103cc565b005b610160610503565b60405161016d91906118c8565b60405180910390f35b61017e610509565b60405161018b9190611962565b60405180910390f35b61019c61059b565b6040516101a99190611962565b60405180910390f35b6101cc60048036038101906101c791906119b0565b610629565b005b6101d661082f565b6040516101e39190611962565b60405180910390f35b61020660048036038101906102019190611b2a565b6108bd565b6040516102139190611962565b60405180910390f35b610224610969565b6040516102319190611962565b60405180910390f35b6102426109f7565b60405161024f9190611962565b60405180910390f35b610260610a89565b60405161026d9190611b72565b60405180910390f35b61027e610a9c565b60405161028b9190611b72565b60405180910390f35b61029c610aaf565b6040516102a99190611962565b60405180910390f35b6102ba610b41565b6040516102c79190611962565b60405180910390f35b6102ea60048036038101906102e59190611b8d565b610bd3565b6040516102f79190611b72565b60405180910390f35b61031a600480360381019061031591906117d8565b610bf9565b005b610324610d58565b6040516103319190611962565b60405180910390f35b610342610dea565b60405161034f9190611962565b60405180910390f35b610360610e78565b60405161036d9190611962565b60405180910390f35b610390600480360381019061038b9190611c05565b610f0a565b005b61039a611083565b6040516103a79190611962565b60405180910390f35b6103ca60048036038101906103c59190611b8d565b611115565b005b6103d46115f1565b60026001819055508481600001819052508381602001819052508281604001819052508181606001819052506005846040516104109190611c8a565b9081526020016040518091039020829080600181540180825580915050600190039060005260206000200160009091909190915090816104509190611ead565b5060011515600c60009054906101000a900460ff161515036104b6576040518060400160405280601b81526020017f437573746f6d6572204164646564205375636365737366756c6c790000000000815250600e90816104b09190611ead565b506104fc565b6040518060400160405280601481526020017f437573746f6d65722063616e2774206164646564000000000000000000000000815250600e90816104fa9190611ead565b505b5050505050565b60015481565b6060600b805461051890611cd0565b80601f016020809104026020016040519081016040528092919081815260200182805461054490611cd0565b80156105915780601f1061056657610100808354040283529160200191610591565b820191906000526020600020905b81548152906001019060200180831161057457829003601f168201915b5050505050905090565b600e80546105a890611cd0565b80601f01602080910402602001604051908101604052809291908181526020018280546105d490611cd0565b80156106215780601f106105f657610100808354040283529160200191610621565b820191906000526020600020905b81548152906001019060200180831161060457829003601f168201915b505050505081565b610631611619565b88816000018190525087816020018190525086600181905550858160400181905250848160600181905250838160800181905250818160c0018190525060011515600960009054906101000a900460ff161515036107fb578060088460405161069a9190611c8a565b908152602001604051809103902060008201518160000190816106bd9190611ead565b5060208201518160010190816106d39190611ead565b5060408201518160020190816106e99190611ead565b5060608201518160030190816106ff9190611ead565b5060808201518160040190816107159190611ead565b5060a082015181600501908161072b9190611ead565b5060c08201518160060190816107419190611ead565b509050506007886040516107559190611c8a565b9081526020016040518091039020839080600181540180825580915050600190039060005260206000200160009091909190915090816107959190611ead565b506040518060400160405280601a81526020017f50726f64756374204164646564205375636365737366756c6c79000000000000815250600b90816107da9190611ead565b506001600c60006101000a81548160ff021916908315150217905550610824565b60405180606001604052806028815260200161219a60289139600b90816108229190611ead565b505b505050505050505050565b600d805461083c90611cd0565b80601f016020809104026020016040519081016040528092919081815260200182805461086890611cd0565b80156108b55780601f1061088a576101008083540402835291602001916108b5565b820191906000526020600020905b81548152906001019060200180831161089857829003601f168201915b505050505081565b600081815481106108cd57600080fd5b9060005260206000200160009150905080546108e890611cd0565b80601f016020809104026020016040519081016040528092919081815260200182805461091490611cd0565b80156109615780601f1061093657610100808354040283529160200191610961565b820191906000526020600020905b81548152906001019060200180831161094457829003601f168201915b505050505081565b600b805461097690611cd0565b80601f01602080910402602001604051908101604052809291908181526020018280546109a290611cd0565b80156109ef5780601f106109c4576101008083540402835291602001916109ef565b820191906000526020600020905b8154815290600101906020018083116109d257829003601f168201915b505050505081565b606060028054610a0690611cd0565b80601f0160208091040260200160405190810160405280929190818152602001828054610a3290611cd0565b8015610a7f5780601f10610a5457610100808354040283529160200191610a7f565b820191906000526020600020905b815481529060010190602001808311610a6257829003601f168201915b5050505050905090565b600c60009054906101000a900460ff1681565b600960009054906101000a900460ff1681565b6060600d8054610abe90611cd0565b80601f0160208091040260200160405190810160405280929190818152602001828054610aea90611cd0565b8015610b375780601f10610b0c57610100808354040283529160200191610b37565b820191906000526020600020905b815481529060010190602001808311610b1a57829003601f168201915b5050505050905090565b6060600a8054610b5090611cd0565b80601f0160208091040260200160405190810160405280929190818152602001828054610b7c90611cd0565b8015610bc95780601f10610b9e57610100808354040283529160200191610bc9565b820191906000526020600020905b815481529060010190602001808311610bac57829003601f168201915b5050505050905090565b600080839050600083905080805190602001208280519060200120149250505092915050565b610c01611656565b6001808190555084816000018190525083816020018190525082816040018190525081816060018190525080600683604051610c3d9190611c8a565b90815260200160405180910390206000820151816000019081610c609190611ead565b506020820151816001019081610c769190611ead565b506040820151816002019081610c8c9190611ead565b506060820151816003019081610ca29190611ead565b5090505060011515600c60009054906101000a900460ff16151503610d0b576040518060400160405280601b81526020017f52657461696c6572204164646564205375636365737366756c6c790000000000815250600d9081610d059190611ead565b50610d51565b6040518060400160405280601481526020017f52657461696c65722063616e2774206164646564000000000000000000000000815250600d9081610d4f9190611ead565b505b5050505050565b606060038054610d6790611cd0565b80601f0160208091040260200160405190810160405280929190818152602001828054610d9390611cd0565b8015610de05780601f10610db557610100808354040283529160200191610de0565b820191906000526020600020905b815481529060010190602001808311610dc357829003601f168201915b5050505050905090565b600a8054610df790611cd0565b80601f0160208091040260200160405190810160405280929190818152602001828054610e2390611cd0565b8015610e705780601f10610e4557610100808354040283529160200191610e70565b820191906000526020600020905b815481529060010190602001808311610e5357829003601f168201915b505050505081565b606060048054610e8790611cd0565b80601f0160208091040260200160405190810160405280929190818152602001828054610eb390611cd0565b8015610f005780601f10610ed557610100808354040283529160200191610f00565b820191906000526020600020905b815481529060010190602001808311610ee357829003601f168201915b5050505050905090565b60005b600381101561100e57610fc68260008381548110610f2e57610f2d611f7f565b5b906000526020600020018054610f4390611cd0565b80601f0160208091040260200160405190810160405280929190818152602001828054610f6f90611cd0565b8015610fbc5780601f10610f9157610100808354040283529160200191610fbc565b820191906000526020600020905b815481529060010190602001808311610f9f57829003601f168201915b5050505050610bd3565b600960006101000a81548160ff02191690831515021790555060011515600960009054906101000a900460ff161515031561100e57808061100690611fdd565b915050610f0d565b60011515600960009054906101000a900460ff161515036110565760405180606001604052806022815260200161213960229139600a90816110509190611ead565b5061107f565b6040518060600160405280603f815260200161215b603f9139600a908161107d9190611ead565b505b5050565b6060600e805461109290611cd0565b80601f01602080910402602001604051908101604052809291908181526020018280546110be90611cd0565b801561110b5780601f106110e05761010080835404028352916020019161110b565b820191906000526020600020905b8154815290600101906020018083116110ee57829003601f168201915b5050505050905090565b600080806007856040516111299190611c8a565b9081526020016040518091039020805490509050600091505b8082101561150e57600060078660405161115c9190611c8a565b908152602001604051809103902060008154811061117d5761117c611f7f565b5b90600052602060002001805461119290611cd0565b80601f01602080910402602001604051908101604052809291908181526020018280546111be90611cd0565b801561120b5780601f106111e05761010080835404028352916020019161120b565b820191906000526020600020905b8154815290600101906020018083116111ee57829003601f168201915b505050505090506000859050600115156112258383610bd3565b1515036114f957600194506000600154036112cf5760088660405161124a9190611c8a565b9081526020016040518091039020600201600290816112699190612050565b5060088660405161127a9190611c8a565b9081526020016040518091039020600401600390816112999190612050565b506008866040516112aa9190611c8a565b9081526020016040518091039020600301600490816112c99190612050565b506114f8565b600180540361141c5760006008876040516112ea9190611c8a565b9081526020016040518091039020600601805461130690611cd0565b80601f016020809104026020016040519081016040528092919081815260200182805461133290611cd0565b801561137f5780601f106113545761010080835404028352916020019161137f565b820191906000526020600020905b81548152906001019060200180831161136257829003601f168201915b505050505090506006816040516113969190611c8a565b9081526020016040518091039020600001600290816113b59190612050565b506006816040516113c69190611c8a565b9081526020016040518091039020600101600390816113e59190612050565b506006816040516113f69190611c8a565b9081526020016040518091039020600201600490816114159190612050565b50506114f7565b6002600154036114f6576040518060400160405280600a81526020017f49742069732077697468000000000000000000000000000000000000000000008152506002908161146a9190611ead565b506040518060400160405280600481526020017f736f6d6500000000000000000000000000000000000000000000000000000000815250600390816114af9190611ead565b506040518060400160405280600981526020017f6375746f6d65722e2e0000000000000000000000000000000000000000000000815250600490816114f49190611ead565b505b5b5b5b5050818061150690611fdd565b925050611142565b60001515831515036115ea576040518060400160405280600581526020017f69747320610000000000000000000000000000000000000000000000000000008152506002908161155e9190611ead565b506040518060400160405280600481526020017f66616b6500000000000000000000000000000000000000000000000000000000815250600390816115a39190611ead565b506040518060400160405280601781526020017f6e6f2070726f647563742061732073756368206d616465000000000000000000815250600490816115e89190611ead565b505b5050505050565b6040518060800160405280606081526020016060815260200160608152602001606081525090565b6040518060e00160405280606081526020016060815260200160608152602001606081526020016060815260200160608152602001606081525090565b6040518060800160405280606081526020016060815260200160608152602001606081525090565b6000604051905090565b600080fd5b600080fd5b600080fd5b600080fd5b6000601f19601f8301169050919050565b7f4e487b7100000000000000000000000000000000000000000000000000000000600052604160045260246000fd5b6116e58261169c565b810181811067ffffffffffffffff82111715611704576117036116ad565b5b80604052505050565b600061171761167e565b905061172382826116dc565b919050565b600067ffffffffffffffff821115611743576117426116ad565b5b61174c8261169c565b9050602081019050919050565b82818337600083830152505050565b600061177b61177684611728565b61170d565b90508281526020810184848401111561179757611796611697565b5b6117a2848285611759565b509392505050565b600082601f8301126117bf576117be611692565b5b81356117cf848260208601611768565b91505092915050565b600080600080608085870312156117f2576117f1611688565b5b600085013567ffffffffffffffff8111156118105761180f61168d565b5b61181c878288016117aa565b945050602085013567ffffffffffffffff81111561183d5761183c61168d565b5b611849878288016117aa565b935050604085013567ffffffffffffffff81111561186a5761186961168d565b5b611876878288016117aa565b925050606085013567ffffffffffffffff8111156118975761189661168d565b5b6118a3878288016117aa565b91505092959194509250565b6000819050919050565b6118c2816118af565b82525050565b60006020820190506118dd60008301846118b9565b92915050565b600081519050919050565b600082825260208201905092915050565b60005b8381101561191d578082015181840152602081019050611902565b60008484015250505050565b6000611934826118e3565b61193e81856118ee565b935061194e8185602086016118ff565b6119578161169c565b840191505092915050565b6000602082019050818103600083015261197c8184611929565b905092915050565b61198d816118af565b811461199857600080fd5b50565b6000813590506119aa81611984565b92915050565b600080600080600080600080610100898b0312156119d1576119d0611688565b5b600089013567ffffffffffffffff8111156119ef576119ee61168d565b5b6119fb8b828c016117aa565b985050602089013567ffffffffffffffff811115611a1c57611a1b61168d565b5b611a288b828c016117aa565b9750506040611a398b828c0161199b565b965050606089013567ffffffffffffffff811115611a5a57611a5961168d565b5b611a668b828c016117aa565b955050608089013567ffffffffffffffff811115611a8757611a8661168d565b5b611a938b828c016117aa565b94505060a089013567ffffffffffffffff811115611ab457611ab361168d565b5b611ac08b828c016117aa565b93505060c089013567ffffffffffffffff811115611ae157611ae061168d565b5b611aed8b828c016117aa565b92505060e089013567ffffffffffffffff811115611b0e57611b0d61168d565b5b611b1a8b828c016117aa565b9150509295985092959890939650565b600060208284031215611b4057611b3f611688565b5b6000611b4e8482850161199b565b91505092915050565b60008115159050919050565b611b6c81611b57565b82525050565b6000602082019050611b876000830184611b63565b92915050565b60008060408385031215611ba457611ba3611688565b5b600083013567ffffffffffffffff811115611bc257611bc161168d565b5b611bce858286016117aa565b925050602083013567ffffffffffffffff811115611bef57611bee61168d565b5b611bfb858286016117aa565b9150509250929050565b600060208284031215611c1b57611c1a611688565b5b600082013567ffffffffffffffff811115611c3957611c3861168d565b5b611c45848285016117aa565b91505092915050565b600081905092915050565b6000611c64826118e3565b611c6e8185611c4e565b9350611c7e8185602086016118ff565b80840191505092915050565b6000611c968284611c59565b915081905092915050565b7f4e487b7100000000000000000000000000000000000000000000000000000000600052602260045260246000fd5b60006002820490506001821680611ce857607f821691505b602082108103611cfb57611cfa611ca1565b5b50919050565b60008190508160005260206000209050919050565b60006020601f8301049050919050565b600082821b905092915050565b600060088302611d637fffffffffffffffffffffffffffffffffffffffffffffffffffffffffffffffff82611d26565b611d6d8683611d26565b95508019841693508086168417925050509392505050565b6000819050919050565b6000611daa611da5611da0846118af565b611d85565b6118af565b9050919050565b6000819050919050565b611dc483611d8f565b611dd8611dd082611db1565b848454611d33565b825550505050565b600090565b611ded611de0565b611df8818484611dbb565b505050565b5b81811015611e1c57611e11600082611de5565b600181019050611dfe565b5050565b601f821115611e6157611e3281611d01565b611e3b84611d16565b81016020851015611e4a578190505b611e5e611e5685611d16565b830182611dfd565b50505b505050565b600082821c905092915050565b6000611e8460001984600802611e66565b1980831691505092915050565b6000611e9d8383611e73565b9150826002028217905092915050565b611eb6826118e3565b67ffffffffffffffff811115611ecf57611ece6116ad565b5b611ed98254611cd0565b611ee4828285611e20565b600060209050601f831160018114611f175760008415611f05578287015190505b611f0f8582611e91565b865550611f77565b601f198416611f2586611d01565b60005b82811015611f4d57848901518255600182019150602085019450602081019050611f28565b86831015611f6a5784890151611f66601f891682611e73565b8355505b6001600288020188555050505b505050505050565b7f4e487b7100000000000000000000000000000000000000000000000000000000600052603260045260246000fd5b7f4e487b7100000000000000000000000000000000000000000000000000000000600052601160045260246000fd5b6000611fe8826118af565b91507fffffffffffffffffffffffffffffffffffffffffffffffffffffffffffffffff820361201a57612019611fae565b5b600182019050919050565b60008154905061203481611cd0565b9050919050565b60008190508160005260206000209050919050565b81810361205e575050612136565b61206782612025565b67ffffffffffffffff8111156120805761207f6116ad565b5b61208a8254611cd0565b612095828285611e20565b6000601f8311600181146120c457600084156120b2578287015490505b6120bc8582611e91565b86555061212f565b601f1984166120d28761203b565b96506120dd86611d01565b60005b82811015612105578489015482556001820191506001850194506020810190506120e0565b86831015612122578489015461211e601f891682611e73565b8355505b6001600288020188555050505b5050505050505b56fe4d616e756661637475726572207665726966696564207375636365737366756c6c794d616e75666163747572657220496420697320696e76616c69642c506c6561736520656e74657220636f7272656374204d616e75666163747572657220496457726f6e67206d616e7566616374757265722c2050726f64756374206973206e6f74204164646564a2646970667358221220354e1f6ee304b22d4d34ff40916fa252cf47e2be27531c2ba18ab5ab45f972de64736f6c63430008130033",
  "immutableReferences": {},
  "source": "//SPDX-License-Identifier: UNLICENSED\r\npragma solidity ^0.8.7;\r\n\r\ncontract SupplyChainAddProduct{\r\n\r\n    string[] public manufacturer_id=[\"m1\",\"m2\",\"m3\"];\r\n    uint public status;\r\n    string private value1;\r\n    string private value2;\r\n    string private value3;\r\n\r\n    function getValue1() public view returns(string memory){\r\n      return value1;\r\n    }\r\n    function getValue2() public view  returns(string memory){\r\n      return value2;\r\n    }\r\n    function getValue3() public view returns(string memory){\r\n      return value3;\r\n    }\r\n\r\n    struct product {\r\n      string brand;\r\n      string product_Id;\r\n      string manufacturer_Id;\r\n      string manufactuerName;\r\n      string manufactuerLocation;\r\n      string serial_No;\r\n      string retailer_Id;\r\n    }\r\n     \r\n    struct retailerstructure {\r\n        string name;\r\n        string phno;\r\n        string location;\r\n        string retailer_Id;\r\n    }\r\n\r\n    struct customerstructure{\r\n       string name;\r\n       string customerUid;\r\n       string location;\r\n       string serialNo;\r\n    }\r\n\r\n    //at testing assign something to it \r\n    mapping(string  => string[])CustomerUid_SerialNo;\r\n\r\n    //reporting stolen,getting details of customer\r\n    mapping(string => retailerstructure)RetailerId_RetailerStruct;\r\n\r\n    //mapping of productid with serial number. initailized when a product is created\r\n    mapping(string => string[]) productId_serialNo;\r\n\r\n    //serial no to product structure\r\n    mapping(string => product)serialNo_productstructure;\r\n\r\n    //so the cycle goes like product_id->serial_no->product_structure\r\n    bool public flag = false;\r\n    string public isManufacturerVeryfied;\r\n    function manufacturerOutput() public view returns(string memory){\r\n        return isManufacturerVeryfied;\r\n    }\r\n\r\n    function VerifyManufacturer(string memory _manufacturerId) public\r\n    {\r\n        uint i;\r\n        for(i=0;i<3;i++)\r\n          {\r\n            flag =compareStrings(_manufacturerId,manufacturer_id[i]);\r\n            if(flag==true) break;\r\n          }\r\n        if(flag==true)\r\n            isManufacturerVeryfied = \"Manufacturer verified successfully\";\r\n        else\r\n            isManufacturerVeryfied = \"Manufacturer Id is invalid,Please enter correct Manufacturer Id\";\r\n          \r\n    }\r\n      \r\n    string public productOutput;\r\n    function proOutput() public view returns(string memory){\r\n      return productOutput;\r\n    }\r\n\r\n    bool public proFlag = false;\r\n    function createProduct(string memory _brand, string memory _product_Id, uint _status,string memory _manufacuterId, string memory _manufactuerName, string  memory _manufactuerLocation,string memory _serialNo,string memory _retailerId) public  {\r\n        product memory newCode;\r\n        newCode.brand = _brand;\r\n        newCode.product_Id = _product_Id;\r\n        status = _status;\r\n        newCode.manufacturer_Id=_manufacuterId;\r\n        newCode.manufactuerName = _manufactuerName;\r\n        newCode.manufactuerLocation = _manufactuerLocation;\r\n        newCode.retailer_Id = _retailerId;\r\n        if(flag==true)\r\n        {\r\n          serialNo_productstructure[_serialNo]=newCode;\r\n          productId_serialNo[_product_Id].push(_serialNo);\r\n          productOutput = \"Product Added Successfully\";\r\n          proFlag = true;\r\n        }\r\n        else{\r\n          productOutput =\"Wrong manufacturer, Product is not Added\";\r\n        }  \r\n    }\r\n\r\n    string public retailerOutput;\r\n    function retOutput() public view returns(string memory){\r\n      return retailerOutput;\r\n    }\r\n    \r\n    function createRetailer(string memory _name,string memory _phno,string memory _location,string memory _retailerId) public{\r\n        retailerstructure memory retailerObject;\r\n        status = 1;\r\n        retailerObject.name=_name;\r\n        retailerObject.phno=_phno;\r\n        retailerObject.location=_location;\r\n        retailerObject.retailer_Id = _retailerId;\r\n        RetailerId_RetailerStruct[_retailerId] = retailerObject;\r\n        if(proFlag==true)\r\n           retailerOutput =\"Retailer Added Successfully\";\r\n        else\r\n           retailerOutput = \"Retailer can't added\";\r\n    }\r\n     string public customerOutput;\r\n     function custOutput() public view returns(string memory){\r\n         return customerOutput;\r\n     }\r\n    function create_customer(string memory _name,string memory _id,string memory _location,string memory _serialNo) public {\r\n           customerstructure memory cust;\r\n           status = 2;\r\n           cust.name=_name;\r\n           cust.customerUid=_id;\r\n           cust.location=_location;\r\n           cust.serialNo=_serialNo;\r\n           CustomerUid_SerialNo[_id].push(_serialNo);\r\n           if(proFlag==true)\r\n           customerOutput =\"Customer Added Successfully\";\r\n           else\r\n           customerOutput = \"Customer can't added\";\r\n        }\r\n    \r\n    function check_fake (string memory product_Id,string memory serial_No) public \r\n       {\r\n          bool checkFlag = false;\r\n          uint idx;\r\n          uint len;\r\n          len= productId_serialNo[product_Id].length;\r\n          for(idx=0;idx<len;idx++)\r\n          {\r\n                 string memory a=productId_serialNo[product_Id][0];\r\n                 string memory b=serial_No;\r\n                 if(compareStrings(a, b)==true)\r\n                   {\r\n                    checkFlag=true;\r\n                    if(status==0)\r\n                      {   \r\n                       value1 =serialNo_productstructure[serial_No].manufacturer_Id;\r\n                       value2 =serialNo_productstructure[serial_No].manufactuerLocation;\r\n                       value3 =serialNo_productstructure[serial_No].manufactuerName;\r\n                \r\n                      }\r\n                    else if(status==1)\r\n                      {\r\n                        string memory temp=serialNo_productstructure[serial_No].retailer_Id;\r\n                        value1= RetailerId_RetailerStruct[temp].name;\r\n                        value2 = RetailerId_RetailerStruct[temp].phno;\r\n                        value3= RetailerId_RetailerStruct[temp].location;\r\n                        \r\n                      }\r\n                     else if(status==2)\r\n                        {   \r\n                          value1 = \"It is with\";\r\n                          value2 = \"some\";\r\n                          value3 = \"cutomer..\";\r\n                        }\r\n                   }\r\n                   \r\n                }  \r\n                if(checkFlag==false){\r\n                    value1 = \"its a\";\r\n                    value2 = \"fake\";\r\n                    value3 = \"no product as such made\";\r\n                }\r\n          }\r\n\r\n          function compareStrings(string memory a, string  memory b) public pure returns (bool) {\r\n                bytes memory a1=bytes(a);\r\n                bytes memory b2=bytes(b);\r\n                return keccak256((a1)) == keccak256((b2));\r\n            }         \r\n}\r\n",
  "sourcePath": "D:\\SupplyChainDev\\trufflerscf\\contracts\\SupplyChainAddProduct.sol",
  "compiler": {
    "name": "solc",
    "version": "0.8.19+commit.7dd6d404.Emscripten.clang"
  },
  "schemaVersion": "3.4.16",
  "updatedAt": "2024-05-21T00:11:16.243Z",
  "devdoc": {
    "kind": "dev",
    "methods": {},
    "version": 1
  },
  "userdoc": {
    "kind": "user",
    "methods": {},
    "version": 1
  }
}