{
  "contractName": "SupplyChainRSCFOld",
  "abi": [
    {
      "anonymous": false,
      "inputs": [
        {
          "indexed": false,
          "internalType": "string",
          "name": "info",
          "type": "string"
        }
      ],
      "name": "Info",
      "type": "event"
    },
    {
      "anonymous": false,
      "inputs": [
        {
          "indexed": false,
          "internalType": "string",
          "name": "productId",
          "type": "string"
        },
        {
          "indexed": false,
          "internalType": "address",
          "name": "owner",
          "type": "address"
        },
        {
          "indexed": false,
          "internalType": "string",
          "name": "productName",
          "type": "string"
        },
        {
          "indexed": false,
          "internalType": "string",
          "name": "manufacturer",
          "type": "string"
        },
        {
          "indexed": false,
          "internalType": "string",
          "name": "supplier",
          "type": "string"
        },
        {
          "indexed": false,
          "internalType": "string",
          "name": "currentLocation",
          "type": "string"
        },
        {
          "indexed": false,
          "internalType": "uint256",
          "name": "date",
          "type": "uint256"
        }
      ],
      "name": "ProductAdded",
      "type": "event"
    },
    {
      "anonymous": false,
      "inputs": [
        {
          "indexed": false,
          "internalType": "string",
          "name": "productId",
          "type": "string"
        },
        {
          "indexed": false,
          "internalType": "string",
          "name": "currentLocation",
          "type": "string"
        }
      ],
      "name": "locationChanged",
      "type": "event"
    },
    {
      "inputs": [
        {
          "internalType": "string",
          "name": "",
          "type": "string"
        }
      ],
      "name": "ProductMap",
      "outputs": [
        {
          "internalType": "string",
          "name": "productId",
          "type": "string"
        },
        {
          "internalType": "address",
          "name": "owner",
          "type": "address"
        },
        {
          "internalType": "string",
          "name": "productName",
          "type": "string"
        },
        {
          "internalType": "string",
          "name": "manufacturer",
          "type": "string"
        },
        {
          "internalType": "string",
          "name": "supplier",
          "type": "string"
        },
        {
          "internalType": "string",
          "name": "currentLocation",
          "type": "string"
        },
        {
          "internalType": "uint256",
          "name": "date",
          "type": "uint256"
        }
      ],
      "stateMutability": "view",
      "type": "function"
    },
    {
      "inputs": [
        {
          "internalType": "uint256",
          "name": "",
          "type": "uint256"
        }
      ],
      "name": "Products",
      "outputs": [
        {
          "internalType": "string",
          "name": "productId",
          "type": "string"
        },
        {
          "internalType": "address",
          "name": "owner",
          "type": "address"
        },
        {
          "internalType": "string",
          "name": "productName",
          "type": "string"
        },
        {
          "internalType": "string",
          "name": "manufacturer",
          "type": "string"
        },
        {
          "internalType": "string",
          "name": "supplier",
          "type": "string"
        },
        {
          "internalType": "string",
          "name": "currentLocation",
          "type": "string"
        },
        {
          "internalType": "uint256",
          "name": "date",
          "type": "uint256"
        }
      ],
      "stateMutability": "view",
      "type": "function"
    },
    {
      "inputs": [
        {
          "internalType": "string",
          "name": "",
          "type": "string"
        }
      ],
      "name": "productAdded",
      "outputs": [
        {
          "internalType": "bool",
          "name": "",
          "type": "bool"
        }
      ],
      "stateMutability": "view",
      "type": "function"
    },
    {
      "inputs": [],
      "name": "productCount",
      "outputs": [
        {
          "internalType": "uint256",
          "name": "",
          "type": "uint256"
        }
      ],
      "stateMutability": "view",
      "type": "function"
    },
    {
      "inputs": [],
      "name": "productOutput",
      "outputs": [
        {
          "internalType": "string",
          "name": "",
          "type": "string"
        }
      ],
      "stateMutability": "view",
      "type": "function"
    },
    {
      "inputs": [
        {
          "internalType": "uint256",
          "name": "_a",
          "type": "uint256"
        }
      ],
      "name": "settest1",
      "outputs": [],
      "stateMutability": "nonpayable",
      "type": "function"
    },
    {
      "inputs": [],
      "name": "gettest1",
      "outputs": [
        {
          "internalType": "uint256",
          "name": "",
          "type": "uint256"
        }
      ],
      "stateMutability": "view",
      "type": "function"
    },
    {
      "inputs": [],
      "name": "proOutput",
      "outputs": [
        {
          "internalType": "string",
          "name": "",
          "type": "string"
        }
      ],
      "stateMutability": "view",
      "type": "function"
    },
    {
      "inputs": [
        {
          "internalType": "string",
          "name": "_productId",
          "type": "string"
        },
        {
          "internalType": "string",
          "name": "_productName",
          "type": "string"
        },
        {
          "internalType": "string",
          "name": "_manufacturer",
          "type": "string"
        },
        {
          "internalType": "string",
          "name": "_supplier",
          "type": "string"
        },
        {
          "internalType": "string",
          "name": "_currentLocation",
          "type": "string"
        }
      ],
      "name": "addProduct",
      "outputs": [
        {
          "internalType": "bool",
          "name": "",
          "type": "bool"
        }
      ],
      "stateMutability": "nonpayable",
      "type": "function"
    },
    {
      "inputs": [],
      "name": "getProducts",
      "outputs": [
        {
          "components": [
            {
              "internalType": "string",
              "name": "productId",
              "type": "string"
            },
            {
              "internalType": "address",
              "name": "owner",
              "type": "address"
            },
            {
              "internalType": "string",
              "name": "productName",
              "type": "string"
            },
            {
              "internalType": "string",
              "name": "manufacturer",
              "type": "string"
            },
            {
              "internalType": "string",
              "name": "supplier",
              "type": "string"
            },
            {
              "internalType": "string",
              "name": "currentLocation",
              "type": "string"
            },
            {
              "internalType": "uint256",
              "name": "date",
              "type": "uint256"
            }
          ],
          "internalType": "struct SupplyChainRSCFOld.Product[]",
          "name": "",
          "type": "tuple[]"
        }
      ],
      "stateMutability": "view",
      "type": "function"
    },
    {
      "inputs": [
        {
          "internalType": "string",
          "name": "_location",
          "type": "string"
        },
        {
          "internalType": "string",
          "name": "_productId",
          "type": "string"
        },
        {
          "internalType": "address",
          "name": "_new_owner",
          "type": "address"
        }
      ],
      "name": "changeLocation",
      "outputs": [],
      "stateMutability": "nonpayable",
      "type": "function"
    },
    {
      "inputs": [
        {
          "internalType": "string",
          "name": "_productId",
          "type": "string"
        }
      ],
      "name": "fetchProductInfo",
      "outputs": [
        {
          "internalType": "string",
          "name": "",
          "type": "string"
        }
      ],
      "stateMutability": "view",
      "type": "function"
    },
    {
      "inputs": [
        {
          "internalType": "string",
          "name": "_producId",
          "type": "string"
        }
      ],
      "name": "fetchAddress",
      "outputs": [
        {
          "internalType": "address",
          "name": "",
          "type": "address"
        }
      ],
      "stateMutability": "view",
      "type": "function"
    },
    {
      "inputs": [
        {
          "internalType": "string",
          "name": "_producId",
          "type": "string"
        }
      ],
      "name": "fetchAllLocation",
      "outputs": [
        {
          "internalType": "string[15]",
          "name": "",
          "type": "string[15]"
        }
      ],
      "stateMutability": "view",
      "type": "function"
    },
    {
      "inputs": [
        {
          "internalType": "string",
          "name": "s1",
          "type": "string"
        },
        {
          "internalType": "string",
          "name": "s2",
          "type": "string"
        }
      ],
      "name": "compareStringValue",
      "outputs": [
        {
          "internalType": "bool",
          "name": "",
          "type": "bool"
        }
      ],
      "stateMutability": "pure",
      "type": "function"
    }
  ],
  "bytecode": "0x60806040526000805534801561001457600080fd5b50612a2c806100246000396000f3fe608060405234801561001057600080fd5b50600436106100f55760003560e01c8063915b351511610097578063c29b2f2011610066578063c29b2f20146102b2578063dba3f6aa146102d0578063e0f6ef8714610306578063ef6da8d414610324576100f5565b8063915b351514610204578063accac56814610222578063ae56ef0814610252578063b9a7cf7e14610282576100f5565b80635de1088f116100d35780635de1088f146101645780636dd196a81461018257806370e80e571461019e578063847f1209146101ce576100f5565b80632430b314146100fa5780633768539b146101165780633b3822d314610134575b600080fd5b610114600480360381019061010f9190611acc565b610354565b005b61011e61035e565b60405161012b9190611b89565b60405180910390f35b61014e60048036038101906101499190611ce0565b6103f0565b60405161015b9190611b89565b60405180910390f35b61016c6106da565b6040516101799190611b89565b60405180910390f35b61019c60048036038101906101979190611d87565b610768565b005b6101b860048036038101906101b39190611ce0565b6108f9565b6040516101c59190611e2d565b60405180910390f35b6101e860048036038101906101e39190611ce0565b61092f565b6040516101fb9796959493929190611e66565b60405180910390f35b61020c610c4f565b6040516102199190611ef8565b60405180910390f35b61023c60048036038101906102379190611ce0565b610c59565b6040516102499190612013565b60405180910390f35b61026c60048036038101906102679190612035565b610d8f565b6040516102799190611e2d565b60405180910390f35b61029c60048036038101906102979190611ce0565b610db5565b6040516102a991906120ad565b60405180910390f35b6102ba610e05565b6040516102c79190612260565b60405180910390f35b6102ea60048036038101906102e59190611acc565b61119e565b6040516102fd9796959493929190611e66565b60405180910390f35b61030e6114b8565b60405161031b9190611ef8565b60405180910390f35b61033e60048036038101906103399190612282565b6114be565b60405161034b9190611e2d565b60405180910390f35b8060058190555050565b60606006805461036d906123b8565b80601f0160208091040260200160405190810160405280929190818152602001828054610399906123b8565b80156103e65780601f106103bb576101008083540402835291602001916103e6565b820191906000526020600020905b8154815290600101906020018083116103c957829003601f168201915b5050505050905090565b606060006106cf836001856040516104089190612425565b90815260200160405180910390206002018054610424906123b8565b80601f0160208091040260200160405190810160405280929190818152602001828054610450906123b8565b801561049d5780601f106104725761010080835404028352916020019161049d565b820191906000526020600020905b81548152906001019060200180831161048057829003601f168201915b50505050506001866040516104b29190612425565b908152602001604051809103902060030180546104ce906123b8565b80601f01602080910402602001604051908101604052809291908181526020018280546104fa906123b8565b80156105475780601f1061051c57610100808354040283529160200191610547565b820191906000526020600020905b81548152906001019060200180831161052a57829003601f168201915b505050505060018760405161055c9190612425565b90815260200160405180910390206004018054610578906123b8565b80601f01602080910402602001604051908101604052809291908181526020018280546105a4906123b8565b80156105f15780601f106105c6576101008083540402835291602001916105f1565b820191906000526020600020905b8154815290600101906020018083116105d457829003601f168201915b50505050506001886040516106069190612425565b90815260200160405180910390206005018054610622906123b8565b80601f016020809104026020016040519081016040528092919081815260200182805461064e906123b8565b801561069b5780601f106106705761010080835404028352916020019161069b565b820191906000526020600020905b81548152906001019060200180831161067e57829003601f168201915b50505050506106ca60018a6040516106b39190612425565b908152602001604051809103902060060154611847565b6119cf565b905080915050919050565b600680546106e7906123b8565b80601f0160208091040260200160405190810160405280929190818152602001828054610713906123b8565b80156107605780601f1061073557610100808354040283529160200191610760565b820191906000526020600020905b81548152906001019060200180831161074357829003601f168201915b505050505081565b816001816040516107799190612425565b908152602001604051809103902060010160009054906101000a900473ffffffffffffffffffffffffffffffffffffffff1673ffffffffffffffffffffffffffffffffffffffff163373ffffffffffffffffffffffffffffffffffffffff16146107e257600080fd5b60006001846040516107f49190612425565b90815260200160405180910390209050600115156002856040516108189190612425565b908152602001604051809103902060009054906101000a900460ff16151514610876576040517f08c379a000000000000000000000000000000000000000000000000000000000815260040161086d90612488565b60405180910390fd5b828160010160006101000a81548173ffffffffffffffffffffffffffffffffffffffff021916908373ffffffffffffffffffffffffffffffffffffffff1602179055507f0664a78d12931d4ab35359955b16038d70650f4d3fc215fd78a89baaeab0059184866040516108ea9291906124a8565b60405180910390a15050505050565b6002818051602081018201805184825260208301602085012081835280955050505050506000915054906101000a900460ff1681565b600181805160208101820180518482526020830160208501208183528095505050505050600091509050806000018054610968906123b8565b80601f0160208091040260200160405190810160405280929190818152602001828054610994906123b8565b80156109e15780601f106109b6576101008083540402835291602001916109e1565b820191906000526020600020905b8154815290600101906020018083116109c457829003601f168201915b5050505050908060010160009054906101000a900473ffffffffffffffffffffffffffffffffffffffff1690806002018054610a1c906123b8565b80601f0160208091040260200160405190810160405280929190818152602001828054610a48906123b8565b8015610a955780601f10610a6a57610100808354040283529160200191610a95565b820191906000526020600020905b815481529060010190602001808311610a7857829003601f168201915b505050505090806003018054610aaa906123b8565b80601f0160208091040260200160405190810160405280929190818152602001828054610ad6906123b8565b8015610b235780601f10610af857610100808354040283529160200191610b23565b820191906000526020600020905b815481529060010190602001808311610b0657829003601f168201915b505050505090806004018054610b38906123b8565b80601f0160208091040260200160405190810160405280929190818152602001828054610b64906123b8565b8015610bb15780601f10610b8657610100808354040283529160200191610bb1565b820191906000526020600020905b815481529060010190602001808311610b9457829003601f168201915b505050505090806005018054610bc6906123b8565b80601f0160208091040260200160405190810160405280929190818152602001828054610bf2906123b8565b8015610c3f5780601f10610c1457610100808354040283529160200191610c3f565b820191906000526020600020905b815481529060010190602001808311610c2257829003601f168201915b5050505050908060060154905087565b6000600554905090565b610c61611a07565b610c69611a07565b60005b600484604051610c7c9190612425565b9081526020016040518091039020805490508111610d8557600484604051610ca49190612425565b90815260200160405180910390208181548110610cc457610cc36124df565b5b906000526020600020018054610cd9906123b8565b80601f0160208091040260200160405190810160405280929190818152602001828054610d05906123b8565b8015610d525780601f10610d2757610100808354040283529160200191610d52565b820191906000526020600020905b815481529060010190602001808311610d3557829003601f168201915b50505050508282600f8110610d6a57610d696124df565b5b60200201819052508080610d7d9061253d565b915050610c6c565b5080915050919050565b600080839050600083905080805190602001208280519060200120149250505092915050565b600080600183604051610dc89190612425565b908152602001604051809103902060010160009054906101000a900473ffffffffffffffffffffffffffffffffffffffff16905080915050919050565b60606003805480602002602001604051908101604052809291908181526020016000905b8282101561119557838290600052602060002090600702016040518060e0016040529081600082018054610e5c906123b8565b80601f0160208091040260200160405190810160405280929190818152602001828054610e88906123b8565b8015610ed55780601f10610eaa57610100808354040283529160200191610ed5565b820191906000526020600020905b815481529060010190602001808311610eb857829003601f168201915b505050505081526020016001820160009054906101000a900473ffffffffffffffffffffffffffffffffffffffff1673ffffffffffffffffffffffffffffffffffffffff1673ffffffffffffffffffffffffffffffffffffffff168152602001600282018054610f44906123b8565b80601f0160208091040260200160405190810160405280929190818152602001828054610f70906123b8565b8015610fbd5780601f10610f9257610100808354040283529160200191610fbd565b820191906000526020600020905b815481529060010190602001808311610fa057829003601f168201915b50505050508152602001600382018054610fd6906123b8565b80601f0160208091040260200160405190810160405280929190818152602001828054611002906123b8565b801561104f5780601f106110245761010080835404028352916020019161104f565b820191906000526020600020905b81548152906001019060200180831161103257829003601f168201915b50505050508152602001600482018054611068906123b8565b80601f0160208091040260200160405190810160405280929190818152602001828054611094906123b8565b80156110e15780601f106110b6576101008083540402835291602001916110e1565b820191906000526020600020905b8154815290600101906020018083116110c457829003601f168201915b505050505081526020016005820180546110fa906123b8565b80601f0160208091040260200160405190810160405280929190818152602001828054611126906123b8565b80156111735780601f1061114857610100808354040283529160200191611173565b820191906000526020600020905b81548152906001019060200180831161115657829003601f168201915b5050505050815260200160068201548152505081526020019060010190610e29565b50505050905090565b600381815481106111ae57600080fd5b90600052602060002090600702016000915090508060000180546111d1906123b8565b80601f01602080910402602001604051908101604052809291908181526020018280546111fd906123b8565b801561124a5780601f1061121f5761010080835404028352916020019161124a565b820191906000526020600020905b81548152906001019060200180831161122d57829003601f168201915b5050505050908060010160009054906101000a900473ffffffffffffffffffffffffffffffffffffffff1690806002018054611285906123b8565b80601f01602080910402602001604051908101604052809291908181526020018280546112b1906123b8565b80156112fe5780601f106112d3576101008083540402835291602001916112fe565b820191906000526020600020905b8154815290600101906020018083116112e157829003601f168201915b505050505090806003018054611313906123b8565b80601f016020809104026020016040519081016040528092919081815260200182805461133f906123b8565b801561138c5780601f106113615761010080835404028352916020019161138c565b820191906000526020600020905b81548152906001019060200180831161136f57829003601f168201915b5050505050908060040180546113a1906123b8565b80601f01602080910402602001604051908101604052809291908181526020018280546113cd906123b8565b801561141a5780601f106113ef5761010080835404028352916020019161141a565b820191906000526020600020905b8154815290600101906020018083116113fd57829003601f168201915b50505050509080600501805461142f906123b8565b80601f016020809104026020016040519081016040528092919081815260200182805461145b906123b8565b80156114a85780601f1061147d576101008083540402835291602001916114a8565b820191906000526020600020905b81548152906001019060200180831161148b57829003601f168201915b5050505050908060060154905087565b60005481565b6000808551116114cd57600080fd5b6000808154809291906114df9061253d565b91905055506114ec611a2f565b86816000018190525033816020019073ffffffffffffffffffffffffffffffffffffffff16908173ffffffffffffffffffffffffffffffffffffffff1681525050858160400181905250838160800181905250848160600181905250828160a00181905250428160c0018181525050600160028860405161156d9190612425565b908152602001604051809103902060006101000a81548160ff021916908315150217905550806001886040516115a39190612425565b908152602001604051809103902060008201518160000190816115c69190612731565b5060208201518160010160006101000a81548173ffffffffffffffffffffffffffffffffffffffff021916908373ffffffffffffffffffffffffffffffffffffffff16021790555060408201518160020190816116239190612731565b5060608201518160030190816116399190612731565b50608082015181600401908161164f9190612731565b5060a08201518160050190816116659190612731565b5060c08201518160060155905050600381908060018154018082558091505060019003906000526020600020906007020160009091909190915060008201518160000190816116b49190612731565b5060208201518160010160006101000a81548173ffffffffffffffffffffffffffffffffffffffff021916908373ffffffffffffffffffffffffffffffffffffffff16021790555060408201518160020190816117119190612731565b5060608201518160030190816117279190612731565b50608082015181600401908161173d9190612731565b5060a08201518160050190816117539190612731565b5060c0820151816006015550506004876040516117709190612425565b9081526020016040518091039020839080600181540180825580915050600190039060005260206000200160009091909190915090816117b09190612731565b506040518060400160405280601a81526020017f50726f64756374204164646564205375636365737366756c6c79000000000000815250600690816117f59190612731565b507fda7dc0a9fd3ec06c96dcfe27138613dd3f540d76d3fc300e379f9982c241010c873388888888426040516118319796959493929190611e66565b60405180910390a1600191505095945050505050565b60606000820361188e576040518060400160405280600181526020017f300000000000000000000000000000000000000000000000000000000000000081525090506119ca565b600082905060005b600082146118c05780806118a99061253d565b915050600a826118b99190612832565b9150611896565b60008167ffffffffffffffff8111156118dc576118db611bb5565b5b6040519080825280601f01601f19166020018201604052801561190e5781602001600182028036833780820191505090505b50905060008290505b600086146119c25760018161192c9190612863565b90506000600a808861193e9190612832565b6119489190612897565b876119539190612863565b603061195f91906128e6565b905060008160f81b90508084848151811061197d5761197c6124df565b5b60200101907effffffffffffffffffffffffffffffffffffffffffffffffffffffffffffff1916908160001a905350600a886119b99190612832565b97505050611917565b819450505050505b919050565b60608686868686866040516020016119ec96959493929190612967565b60405160208183030381529060405290509695505050505050565b604051806101e00160405280600f905b6060815260200190600190039081611a175790505090565b6040518060e0016040528060608152602001600073ffffffffffffffffffffffffffffffffffffffff16815260200160608152602001606081526020016060815260200160608152602001600081525090565b6000604051905090565b600080fd5b600080fd5b6000819050919050565b611aa981611a96565b8114611ab457600080fd5b50565b600081359050611ac681611aa0565b92915050565b600060208284031215611ae257611ae1611a8c565b5b6000611af084828501611ab7565b91505092915050565b600081519050919050565b600082825260208201905092915050565b60005b83811015611b33578082015181840152602081019050611b18565b60008484015250505050565b6000601f19601f8301169050919050565b6000611b5b82611af9565b611b658185611b04565b9350611b75818560208601611b15565b611b7e81611b3f565b840191505092915050565b60006020820190508181036000830152611ba38184611b50565b905092915050565b600080fd5b600080fd5b7f4e487b7100000000000000000000000000000000000000000000000000000000600052604160045260246000fd5b611bed82611b3f565b810181811067ffffffffffffffff82111715611c0c57611c0b611bb5565b5b80604052505050565b6000611c1f611a82565b9050611c2b8282611be4565b919050565b600067ffffffffffffffff821115611c4b57611c4a611bb5565b5b611c5482611b3f565b9050602081019050919050565b82818337600083830152505050565b6000611c83611c7e84611c30565b611c15565b905082815260208101848484011115611c9f57611c9e611bb0565b5b611caa848285611c61565b509392505050565b600082601f830112611cc757611cc6611bab565b5b8135611cd7848260208601611c70565b91505092915050565b600060208284031215611cf657611cf5611a8c565b5b600082013567ffffffffffffffff811115611d1457611d13611a91565b5b611d2084828501611cb2565b91505092915050565b600073ffffffffffffffffffffffffffffffffffffffff82169050919050565b6000611d5482611d29565b9050919050565b611d6481611d49565b8114611d6f57600080fd5b50565b600081359050611d8181611d5b565b92915050565b600080600060608486031215611da057611d9f611a8c565b5b600084013567ffffffffffffffff811115611dbe57611dbd611a91565b5b611dca86828701611cb2565b935050602084013567ffffffffffffffff811115611deb57611dea611a91565b5b611df786828701611cb2565b9250506040611e0886828701611d72565b9150509250925092565b60008115159050919050565b611e2781611e12565b82525050565b6000602082019050611e426000830184611e1e565b92915050565b611e5181611d49565b82525050565b611e6081611a96565b82525050565b600060e0820190508181036000830152611e80818a611b50565b9050611e8f6020830189611e48565b8181036040830152611ea18188611b50565b90508181036060830152611eb58187611b50565b90508181036080830152611ec98186611b50565b905081810360a0830152611edd8185611b50565b9050611eec60c0830184611e57565b98975050505050505050565b6000602082019050611f0d6000830184611e57565b92915050565b6000600f9050919050565b600081905092915050565b6000819050919050565b600082825260208201905092915050565b6000611f4f82611af9565b611f598185611f33565b9350611f69818560208601611b15565b611f7281611b3f565b840191505092915050565b6000611f898383611f44565b905092915050565b6000602082019050919050565b6000611fa982611f13565b611fb38185611f1e565b935083602082028501611fc585611f29565b8060005b858110156120015784840389528151611fe28582611f7d565b9450611fed83611f91565b925060208a01995050600181019050611fc9565b50829750879550505050505092915050565b6000602082019050818103600083015261202d8184611f9e565b905092915050565b6000806040838503121561204c5761204b611a8c565b5b600083013567ffffffffffffffff81111561206a57612069611a91565b5b61207685828601611cb2565b925050602083013567ffffffffffffffff81111561209757612096611a91565b5b6120a385828601611cb2565b9150509250929050565b60006020820190506120c26000830184611e48565b92915050565b600081519050919050565b600082825260208201905092915050565b6000819050602082019050919050565b6120fd81611d49565b82525050565b61210c81611a96565b82525050565b600060e083016000830151848203600086015261212f8282611f44565b915050602083015161214460208601826120f4565b506040830151848203604086015261215c8282611f44565b915050606083015184820360608601526121768282611f44565b915050608083015184820360808601526121908282611f44565b91505060a083015184820360a08601526121aa8282611f44565b91505060c08301516121bf60c0860182612103565b508091505092915050565b60006121d68383612112565b905092915050565b6000602082019050919050565b60006121f6826120c8565b61220081856120d3565b935083602082028501612212856120e4565b8060005b8581101561224e578484038952815161222f85826121ca565b945061223a836121de565b925060208a01995050600181019050612216565b50829750879550505050505092915050565b6000602082019050818103600083015261227a81846121eb565b905092915050565b600080600080600060a0868803121561229e5761229d611a8c565b5b600086013567ffffffffffffffff8111156122bc576122bb611a91565b5b6122c888828901611cb2565b955050602086013567ffffffffffffffff8111156122e9576122e8611a91565b5b6122f588828901611cb2565b945050604086013567ffffffffffffffff81111561231657612315611a91565b5b61232288828901611cb2565b935050606086013567ffffffffffffffff81111561234357612342611a91565b5b61234f88828901611cb2565b925050608086013567ffffffffffffffff8111156123705761236f611a91565b5b61237c88828901611cb2565b9150509295509295909350565b7f4e487b7100000000000000000000000000000000000000000000000000000000600052602260045260246000fd5b600060028204905060018216806123d057607f821691505b6020821081036123e3576123e2612389565b5b50919050565b600081905092915050565b60006123ff82611af9565b61240981856123e9565b9350612419818560208601611b15565b80840191505092915050565b600061243182846123f4565b915081905092915050565b7f546869732070726f6475637420646f6573206e6f742065786973740000000000600082015250565b6000612472601b83611b04565b915061247d8261243c565b602082019050919050565b600060208201905081810360008301526124a181612465565b9050919050565b600060408201905081810360008301526124c28185611b50565b905081810360208301526124d68184611b50565b90509392505050565b7f4e487b7100000000000000000000000000000000000000000000000000000000600052603260045260246000fd5b7f4e487b7100000000000000000000000000000000000000000000000000000000600052601160045260246000fd5b600061254882611a96565b91507fffffffffffffffffffffffffffffffffffffffffffffffffffffffffffffffff820361257a5761257961250e565b5b600182019050919050565b60008190508160005260206000209050919050565b60006020601f8301049050919050565b600082821b905092915050565b6000600883026125e77fffffffffffffffffffffffffffffffffffffffffffffffffffffffffffffffff826125aa565b6125f186836125aa565b95508019841693508086168417925050509392505050565b6000819050919050565b600061262e61262961262484611a96565b612609565b611a96565b9050919050565b6000819050919050565b61264883612613565b61265c61265482612635565b8484546125b7565b825550505050565b600090565b612671612664565b61267c81848461263f565b505050565b5b818110156126a057612695600082612669565b600181019050612682565b5050565b601f8211156126e5576126b681612585565b6126bf8461259a565b810160208510156126ce578190505b6126e26126da8561259a565b830182612681565b50505b505050565b600082821c905092915050565b6000612708600019846008026126ea565b1980831691505092915050565b600061272183836126f7565b9150826002028217905092915050565b61273a82611af9565b67ffffffffffffffff81111561275357612752611bb5565b5b61275d82546123b8565b6127688282856126a4565b600060209050601f83116001811461279b5760008415612789578287015190505b6127938582612715565b8655506127fb565b601f1984166127a986612585565b60005b828110156127d1578489015182556001820191506020850194506020810190506127ac565b868310156127ee57848901516127ea601f8916826126f7565b8355505b6001600288020188555050505b505050505050565b7f4e487b7100000000000000000000000000000000000000000000000000000000600052601260045260246000fd5b600061283d82611a96565b915061284883611a96565b92508261285857612857612803565b5b828204905092915050565b600061286e82611a96565b915061287983611a96565b92508282039050818111156128915761289061250e565b5b92915050565b60006128a282611a96565b91506128ad83611a96565b92508282026128bb81611a96565b915082820484148315176128d2576128d161250e565b5b5092915050565b600060ff82169050919050565b60006128f1826128d9565b91506128fc836128d9565b9250828201905060ff8111156129155761291461250e565b5b92915050565b7f2c00000000000000000000000000000000000000000000000000000000000000600082015250565b60006129516001836123e9565b915061295c8261291b565b600182019050919050565b600061297382896123f4565b915061297e82612944565b915061298a82886123f4565b915061299582612944565b91506129a182876123f4565b91506129ac82612944565b91506129b882866123f4565b91506129c382612944565b91506129cf82856123f4565b91506129da82612944565b91506129e682846123f4565b915081905097965050505050505056fea264697066735822122050c4212617e34e7802725d23967175944862d0aa78a15804e87117036866263764736f6c63430008130033",
  "immutableReferences": {},
  "source": "// SPDX-License-Identifier: MIT\r\npragma solidity >=0.4.22 <0.9.0;\r\n\r\ncontract SupplyChainRSCFOld {\r\n\r\n    //utility functions\r\n    function uint2str(uint _i) internal pure returns (string memory _uintAsString) {\r\n        if (_i == 0) {\r\n            return \"0\";\r\n        }\r\n        uint j = _i;\r\n        uint len;\r\n        while (j != 0) {\r\n            len++;\r\n            j /= 10;\r\n        }\r\n        bytes memory bstr = new bytes(len);\r\n        uint k = len;\r\n        while (_i != 0) {\r\n            k = k-1;\r\n            uint8 temp = (48 + uint8(_i - _i / 10 * 10));\r\n            bytes1 b1 = bytes1(temp);\r\n            bstr[k] = b1;\r\n            _i /= 10;\r\n        }\r\n        return string(bstr);\r\n    }\r\n\r\n    function append(string memory a, string memory b, string memory c, string memory d, string memory e, string memory f) internal pure returns (string memory) {\r\n        return string(abi.encodePacked(a, ',', b, ',', c, ',', d, ',', e, ',', f));\r\n    }\r\n\r\n    uint256 public productCount =0;\r\n   \r\n    //mapping: key--value\r\n    mapping(string => Product) public ProductMap;\r\n    mapping(string => bool) public productAdded;\r\n    Product[] public Products;\r\n    //store all locations\r\n    mapping(string => string[]) productId_locations;\r\n\r\n    struct Product {\r\n        string productId;\r\n        address owner;\r\n        string productName;\r\n        string manufacturer;\r\n        string supplier;\r\n        string currentLocation;\r\n        uint256 date;\r\n    }\r\n\r\n    //following is events\r\n    event ProductAdded( \r\n        string productId,\r\n        address owner,\r\n        string productName,\r\n        string manufacturer,\r\n        string supplier,\r\n        string currentLocation,\r\n        uint256 date\r\n    );\r\n\r\n    uint256 a;\r\n\r\n    function settest1(uint256 _a) public {\r\n        a = _a;\r\n    }\r\n\r\n    function gettest1() public view returns (uint256) {\r\n        return a;\r\n    }\r\n\r\n    event locationChanged(string productId, string currentLocation);\r\n\r\n    event Info(string info);\r\n\r\n    //following is modifiers\r\n    modifier owner_only(string memory _productId){\r\n        require(msg.sender == ProductMap[_productId].owner);\r\n        _;\r\n    }\r\n\r\n    string public productOutput;\r\n    function proOutput() public view returns(string memory){\r\n      return productOutput;\r\n    }\r\n\r\n    //main methods\r\n    function addProduct(string memory _productId, string memory _productName, string memory _manufacturer, string memory _supplier, string memory _currentLocation)  public returns (bool){\r\n\r\n        require(bytes(_productName).length > 0);\r\n        productCount++;\r\n        //TypeError: Types in storage containing (nested) mappings cannot be assigned to\r\n        // Products[productCount] = Product(productCount, msg.sender, _name, 0, block.timestamp);\r\n        Product memory newProduct;\r\n        newProduct.productId= _productId;\r\n        newProduct.owner = msg.sender;\r\n        newProduct.productName = _productName;\r\n        newProduct.supplier = _supplier;\r\n        newProduct.manufacturer = _manufacturer;\r\n        newProduct.currentLocation = _currentLocation;\r\n        newProduct.date = block.timestamp;\r\n        productAdded[_productId] = true;       \r\n        ProductMap[_productId] = newProduct;\r\n        Products.push(newProduct);\r\n        productId_locations[_productId].push(_currentLocation);\r\n        productOutput = \"Product Added Successfully\";        \r\n        emit ProductAdded(_productId, msg.sender, _productName, _manufacturer, _supplier, _currentLocation, block.timestamp);\r\n        return true;\r\n    }\r\n \r\n\r\n    function getProducts() public view returns (Product[] memory) {\r\n        return Products;\r\n    }\r\n\r\n    function changeLocation(string memory _location , string memory _productId, address _new_owner) public owner_only(_productId){\r\n\r\n        //  Product storage _product = Products[_id];\r\n         Product storage _product = ProductMap[_productId];\r\n        require(productAdded[_productId] == true, \"This product does not exist\");\r\n         _product.owner = _new_owner; \r\n         emit locationChanged(_productId, _location);\r\n    }\r\n\r\n    function fetchProductInfo(string memory _productId)public view returns(string memory) {\r\n\r\n        string memory _info  = append(\r\n            _productId,\r\n            ProductMap[_productId].productName,\r\n            ProductMap[_productId].manufacturer,\r\n            ProductMap[_productId].supplier,\r\n            ProductMap[_productId].currentLocation,\r\n            uint2str(ProductMap[_productId].date));\r\n        return _info;\r\n    }\r\n\r\n     function fetchAddress(string memory _producId) public view returns (address){        \r\n        address str = ProductMap[_producId].owner;\r\n        return str;\r\n    }\r\n\r\n    function fetchAllLocation(string memory _producId) public view returns (string[15] memory){\r\n        // string memory currLocation = ProductMap[_producId].currentLocation;\r\n        string[15] memory allLocations;\r\n        for( uint i = 0; i <= productId_locations[_producId].length; i++){\r\n            allLocations[i] = productId_locations[_producId][i];\r\n        }\r\n        return allLocations;\r\n    }\r\n\r\n    function compareStringValue(string memory s1, string  memory s2) public pure returns (bool) {\r\n        bytes memory a1=bytes(s1);\r\n        bytes memory b2=bytes(s2);\r\n        return keccak256((a1)) == keccak256((b2));\r\n    }      \r\n}",
  "sourcePath": "D:\\SupplyChainDev\\trufflerscf\\contracts\\SupplyChainRSCF-old.sol",
  "compiler": {
    "name": "solc",
    "version": "0.8.19+commit.7dd6d404.Emscripten.clang"
  },
  "schemaVersion": "3.4.16",
  "updatedAt": "2024-05-20T22:38:43.863Z",
  "devdoc": {
    "kind": "dev",
    "methods": {},
    "version": 1
  },
  "userdoc": {
    "kind": "user",
    "methods": {},
    "version": 1
  }
}