{
  "contractName": "SupplyChainRSCF10",
  "abi": [
    {
      "inputs": [
        {
          "internalType": "string",
          "name": "name_",
          "type": "string"
        },
        {
          "internalType": "string",
          "name": "email_",
          "type": "string"
        }
      ],
      "stateMutability": "nonpayable",
      "type": "constructor"
    },
    {
      "anonymous": false,
      "inputs": [
        {
          "indexed": false,
          "internalType": "string",
          "name": "goodRSCFName",
          "type": "string"
        },
        {
          "indexed": false,
          "internalType": "string",
          "name": "manufacturerName",
          "type": "string"
        },
        {
          "indexed": false,
          "internalType": "string",
          "name": "categoryName",
          "type": "string"
        },
        {
          "indexed": false,
          "internalType": "string",
          "name": "goodRSCFId",
          "type": "string"
        },
        {
          "indexed": false,
          "internalType": "string",
          "name": "buyerName",
          "type": "string"
        },
        {
          "indexed": false,
          "internalType": "string",
          "name": "buyerEmail",
          "type": "string"
        }
      ],
      "name": "GoodRSCFOwnershipTransfer",
      "type": "event"
    },
    {
      "anonymous": false,
      "inputs": [
        {
          "indexed": false,
          "internalType": "string",
          "name": "name",
          "type": "string"
        },
        {
          "indexed": false,
          "internalType": "string",
          "name": "email",
          "type": "string"
        },
        {
          "indexed": false,
          "internalType": "enum TypeRSCF.ClientRole",
          "name": "role",
          "type": "uint8"
        }
      ],
      "name": "LostClient",
      "type": "event"
    },
    {
      "anonymous": false,
      "inputs": [
        {
          "indexed": false,
          "internalType": "string",
          "name": "name",
          "type": "string"
        },
        {
          "indexed": false,
          "internalType": "string",
          "name": "email",
          "type": "string"
        },
        {
          "indexed": false,
          "internalType": "enum TypeRSCF.ClientRole",
          "name": "role",
          "type": "uint8"
        }
      ],
      "name": "NewClient",
      "type": "event"
    },
    {
      "anonymous": false,
      "inputs": [
        {
          "indexed": false,
          "internalType": "string",
          "name": "goodRSCFName",
          "type": "string"
        },
        {
          "indexed": false,
          "internalType": "string",
          "name": "manufacturerName",
          "type": "string"
        },
        {
          "indexed": false,
          "internalType": "address",
          "name": "manufacturer",
          "type": "address"
        },
        {
          "indexed": false,
          "internalType": "string",
          "name": "categoryName",
          "type": "string"
        },
        {
          "indexed": false,
          "internalType": "string",
          "name": "goodRSCFId",
          "type": "string"
        },
        {
          "indexed": false,
          "internalType": "uint256",
          "name": "manDateEpoch",
          "type": "uint256"
        },
        {
          "indexed": false,
          "internalType": "uint256",
          "name": "expDateEpoch",
          "type": "uint256"
        }
      ],
      "name": "NewGoodRSCF",
      "type": "event"
    },
    {
      "anonymous": false,
      "inputs": [
        {
          "indexed": false,
          "internalType": "string",
          "name": "orderId",
          "type": "string"
        }
      ],
      "name": "OrderCompleted",
      "type": "event"
    },
    {
      "anonymous": false,
      "inputs": [
        {
          "indexed": false,
          "internalType": "string",
          "name": "orderId",
          "type": "string"
        }
      ],
      "name": "OrderGenerated",
      "type": "event"
    },
    {
      "anonymous": false,
      "inputs": [
        {
          "indexed": false,
          "internalType": "string",
          "name": "orderId",
          "type": "string"
        },
        {
          "indexed": false,
          "internalType": "address",
          "name": "customerName",
          "type": "address"
        },
        {
          "indexed": false,
          "internalType": "string",
          "name": "productId",
          "type": "string"
        },
        {
          "indexed": false,
          "internalType": "string",
          "name": "productName",
          "type": "string"
        },
        {
          "indexed": false,
          "internalType": "uint256",
          "name": "quantity",
          "type": "uint256"
        },
        {
          "indexed": false,
          "internalType": "uint256",
          "name": "price",
          "type": "uint256"
        }
      ],
      "name": "OrderPurchased",
      "type": "event"
    },
    {
      "anonymous": false,
      "inputs": [
        {
          "indexed": false,
          "internalType": "string",
          "name": "orderId",
          "type": "string"
        }
      ],
      "name": "OrderTransferred",
      "type": "event"
    },
    {
      "inputs": [
        {
          "components": [
            {
              "internalType": "string",
              "name": "orderId",
              "type": "string"
            },
            {
              "internalType": "address",
              "name": "customerName",
              "type": "address"
            },
            {
              "internalType": "string",
              "name": "productId",
              "type": "string"
            },
            {
              "internalType": "string",
              "name": "productName",
              "type": "string"
            },
            {
              "internalType": "uint256",
              "name": "quantity",
              "type": "uint256"
            },
            {
              "internalType": "uint256",
              "name": "price",
              "type": "uint256"
            },
            {
              "internalType": "enum TypeRSCF.OrderStatus",
              "name": "orderStatus",
              "type": "uint8"
            }
          ],
          "internalType": "struct TypeRSCF.OrderRSCF",
          "name": "orderRSCF_",
          "type": "tuple"
        },
        {
          "internalType": "uint256",
          "name": "currentTime_",
          "type": "uint256"
        }
      ],
      "name": "addOrder",
      "outputs": [],
      "stateMutability": "nonpayable",
      "type": "function"
    },
    {
      "inputs": [
        {
          "internalType": "string",
          "name": "orderId",
          "type": "string"
        }
      ],
      "name": "completeOrder",
      "outputs": [],
      "stateMutability": "nonpayable",
      "type": "function"
    },
    {
      "inputs": [
        {
          "internalType": "string",
          "name": "orderId",
          "type": "string"
        }
      ],
      "name": "generateOrder",
      "outputs": [],
      "stateMutability": "nonpayable",
      "type": "function"
    },
    {
      "inputs": [
        {
          "internalType": "string",
          "name": "",
          "type": "string"
        }
      ],
      "name": "orders",
      "outputs": [
        {
          "internalType": "string",
          "name": "orderId",
          "type": "string"
        },
        {
          "internalType": "address",
          "name": "customerName",
          "type": "address"
        },
        {
          "internalType": "string",
          "name": "productId",
          "type": "string"
        },
        {
          "internalType": "string",
          "name": "productName",
          "type": "string"
        },
        {
          "internalType": "uint256",
          "name": "quantity",
          "type": "uint256"
        },
        {
          "internalType": "uint256",
          "name": "price",
          "type": "uint256"
        },
        {
          "internalType": "enum TypeRSCF.OrderStatus",
          "name": "orderStatus",
          "type": "uint8"
        }
      ],
      "stateMutability": "view",
      "type": "function"
    },
    {
      "inputs": [
        {
          "internalType": "string",
          "name": "orderId",
          "type": "string"
        }
      ],
      "name": "transferOrder",
      "outputs": [],
      "stateMutability": "nonpayable",
      "type": "function"
    },
    {
      "inputs": [],
      "name": "getAllGoodRSCFs",
      "outputs": [
        {
          "components": [
            {
              "internalType": "string",
              "name": "goodRSCFName",
              "type": "string"
            },
            {
              "internalType": "string",
              "name": "goodRSCFId",
              "type": "string"
            },
            {
              "internalType": "string",
              "name": "manufacturerName",
              "type": "string"
            },
            {
              "internalType": "address",
              "name": "manufacturer",
              "type": "address"
            },
            {
              "internalType": "uint256",
              "name": "manDateEpoch",
              "type": "uint256"
            },
            {
              "internalType": "uint256",
              "name": "expDateEpoch",
              "type": "uint256"
            },
            {
              "internalType": "uint256",
              "name": "batchCount",
              "type": "uint256"
            },
            {
              "internalType": "enum TypeRSCF.GoodRSCFType",
              "name": "goodRSCFType",
              "type": "uint8"
            },
            {
              "internalType": "string",
              "name": "categoryName",
              "type": "string"
            },
            {
              "internalType": "string[]",
              "name": "composition",
              "type": "string[]"
            },
            {
              "internalType": "string[]",
              "name": "sideEffects",
              "type": "string[]"
            }
          ],
          "internalType": "struct TypeRSCF.GoodRSCF[]",
          "name": "",
          "type": "tuple[]"
        }
      ],
      "stateMutability": "view",
      "type": "function"
    },
    {
      "inputs": [],
      "name": "getSomeGoodRSCFs",
      "outputs": [
        {
          "components": [
            {
              "internalType": "string",
              "name": "goodRSCFName",
              "type": "string"
            },
            {
              "internalType": "string",
              "name": "goodRSCFId",
              "type": "string"
            },
            {
              "internalType": "string",
              "name": "manufacturerName",
              "type": "string"
            },
            {
              "internalType": "address",
              "name": "manufacturer",
              "type": "address"
            },
            {
              "internalType": "uint256",
              "name": "manDateEpoch",
              "type": "uint256"
            },
            {
              "internalType": "uint256",
              "name": "expDateEpoch",
              "type": "uint256"
            },
            {
              "internalType": "uint256",
              "name": "batchCount",
              "type": "uint256"
            },
            {
              "internalType": "enum TypeRSCF.GoodRSCFType",
              "name": "goodRSCFType",
              "type": "uint8"
            },
            {
              "internalType": "string",
              "name": "categoryName",
              "type": "string"
            },
            {
              "internalType": "string[]",
              "name": "composition",
              "type": "string[]"
            },
            {
              "internalType": "string[]",
              "name": "sideEffects",
              "type": "string[]"
            }
          ],
          "internalType": "struct TypeRSCF.GoodRSCF[]",
          "name": "",
          "type": "tuple[]"
        }
      ],
      "stateMutability": "view",
      "type": "function"
    },
    {
      "inputs": [
        {
          "internalType": "string",
          "name": "goodRSCFId_",
          "type": "string"
        }
      ],
      "name": "getSingleGoodRSCF",
      "outputs": [
        {
          "components": [
            {
              "internalType": "string",
              "name": "goodRSCFName",
              "type": "string"
            },
            {
              "internalType": "string",
              "name": "goodRSCFId",
              "type": "string"
            },
            {
              "internalType": "string",
              "name": "manufacturerName",
              "type": "string"
            },
            {
              "internalType": "address",
              "name": "manufacturer",
              "type": "address"
            },
            {
              "internalType": "uint256",
              "name": "manDateEpoch",
              "type": "uint256"
            },
            {
              "internalType": "uint256",
              "name": "expDateEpoch",
              "type": "uint256"
            },
            {
              "internalType": "uint256",
              "name": "batchCount",
              "type": "uint256"
            },
            {
              "internalType": "enum TypeRSCF.GoodRSCFType",
              "name": "goodRSCFType",
              "type": "uint8"
            },
            {
              "internalType": "string",
              "name": "categoryName",
              "type": "string"
            },
            {
              "internalType": "string[]",
              "name": "composition",
              "type": "string[]"
            },
            {
              "internalType": "string[]",
              "name": "sideEffects",
              "type": "string[]"
            }
          ],
          "internalType": "struct TypeRSCF.GoodRSCF",
          "name": "",
          "type": "tuple"
        },
        {
          "components": [
            {
              "components": [
                {
                  "internalType": "address",
                  "name": "clientId",
                  "type": "address"
                },
                {
                  "internalType": "uint256",
                  "name": "date",
                  "type": "uint256"
                }
              ],
              "internalType": "struct TypeRSCF.ClientHistory",
              "name": "manufacturer",
              "type": "tuple"
            },
            {
              "components": [
                {
                  "internalType": "address",
                  "name": "clientId",
                  "type": "address"
                },
                {
                  "internalType": "uint256",
                  "name": "date",
                  "type": "uint256"
                }
              ],
              "internalType": "struct TypeRSCF.ClientHistory",
              "name": "supplier",
              "type": "tuple"
            },
            {
              "components": [
                {
                  "internalType": "address",
                  "name": "clientId",
                  "type": "address"
                },
                {
                  "internalType": "uint256",
                  "name": "date",
                  "type": "uint256"
                }
              ],
              "internalType": "struct TypeRSCF.ClientHistory",
              "name": "retailer",
              "type": "tuple"
            },
            {
              "components": [
                {
                  "internalType": "address",
                  "name": "clientId",
                  "type": "address"
                },
                {
                  "internalType": "uint256",
                  "name": "date",
                  "type": "uint256"
                }
              ],
              "internalType": "struct TypeRSCF.ClientHistory[]",
              "name": "customers",
              "type": "tuple[]"
            }
          ],
          "internalType": "struct TypeRSCF.GoodRSCFHistory",
          "name": "",
          "type": "tuple"
        }
      ],
      "stateMutability": "view",
      "type": "function"
    },
    {
      "inputs": [
        {
          "components": [
            {
              "internalType": "string",
              "name": "goodRSCFName",
              "type": "string"
            },
            {
              "internalType": "string",
              "name": "goodRSCFId",
              "type": "string"
            },
            {
              "internalType": "string",
              "name": "manufacturerName",
              "type": "string"
            },
            {
              "internalType": "address",
              "name": "manufacturer",
              "type": "address"
            },
            {
              "internalType": "uint256",
              "name": "manDateEpoch",
              "type": "uint256"
            },
            {
              "internalType": "uint256",
              "name": "expDateEpoch",
              "type": "uint256"
            },
            {
              "internalType": "uint256",
              "name": "batchCount",
              "type": "uint256"
            },
            {
              "internalType": "enum TypeRSCF.GoodRSCFType",
              "name": "goodRSCFType",
              "type": "uint8"
            },
            {
              "internalType": "string",
              "name": "categoryName",
              "type": "string"
            },
            {
              "internalType": "string[]",
              "name": "composition",
              "type": "string[]"
            },
            {
              "internalType": "string[]",
              "name": "sideEffects",
              "type": "string[]"
            }
          ],
          "internalType": "struct TypeRSCF.GoodRSCF",
          "name": "goodRSCF_",
          "type": "tuple"
        },
        {
          "internalType": "uint256",
          "name": "currentTime_",
          "type": "uint256"
        }
      ],
      "name": "addGoodRSCF",
      "outputs": [],
      "stateMutability": "nonpayable",
      "type": "function"
    },
    {
      "inputs": [
        {
          "internalType": "string",
          "name": "orderRSCFId_",
          "type": "string"
        }
      ],
      "name": "getSingleOrderRSCF",
      "outputs": [
        {
          "components": [
            {
              "internalType": "string",
              "name": "orderId",
              "type": "string"
            },
            {
              "internalType": "address",
              "name": "customerName",
              "type": "address"
            },
            {
              "internalType": "string",
              "name": "productId",
              "type": "string"
            },
            {
              "internalType": "string",
              "name": "productName",
              "type": "string"
            },
            {
              "internalType": "uint256",
              "name": "quantity",
              "type": "uint256"
            },
            {
              "internalType": "uint256",
              "name": "price",
              "type": "uint256"
            },
            {
              "internalType": "enum TypeRSCF.OrderStatus",
              "name": "orderStatus",
              "type": "uint8"
            }
          ],
          "internalType": "struct TypeRSCF.OrderRSCF",
          "name": "",
          "type": "tuple"
        }
      ],
      "stateMutability": "view",
      "type": "function"
    },
    {
      "inputs": [
        {
          "internalType": "string",
          "name": "orderId_",
          "type": "string"
        },
        {
          "internalType": "string",
          "name": "productName_",
          "type": "string"
        },
        {
          "internalType": "uint256",
          "name": "quantity_",
          "type": "uint256"
        },
        {
          "internalType": "uint256",
          "name": "price_",
          "type": "uint256"
        }
      ],
      "name": "addOrderRSCF",
      "outputs": [],
      "stateMutability": "nonpayable",
      "type": "function"
    },
    {
      "inputs": [],
      "name": "getSomeDetails",
      "outputs": [
        {
          "components": [
            {
              "internalType": "enum TypeRSCF.ClientRole",
              "name": "role",
              "type": "uint8"
            },
            {
              "internalType": "address",
              "name": "id_",
              "type": "address"
            },
            {
              "internalType": "string",
              "name": "name",
              "type": "string"
            },
            {
              "internalType": "string",
              "name": "email",
              "type": "string"
            }
          ],
          "internalType": "struct TypeRSCF.ClientDetails",
          "name": "",
          "type": "tuple"
        }
      ],
      "stateMutability": "view",
      "type": "function"
    },
    {
      "inputs": [],
      "name": "getSomeClientsList",
      "outputs": [
        {
          "components": [
            {
              "internalType": "enum TypeRSCF.ClientRole",
              "name": "role",
              "type": "uint8"
            },
            {
              "internalType": "address",
              "name": "id_",
              "type": "address"
            },
            {
              "internalType": "string",
              "name": "name",
              "type": "string"
            },
            {
              "internalType": "string",
              "name": "email",
              "type": "string"
            }
          ],
          "internalType": "struct TypeRSCF.ClientDetails[]",
          "name": "clientsList_",
          "type": "tuple[]"
        }
      ],
      "stateMutability": "view",
      "type": "function"
    }
  ],
  "bytecode": "0x60806040523480156200001157600080fd5b506040516200610438038062006104833981810160405281019062000037919062000568565b60006040518060800160405280600160048111156200005b576200005a620005ed565b5b81526020013373ffffffffffffffffffffffffffffffffffffffff1681526020018481526020018381525090506200009981620000a260201b60201c565b50505062000ad4565b600073ffffffffffffffffffffffffffffffffffffffff16816020015173ffffffffffffffffffffffffffffffffffffffff1603620000e057600080fd5b620000fa816000015182602001516200027a60201b60201c565b156200013d576040517f08c379a00000000000000000000000000000000000000000000000000000000081526004016200013490620006a3565b60405180910390fd5b8060066000836020015173ffffffffffffffffffffffffffffffffffffffff1673ffffffffffffffffffffffffffffffffffffffff16815260200190815260200160002060008201518160000160006101000a81548160ff02191690836004811115620001af57620001ae620005ed565b5b021790555060208201518160000160016101000a81548173ffffffffffffffffffffffffffffffffffffffff021916908373ffffffffffffffffffffffffffffffffffffffff160217905550604082015181600101908162000212919062000910565b5060608201518160020190816200022a919062000910565b509050507f50d0ad0c99094df6346bcc2173016e4029c68c201898be23216c4867281a07918160400151826060015183600001516040516200026f9392919062000a89565b60405180910390a150565b60008073ffffffffffffffffffffffffffffffffffffffff168273ffffffffffffffffffffffffffffffffffffffff1603620002b557600080fd5b600073ffffffffffffffffffffffffffffffffffffffff16600660008473ffffffffffffffffffffffffffffffffffffffff1673ffffffffffffffffffffffffffffffffffffffff16815260200190815260200160002060000160019054906101000a900473ffffffffffffffffffffffffffffffffffffffff1673ffffffffffffffffffffffffffffffffffffffff1614158015620003cd5750826004811115620003665762000365620005ed565b5b600660008473ffffffffffffffffffffffffffffffffffffffff1673ffffffffffffffffffffffffffffffffffffffff16815260200190815260200160002060000160009054906101000a900460ff166004811115620003cb57620003ca620005ed565b5b145b905092915050565b6000604051905090565b600080fd5b600080fd5b600080fd5b600080fd5b6000601f19601f8301169050919050565b7f4e487b7100000000000000000000000000000000000000000000000000000000600052604160045260246000fd5b6200043e82620003f3565b810181811067ffffffffffffffff8211171562000460576200045f62000404565b5b80604052505050565b600062000475620003d5565b905062000483828262000433565b919050565b600067ffffffffffffffff821115620004a657620004a562000404565b5b620004b182620003f3565b9050602081019050919050565b60005b83811015620004de578082015181840152602081019050620004c1565b60008484015250505050565b600062000501620004fb8462000488565b62000469565b90508281526020810184848401111562000520576200051f620003ee565b5b6200052d848285620004be565b509392505050565b600082601f8301126200054d576200054c620003e9565b5b81516200055f848260208601620004ea565b91505092915050565b60008060408385031215620005825762000581620003df565b5b600083015167ffffffffffffffff811115620005a357620005a2620003e4565b5b620005b18582860162000535565b925050602083015167ffffffffffffffff811115620005d557620005d4620003e4565b5b620005e38582860162000535565b9150509250929050565b7f4e487b7100000000000000000000000000000000000000000000000000000000600052602160045260246000fd5b600082825260208201905092915050565b7f53616d6520636c69656e7420776974682073616d6520726f6c6520657869737460008201527f7300000000000000000000000000000000000000000000000000000000000000602082015250565b60006200068b6021836200061c565b915062000698826200062d565b604082019050919050565b60006020820190508181036000830152620006be816200067c565b9050919050565b600081519050919050565b7f4e487b7100000000000000000000000000000000000000000000000000000000600052602260045260246000fd5b600060028204905060018216806200071857607f821691505b6020821081036200072e576200072d620006d0565b5b50919050565b60008190508160005260206000209050919050565b60006020601f8301049050919050565b600082821b905092915050565b600060088302620007987fffffffffffffffffffffffffffffffffffffffffffffffffffffffffffffffff8262000759565b620007a4868362000759565b95508019841693508086168417925050509392505050565b6000819050919050565b6000819050919050565b6000620007f1620007eb620007e584620007bc565b620007c6565b620007bc565b9050919050565b6000819050919050565b6200080d83620007d0565b620008256200081c82620007f8565b84845462000766565b825550505050565b600090565b6200083c6200082d565b6200084981848462000802565b505050565b5b8181101562000871576200086560008262000832565b6001810190506200084f565b5050565b601f821115620008c0576200088a8162000734565b620008958462000749565b81016020851015620008a5578190505b620008bd620008b48562000749565b8301826200084e565b50505b505050565b600082821c905092915050565b6000620008e560001984600802620008c5565b1980831691505092915050565b6000620009008383620008d2565b9150826002028217905092915050565b6200091b82620006c5565b67ffffffffffffffff81111562000937576200093662000404565b5b620009438254620006ff565b6200095082828562000875565b600060209050601f83116001811462000988576000841562000973578287015190505b6200097f8582620008f2565b865550620009ef565b601f198416620009988662000734565b60005b82811015620009c2578489015182556001820191506020850194506020810190506200099b565b86831015620009e25784890151620009de601f891682620008d2565b8355505b6001600288020188555050505b505050505050565b600062000a0482620006c5565b62000a1081856200061c565b935062000a22818560208601620004be565b62000a2d81620003f3565b840191505092915050565b6005811062000a4c5762000a4b620005ed565b5b50565b600081905062000a5f8262000a38565b919050565b600062000a718262000a4f565b9050919050565b62000a838162000a64565b82525050565b6000606082019050818103600083015262000aa58186620009f7565b9050818103602083015262000abb8185620009f7565b905062000acc604083018462000a78565b949350505050565b6156208062000ae46000396000f3fe608060405234801561001057600080fd5b50600436106100cf5760003560e01c80638d998a101161008c578063b96c086611610066578063b96c086614610204578063da169ca514610220578063e545121d1461023e578063e74a80931461026f576100cf565b80638d998a10146101ae578063a1168c42146101cc578063a3e38589146101e8576100cf565b80630323a947146100d4578063113539ad146100f25780631a948947146101225780632a1a47f81461015857806347ed07631461017457806370bcfcb114610192575b600080fd5b6100dc61028b565b6040516100e99190613c1d565b60405180910390f35b61010c60048036038101906101079190613d88565b61029b565b6040516101199190613edc565b60405180910390f35b61013c60048036038101906101379190613d88565b6102b3565b60405161014f9796959493929190613f75565b60405180910390f35b610172600480360381019061016d9190613d88565b6104d0565b005b61017c610664565b60405161018991906142d7565b60405180910390f35b6101ac60048036038101906101a7919061461a565b610b6d565b005b6101b6610d71565b6040516101c391906142d7565b60405180910390f35b6101e660048036038101906101e191906147a3565b610d80565b005b61020260048036038101906101fd91906147ff565b611034565b005b61021e60048036038101906102199190613d88565b61103a565b005b6102286111ce565b6040516102359190614908565b60405180910390f35b61025860048036038101906102539190613d88565b6111e4565b604051610266929190614b7d565b60405180910390f35b61028960048036038101906102849190613d88565b611206565b005b6060610296336115d7565b905090565b6102a361372e565b6102ac82611e25565b9050919050565b6005818051602081018201805184825260208301602085012081835280955050505050506000915090508060000180546102ec90614be3565b80601f016020809104026020016040519081016040528092919081815260200182805461031890614be3565b80156103655780601f1061033a57610100808354040283529160200191610365565b820191906000526020600020905b81548152906001019060200180831161034857829003601f168201915b5050505050908060010160009054906101000a900473ffffffffffffffffffffffffffffffffffffffff16908060020180546103a090614be3565b80601f01602080910402602001604051908101604052809291908181526020018280546103cc90614be3565b80156104195780601f106103ee57610100808354040283529160200191610419565b820191906000526020600020905b8154815290600101906020018083116103fc57829003601f168201915b50505050509080600301805461042e90614be3565b80601f016020809104026020016040519081016040528092919081815260200182805461045a90614be3565b80156104a75780601f1061047c576101008083540402835291602001916104a7565b820191906000526020600020905b81548152906001019060200180831161048a57829003601f168201915b5050505050908060040154908060050154908060060160009054906101000a900460ff16905087565b60006005826040516104e29190614c50565b908152602001604051809103902090503373ffffffffffffffffffffffffffffffffffffffff168160010160009054906101000a900473ffffffffffffffffffffffffffffffffffffffff1673ffffffffffffffffffffffffffffffffffffffff1614610584576040517f08c379a000000000000000000000000000000000000000000000000000000000815260040161057b90614cd9565b60405180910390fd5b60016003811115610598576105976139d5565b5b8160060160009054906101000a900460ff1660038111156105bc576105bb6139d5565b5b146105fc576040517f08c379a00000000000000000000000000000000000000000000000000000000081526004016105f390614d6b565b60405180910390fd5b60028160060160006101000a81548160ff02191690836003811115610624576106236139d5565b5b02179055507fac14f6f0cc901964c24513b4eef52446d25d1da3d20792622418673ea2d80eb2826040516106589190614d8b565b60405180910390a15050565b60606000805480602002602001604051908101604052809291908181526020016000905b82821015610b6457838290600052602060002090600b0201604051806101600160405290816000820180546106bc90614be3565b80601f01602080910402602001604051908101604052809291908181526020018280546106e890614be3565b80156107355780601f1061070a57610100808354040283529160200191610735565b820191906000526020600020905b81548152906001019060200180831161071857829003601f168201915b5050505050815260200160018201805461074e90614be3565b80601f016020809104026020016040519081016040528092919081815260200182805461077a90614be3565b80156107c75780601f1061079c576101008083540402835291602001916107c7565b820191906000526020600020905b8154815290600101906020018083116107aa57829003601f168201915b505050505081526020016002820180546107e090614be3565b80601f016020809104026020016040519081016040528092919081815260200182805461080c90614be3565b80156108595780601f1061082e57610100808354040283529160200191610859565b820191906000526020600020905b81548152906001019060200180831161083c57829003601f168201915b505050505081526020016003820160009054906101000a900473ffffffffffffffffffffffffffffffffffffffff1673ffffffffffffffffffffffffffffffffffffffff1673ffffffffffffffffffffffffffffffffffffffff1681526020016004820154815260200160058201548152602001600682015481526020016007820160009054906101000a900460ff1660048111156108fb576108fa6139d5565b5b600481111561090d5761090c6139d5565b5b815260200160088201805461092190614be3565b80601f016020809104026020016040519081016040528092919081815260200182805461094d90614be3565b801561099a5780601f1061096f5761010080835404028352916020019161099a565b820191906000526020600020905b81548152906001019060200180831161097d57829003601f168201915b5050505050815260200160098201805480602002602001604051908101604052809291908181526020016000905b82821015610a745783829060005260206000200180546109e790614be3565b80601f0160208091040260200160405190810160405280929190818152602001828054610a1390614be3565b8015610a605780601f10610a3557610100808354040283529160200191610a60565b820191906000526020600020905b815481529060010190602001808311610a4357829003601f168201915b5050505050815260200190600101906109c8565b505050508152602001600a8201805480602002602001604051908101604052809291908181526020016000905b82821015610b4d578382906000526020600020018054610ac090614be3565b80601f0160208091040260200160405190810160405280929190818152602001828054610aec90614be3565b8015610b395780601f10610b0e57610100808354040283529160200191610b39565b820191906000526020600020905b815481529060010190602001808311610b1c57829003601f168201915b505050505081526020019060010190610aa1565b505050508152505081526020019060010190610688565b50505050905090565b600073ffffffffffffffffffffffffffffffffffffffff163373ffffffffffffffffffffffffffffffffffffffff1603610bdc576040517f08c379a0000000000000000000000000000000000000000000000000000000008152600401610bd390614df9565b60405180910390fd5b600073ffffffffffffffffffffffffffffffffffffffff16600660003373ffffffffffffffffffffffffffffffffffffffff1673ffffffffffffffffffffffffffffffffffffffff16815260200190815260200160002060000160019054906101000a900473ffffffffffffffffffffffffffffffffffffffff1673ffffffffffffffffffffffffffffffffffffffff1603610cad576040517f08c379a0000000000000000000000000000000000000000000000000000000008152600401610ca490614e65565b60405180910390fd5b60016004811115610cc157610cc06139d5565b5b600660003373ffffffffffffffffffffffffffffffffffffffff1673ffffffffffffffffffffffffffffffffffffffff16815260200190815260200160002060000160009054906101000a900460ff166004811115610d2357610d226139d5565b5b14610d63576040517f08c379a0000000000000000000000000000000000000000000000000000000008152600401610d5a90614ed1565b60405180910390fd5b610d6d82826120b8565b5050565b6060610d7b612621565b905090565b33826020019073ffffffffffffffffffffffffffffffffffffffff16908173ffffffffffffffffffffffffffffffffffffffff168152505060008260c001906003811115610dd157610dd06139d5565b5b90816003811115610de557610de46139d5565b5b815250508160058360000151604051610dfe9190614c50565b90815260200160405180910390206000820151816000019081610e21919061509d565b5060208201518160010160006101000a81548173ffffffffffffffffffffffffffffffffffffffff021916908373ffffffffffffffffffffffffffffffffffffffff1602179055506040820151816002019081610e7e919061509d565b506060820151816003019081610e94919061509d565b506080820151816004015560a0820151816005015560c08201518160060160006101000a81548160ff02191690836003811115610ed457610ed36139d5565b5b021790555090505060048290806001815401808255809150506001900390600052602060002090600702016000909190919091506000820151816000019081610f1d919061509d565b5060208201518160010160006101000a81548173ffffffffffffffffffffffffffffffffffffffff021916908373ffffffffffffffffffffffffffffffffffffffff1602179055506040820151816002019081610f7a919061509d565b506060820151816003019081610f90919061509d565b506080820151816004015560a0820151816005015560c08201518160060160006101000a81548160ff02191690836003811115610fd057610fcf6139d5565b5b021790555050507fe36918c4e178c1be44849f3ac6dda1fc6dd191b53f504dd4475ce7eccc2c37ed826000015183602001518460400151856060015186608001518760a001516040516110289695949392919061516f565b60405180910390a15050565b50505050565b600060058260405161104c9190614c50565b908152602001604051809103902090503373ffffffffffffffffffffffffffffffffffffffff168160010160009054906101000a900473ffffffffffffffffffffffffffffffffffffffff1673ffffffffffffffffffffffffffffffffffffffff16146110ee576040517f08c379a00000000000000000000000000000000000000000000000000000000081526004016110e590615231565b60405180910390fd5b60026003811115611102576111016139d5565b5b8160060160009054906101000a900460ff166003811115611126576111256139d5565b5b14611166576040517f08c379a000000000000000000000000000000000000000000000000000000000815260040161115d906152c3565b60405180910390fd5b60038160060160006101000a81548160ff0219169083600381111561118e5761118d6139d5565b5b02179055507fc54168d3090b6f00fab4ccb0e6661857004c64ab480534010cdf71800c75241d826040516111c29190614d8b565b60405180910390a15050565b6111d6613793565b6111df33612cc2565b905090565b6111ec6137e3565b6111f4613865565b6111fd83612d58565b91509150915091565b60006005826040516112189190614c50565b90815260200160405180910390206040518060e001604052908160008201805461124190614be3565b80601f016020809104026020016040519081016040528092919081815260200182805461126d90614be3565b80156112ba5780601f1061128f576101008083540402835291602001916112ba565b820191906000526020600020905b81548152906001019060200180831161129d57829003601f168201915b505050505081526020016001820160009054906101000a900473ffffffffffffffffffffffffffffffffffffffff1673ffffffffffffffffffffffffffffffffffffffff1673ffffffffffffffffffffffffffffffffffffffff16815260200160028201805461132990614be3565b80601f016020809104026020016040519081016040528092919081815260200182805461135590614be3565b80156113a25780601f10611377576101008083540402835291602001916113a2565b820191906000526020600020905b81548152906001019060200180831161138557829003601f168201915b505050505081526020016003820180546113bb90614be3565b80601f01602080910402602001604051908101604052809291908181526020018280546113e790614be3565b80156114345780601f1061140957610100808354040283529160200191611434565b820191906000526020600020905b81548152906001019060200180831161141757829003601f168201915b5050505050815260200160048201548152602001600582015481526020016006820160009054906101000a900460ff166003811115611476576114756139d5565b5b6003811115611488576114876139d5565b5b8152505090503373ffffffffffffffffffffffffffffffffffffffff16816020015173ffffffffffffffffffffffffffffffffffffffff1614611500576040517f08c379a00000000000000000000000000000000000000000000000000000000081526004016114f79061532f565b60405180910390fd5b60006003811115611514576115136139d5565b5b8160c00151600381111561152b5761152a6139d5565b5b1461156b576040517f08c379a0000000000000000000000000000000000000000000000000000000008152600401611562906153c1565b60405180910390fd5b60018160c001906003811115611584576115836139d5565b5b90816003811115611598576115976139d5565b5b815250507f49a8e1507a6f693a113e03a6b7d2ca032ebdf2908f1fcbc1b021ed7845cadf8a826040516115cb9190614d8b565b60405180910390a15050565b6060600073ffffffffffffffffffffffffffffffffffffffff168273ffffffffffffffffffffffffffffffffffffffff1603611648576040517f08c379a000000000000000000000000000000000000000000000000000000000815260040161163f9061542d565b60405180910390fd5b6001600481111561165c5761165b6139d5565b5b6116658361348e565b60000151600481111561167b5761167a6139d5565b5b036118d157600760008373ffffffffffffffffffffffffffffffffffffffff1673ffffffffffffffffffffffffffffffffffffffff168152602001908152602001600020805480602002602001604051908101604052809291908181526020016000905b828210156118c657838290600052602060002090600302016040518060800160405290816000820160009054906101000a900460ff166004811115611727576117266139d5565b5b6004811115611739576117386139d5565b5b81526020016000820160019054906101000a900473ffffffffffffffffffffffffffffffffffffffff1673ffffffffffffffffffffffffffffffffffffffff1673ffffffffffffffffffffffffffffffffffffffff1681526020016001820180546117a390614be3565b80601f01602080910402602001604051908101604052809291908181526020018280546117cf90614be3565b801561181c5780601f106117f15761010080835404028352916020019161181c565b820191906000526020600020905b8154815290600101906020018083116117ff57829003601f168201915b5050505050815260200160028201805461183590614be3565b80601f016020809104026020016040519081016040528092919081815260200182805461186190614be3565b80156118ae5780601f10611883576101008083540402835291602001916118ae565b820191906000526020600020905b81548152906001019060200180831161189157829003601f168201915b505050505081525050815260200190600101906116df565b505050509050611e20565b600260048111156118e5576118e46139d5565b5b6118ee8361348e565b600001516004811115611904576119036139d5565b5b03611b5a57600860008373ffffffffffffffffffffffffffffffffffffffff1673ffffffffffffffffffffffffffffffffffffffff168152602001908152602001600020805480602002602001604051908101604052809291908181526020016000905b82821015611b4f57838290600052602060002090600302016040518060800160405290816000820160009054906101000a900460ff1660048111156119b0576119af6139d5565b5b60048111156119c2576119c16139d5565b5b81526020016000820160019054906101000a900473ffffffffffffffffffffffffffffffffffffffff1673ffffffffffffffffffffffffffffffffffffffff1673ffffffffffffffffffffffffffffffffffffffff168152602001600182018054611a2c90614be3565b80601f0160208091040260200160405190810160405280929190818152602001828054611a5890614be3565b8015611aa55780601f10611a7a57610100808354040283529160200191611aa5565b820191906000526020600020905b815481529060010190602001808311611a8857829003601f168201915b50505050508152602001600282018054611abe90614be3565b80601f0160208091040260200160405190810160405280929190818152602001828054611aea90614be3565b8015611b375780601f10611b0c57610100808354040283529160200191611b37565b820191906000526020600020905b815481529060010190602001808311611b1a57829003601f168201915b50505050508152505081526020019060010190611968565b505050509050611e1f565b60036004811115611b6e57611b6d6139d5565b5b611b778361348e565b600001516004811115611b8d57611b8c6139d5565b5b03611de357600960008373ffffffffffffffffffffffffffffffffffffffff1673ffffffffffffffffffffffffffffffffffffffff168152602001908152602001600020805480602002602001604051908101604052809291908181526020016000905b82821015611dd857838290600052602060002090600302016040518060800160405290816000820160009054906101000a900460ff166004811115611c3957611c386139d5565b5b6004811115611c4b57611c4a6139d5565b5b81526020016000820160019054906101000a900473ffffffffffffffffffffffffffffffffffffffff1673ffffffffffffffffffffffffffffffffffffffff1673ffffffffffffffffffffffffffffffffffffffff168152602001600182018054611cb590614be3565b80601f0160208091040260200160405190810160405280929190818152602001828054611ce190614be3565b8015611d2e5780601f10611d0357610100808354040283529160200191611d2e565b820191906000526020600020905b815481529060010190602001808311611d1157829003601f168201915b50505050508152602001600282018054611d4790614be3565b80601f0160208091040260200160405190810160405280929190818152602001828054611d7390614be3565b8015611dc05780601f10611d9557610100808354040283529160200191611dc0565b820191906000526020600020905b815481529060010190602001808311611da357829003601f168201915b50505050508152505081526020019060010190611bf1565b505050509050611e1e565b6040517f08c379a0000000000000000000000000000000000000000000000000000000008152600401611e1590615499565b60405180910390fd5b5b5b919050565b611e2d61372e565b600582604051611e3d9190614c50565b90815260200160405180910390206040518060e0016040529081600082018054611e6690614be3565b80601f0160208091040260200160405190810160405280929190818152602001828054611e9290614be3565b8015611edf5780601f10611eb457610100808354040283529160200191611edf565b820191906000526020600020905b815481529060010190602001808311611ec257829003601f168201915b505050505081526020016001820160009054906101000a900473ffffffffffffffffffffffffffffffffffffffff1673ffffffffffffffffffffffffffffffffffffffff1673ffffffffffffffffffffffffffffffffffffffff168152602001600282018054611f4e90614be3565b80601f0160208091040260200160405190810160405280929190818152602001828054611f7a90614be3565b8015611fc75780601f10611f9c57610100808354040283529160200191611fc7565b820191906000526020600020905b815481529060010190602001808311611faa57829003601f168201915b50505050508152602001600382018054611fe090614be3565b80601f016020809104026020016040519081016040528092919081815260200182805461200c90614be3565b80156120595780601f1061202e57610100808354040283529160200191612059565b820191906000526020600020905b81548152906001019060200180831161203c57829003601f168201915b5050505050815260200160048201548152602001600582015481526020016006820160009054906101000a900460ff16600381111561209b5761209a6139d5565b5b60038111156120ad576120ac6139d5565b5b815250509050919050565b816020015161217f6001826040516120d09190614c50565b908152602001604051809103902060010180546120ec90614be3565b80601f016020809104026020016040519081016040528092919081815260200182805461211890614be3565b80156121655780601f1061213a57610100808354040283529160200191612165565b820191906000526020600020905b81548152906001019060200180831161214857829003601f168201915b5050505050604051806020016040528060008152506136d5565b61218857600080fd5b3373ffffffffffffffffffffffffffffffffffffffff16836060015173ffffffffffffffffffffffffffffffffffffffff16146121fa576040517f08c379a00000000000000000000000000000000000000000000000000000000081526004016121f190614ed1565b60405180910390fd5b60008390806001815401808255809150506001900390600052602060002090600b0201600090919091909150600082015181600001908161223b919061509d565b506020820151816001019081612251919061509d565b506040820151816002019081612267919061509d565b5060608201518160030160006101000a81548173ffffffffffffffffffffffffffffffffffffffff021916908373ffffffffffffffffffffffffffffffffffffffff1602179055506080820151816004015560a0820151816005015560c0820151816006015560e08201518160070160006101000a81548160ff021916908360048111156122f8576122f76139d5565b5b0217905550610100820151816008019081612313919061509d565b5061012082015181600901908051906020019061233192919061389f565b5061014082015181600a01908051906020019061234f92919061389f565b50505082600184602001516040516123679190614c50565b9081526020016040518091039020600082015181600001908161238a919061509d565b5060208201518160010190816123a0919061509d565b5060408201518160020190816123b6919061509d565b5060608201518160030160006101000a81548173ffffffffffffffffffffffffffffffffffffffff021916908373ffffffffffffffffffffffffffffffffffffffff1602179055506080820151816004015560a0820151816005015560c0820151816006015560e08201518160070160006101000a81548160ff02191690836004811115612447576124466139d5565b5b0217905550610100820151816008019081612462919061509d565b5061012082015181600901908051906020019061248092919061389f565b5061014082015181600a01908051906020019061249e92919061389f565b5090505060405180604001604052803373ffffffffffffffffffffffffffffffffffffffff16815260200183815250600384602001516040516124e19190614c50565b908152602001604051809103902060000160008201518160000160006101000a81548173ffffffffffffffffffffffffffffffffffffffff021916908373ffffffffffffffffffffffffffffffffffffffff16021790555060208201518160010155905050600260003373ffffffffffffffffffffffffffffffffffffffff1673ffffffffffffffffffffffffffffffffffffffff16815260200190815260200160002083602001519080600181540180825580915050600190039060005260206000200160009091909190915090816125bb919061509d565b507fe8c37fe18c7329d1420a01ba778581fb07afa62e7bc27cd96c5b9666a3b8c767836000015184604001518560600151866101000151876020015188608001518960a0015160405161261497969594939291906154b9565b60405180910390a1505050565b60606000600260003373ffffffffffffffffffffffffffffffffffffffff1673ffffffffffffffffffffffffffffffffffffffff168152602001908152602001600020805480602002602001604051908101604052809291908181526020016000905b828210156127305783829060005260206000200180546126a390614be3565b80601f01602080910402602001604051908101604052809291908181526020018280546126cf90614be3565b801561271c5780601f106126f15761010080835404028352916020019161271c565b820191906000526020600020905b8154815290600101906020018083116126ff57829003601f168201915b505050505081526020019060010190612684565b5050505090506000815167ffffffffffffffff81111561275357612752613c5d565b5b60405190808252806020026020018201604052801561278c57816020015b6127796137e3565b8152602001906001900390816127715790505b50905060005b8251811015612cb95760018382815181106127b0576127af615544565b5b60200260200101516040516127c59190614c50565b9081526020016040518091039020604051806101600160405290816000820180546127ef90614be3565b80601f016020809104026020016040519081016040528092919081815260200182805461281b90614be3565b80156128685780601f1061283d57610100808354040283529160200191612868565b820191906000526020600020905b81548152906001019060200180831161284b57829003601f168201915b5050505050815260200160018201805461288190614be3565b80601f01602080910402602001604051908101604052809291908181526020018280546128ad90614be3565b80156128fa5780601f106128cf576101008083540402835291602001916128fa565b820191906000526020600020905b8154815290600101906020018083116128dd57829003601f168201915b5050505050815260200160028201805461291390614be3565b80601f016020809104026020016040519081016040528092919081815260200182805461293f90614be3565b801561298c5780601f106129615761010080835404028352916020019161298c565b820191906000526020600020905b81548152906001019060200180831161296f57829003601f168201915b505050505081526020016003820160009054906101000a900473ffffffffffffffffffffffffffffffffffffffff1673ffffffffffffffffffffffffffffffffffffffff1673ffffffffffffffffffffffffffffffffffffffff1681526020016004820154815260200160058201548152602001600682015481526020016007820160009054906101000a900460ff166004811115612a2e57612a2d6139d5565b5b6004811115612a4057612a3f6139d5565b5b8152602001600882018054612a5490614be3565b80601f0160208091040260200160405190810160405280929190818152602001828054612a8090614be3565b8015612acd5780601f10612aa257610100808354040283529160200191612acd565b820191906000526020600020905b815481529060010190602001808311612ab057829003601f168201915b5050505050815260200160098201805480602002602001604051908101604052809291908181526020016000905b82821015612ba7578382906000526020600020018054612b1a90614be3565b80601f0160208091040260200160405190810160405280929190818152602001828054612b4690614be3565b8015612b935780601f10612b6857610100808354040283529160200191612b93565b820191906000526020600020905b815481529060010190602001808311612b7657829003601f168201915b505050505081526020019060010190612afb565b505050508152602001600a8201805480602002602001604051908101604052809291908181526020016000905b82821015612c80578382906000526020600020018054612bf390614be3565b80601f0160208091040260200160405190810160405280929190818152602001828054612c1f90614be3565b8015612c6c5780601f10612c4157610100808354040283529160200191612c6c565b820191906000526020600020905b815481529060010190602001808311612c4f57829003601f168201915b505050505081526020019060010190612bd4565b5050505081525050828281518110612c9b57612c9a615544565b5b60200260200101819052508080612cb1906155a2565b915050612792565b50809250505090565b612cca613793565b600073ffffffffffffffffffffffffffffffffffffffff168273ffffffffffffffffffffffffffffffffffffffff1603612d0357600080fd5b600073ffffffffffffffffffffffffffffffffffffffff16612d248361348e565b6020015173ffffffffffffffffffffffffffffffffffffffff1603612d4857600080fd5b612d518261348e565b9050919050565b612d606137e3565b612d68613865565b600183604051612d789190614c50565b9081526020016040518091039020600384604051612d969190614c50565b90815260200160405180910390208160405180610160016040529081600082018054612dc190614be3565b80601f0160208091040260200160405190810160405280929190818152602001828054612ded90614be3565b8015612e3a5780601f10612e0f57610100808354040283529160200191612e3a565b820191906000526020600020905b815481529060010190602001808311612e1d57829003601f168201915b50505050508152602001600182018054612e5390614be3565b80601f0160208091040260200160405190810160405280929190818152602001828054612e7f90614be3565b8015612ecc5780601f10612ea157610100808354040283529160200191612ecc565b820191906000526020600020905b815481529060010190602001808311612eaf57829003601f168201915b50505050508152602001600282018054612ee590614be3565b80601f0160208091040260200160405190810160405280929190818152602001828054612f1190614be3565b8015612f5e5780601f10612f3357610100808354040283529160200191612f5e565b820191906000526020600020905b815481529060010190602001808311612f4157829003601f168201915b505050505081526020016003820160009054906101000a900473ffffffffffffffffffffffffffffffffffffffff1673ffffffffffffffffffffffffffffffffffffffff1673ffffffffffffffffffffffffffffffffffffffff1681526020016004820154815260200160058201548152602001600682015481526020016007820160009054906101000a900460ff16600481111561300057612fff6139d5565b5b6004811115613012576130116139d5565b5b815260200160088201805461302690614be3565b80601f016020809104026020016040519081016040528092919081815260200182805461305290614be3565b801561309f5780601f106130745761010080835404028352916020019161309f565b820191906000526020600020905b81548152906001019060200180831161308257829003601f168201915b5050505050815260200160098201805480602002602001604051908101604052809291908181526020016000905b828210156131795783829060005260206000200180546130ec90614be3565b80601f016020809104026020016040519081016040528092919081815260200182805461311890614be3565b80156131655780601f1061313a57610100808354040283529160200191613165565b820191906000526020600020905b81548152906001019060200180831161314857829003601f168201915b5050505050815260200190600101906130cd565b505050508152602001600a8201805480602002602001604051908101604052809291908181526020016000905b828210156132525783829060005260206000200180546131c590614be3565b80601f01602080910402602001604051908101604052809291908181526020018280546131f190614be3565b801561323e5780601f106132135761010080835404028352916020019161323e565b820191906000526020600020905b81548152906001019060200180831161322157829003601f168201915b5050505050815260200190600101906131a6565b5050505081525050915080604051806080016040529081600082016040518060400160405290816000820160009054906101000a900473ffffffffffffffffffffffffffffffffffffffff1673ffffffffffffffffffffffffffffffffffffffff1673ffffffffffffffffffffffffffffffffffffffff1681526020016001820154815250508152602001600282016040518060400160405290816000820160009054906101000a900473ffffffffffffffffffffffffffffffffffffffff1673ffffffffffffffffffffffffffffffffffffffff1673ffffffffffffffffffffffffffffffffffffffff1681526020016001820154815250508152602001600482016040518060400160405290816000820160009054906101000a900473ffffffffffffffffffffffffffffffffffffffff1673ffffffffffffffffffffffffffffffffffffffff1673ffffffffffffffffffffffffffffffffffffffff168152602001600182015481525050815260200160068201805480602002602001604051908101604052809291908181526020016000905b8282101561347b57838290600052602060002090600202016040518060400160405290816000820160009054906101000a900473ffffffffffffffffffffffffffffffffffffffff1673ffffffffffffffffffffffffffffffffffffffff1673ffffffffffffffffffffffffffffffffffffffff168152602001600182015481525050815260200190600101906133e9565b5050505081525050905091509150915091565b613496613793565b600073ffffffffffffffffffffffffffffffffffffffff168273ffffffffffffffffffffffffffffffffffffffff16036134cf57600080fd5b600660008373ffffffffffffffffffffffffffffffffffffffff1673ffffffffffffffffffffffffffffffffffffffff1681526020019081526020016000206040518060800160405290816000820160009054906101000a900460ff16600481111561353e5761353d6139d5565b5b60048111156135505761354f6139d5565b5b81526020016000820160019054906101000a900473ffffffffffffffffffffffffffffffffffffffff1673ffffffffffffffffffffffffffffffffffffffff1673ffffffffffffffffffffffffffffffffffffffff1681526020016001820180546135ba90614be3565b80601f01602080910402602001604051908101604052809291908181526020018280546135e690614be3565b80156136335780601f1061360857610100808354040283529160200191613633565b820191906000526020600020905b81548152906001019060200180831161361657829003601f168201915b5050505050815260200160028201805461364c90614be3565b80601f016020809104026020016040519081016040528092919081815260200182805461367890614be3565b80156136c55780601f1061369a576101008083540402835291602001916136c5565b820191906000526020600020905b8154815290600101906020018083116136a857829003601f168201915b5050505050815250509050919050565b6000816040516020016136e89190614c50565b604051602081830303815290604052805190602001208360405160200161370f9190614c50565b6040516020818303038152906040528051906020012014905092915050565b6040518060e0016040528060608152602001600073ffffffffffffffffffffffffffffffffffffffff168152602001606081526020016060815260200160008152602001600081526020016000600381111561378d5761378c6139d5565b5b81525090565b6040518060800160405280600060048111156137b2576137b16139d5565b5b8152602001600073ffffffffffffffffffffffffffffffffffffffff16815260200160608152602001606081525090565b604051806101600160405280606081526020016060815260200160608152602001600073ffffffffffffffffffffffffffffffffffffffff1681526020016000815260200160008152602001600081526020016000600481111561384a576138496139d5565b5b81526020016060815260200160608152602001606081525090565b60405180608001604052806138786138f8565b81526020016138856138f8565b81526020016138926138f8565b8152602001606081525090565b8280548282559060005260206000209081019282156138e7579160200282015b828111156138e65782518290816138d6919061509d565b50916020019190600101906138bf565b5b5090506138f49190613928565b5090565b6040518060400160405280600073ffffffffffffffffffffffffffffffffffffffff168152602001600081525090565b5b80821115613948576000818161393f919061394c565b50600101613929565b5090565b50805461395890614be3565b6000825580601f1061396a5750613989565b601f016020900490600052602060002090810190613988919061398c565b5b50565b5b808211156139a557600081600090555060010161398d565b5090565b600081519050919050565b600082825260208201905092915050565b6000819050602082019050919050565b7f4e487b7100000000000000000000000000000000000000000000000000000000600052602160045260246000fd5b60058110613a1557613a146139d5565b5b50565b6000819050613a2682613a04565b919050565b6000613a3682613a18565b9050919050565b613a4681613a2b565b82525050565b600073ffffffffffffffffffffffffffffffffffffffff82169050919050565b6000613a7782613a4c565b9050919050565b613a8781613a6c565b82525050565b600081519050919050565b600082825260208201905092915050565b60005b83811015613ac7578082015181840152602081019050613aac565b60008484015250505050565b6000601f19601f8301169050919050565b6000613aef82613a8d565b613af98185613a98565b9350613b09818560208601613aa9565b613b1281613ad3565b840191505092915050565b6000608083016000830151613b356000860182613a3d565b506020830151613b486020860182613a7e565b5060408301518482036040860152613b608282613ae4565b91505060608301518482036060860152613b7a8282613ae4565b9150508091505092915050565b6000613b938383613b1d565b905092915050565b6000602082019050919050565b6000613bb3826139a9565b613bbd81856139b4565b935083602082028501613bcf856139c5565b8060005b85811015613c0b5784840389528151613bec8582613b87565b9450613bf783613b9b565b925060208a01995050600181019050613bd3565b50829750879550505050505092915050565b60006020820190508181036000830152613c378184613ba8565b905092915050565b6000604051905090565b600080fd5b600080fd5b600080fd5b600080fd5b7f4e487b7100000000000000000000000000000000000000000000000000000000600052604160045260246000fd5b613c9582613ad3565b810181811067ffffffffffffffff82111715613cb457613cb3613c5d565b5b80604052505050565b6000613cc7613c3f565b9050613cd38282613c8c565b919050565b600067ffffffffffffffff821115613cf357613cf2613c5d565b5b613cfc82613ad3565b9050602081019050919050565b82818337600083830152505050565b6000613d2b613d2684613cd8565b613cbd565b905082815260208101848484011115613d4757613d46613c58565b5b613d52848285613d09565b509392505050565b600082601f830112613d6f57613d6e613c53565b5b8135613d7f848260208601613d18565b91505092915050565b600060208284031215613d9e57613d9d613c49565b5b600082013567ffffffffffffffff811115613dbc57613dbb613c4e565b5b613dc884828501613d5a565b91505092915050565b6000819050919050565b613de481613dd1565b82525050565b60048110613dfb57613dfa6139d5565b5b50565b6000819050613e0c82613dea565b919050565b6000613e1c82613dfe565b9050919050565b613e2c81613e11565b82525050565b600060e0830160008301518482036000860152613e4f8282613ae4565b9150506020830151613e646020860182613a7e565b5060408301518482036040860152613e7c8282613ae4565b91505060608301518482036060860152613e968282613ae4565b9150506080830151613eab6080860182613ddb565b5060a0830151613ebe60a0860182613ddb565b5060c0830151613ed160c0860182613e23565b508091505092915050565b60006020820190508181036000830152613ef68184613e32565b905092915050565b600082825260208201905092915050565b6000613f1a82613a8d565b613f248185613efe565b9350613f34818560208601613aa9565b613f3d81613ad3565b840191505092915050565b613f5181613a6c565b82525050565b613f6081613dd1565b82525050565b613f6f81613e11565b82525050565b600060e0820190508181036000830152613f8f818a613f0f565b9050613f9e6020830189613f48565b8181036040830152613fb08188613f0f565b90508181036060830152613fc48187613f0f565b9050613fd36080830186613f57565b613fe060a0830185613f57565b613fed60c0830184613f66565b98975050505050505050565b600081519050919050565b600082825260208201905092915050565b6000819050602082019050919050565b60058110614036576140356139d5565b5b50565b600081905061404782614025565b919050565b600061405782614039565b9050919050565b6140678161404c565b82525050565b600081519050919050565b600082825260208201905092915050565b6000819050602082019050919050565b60006140a58383613ae4565b905092915050565b6000602082019050919050565b60006140c58261406d565b6140cf8185614078565b9350836020820285016140e185614089565b8060005b8581101561411d57848403895281516140fe8582614099565b9450614109836140ad565b925060208a019950506001810190506140e5565b50829750879550505050505092915050565b600061016083016000830151848203600086015261414d8282613ae4565b915050602083015184820360208601526141678282613ae4565b915050604083015184820360408601526141818282613ae4565b91505060608301516141966060860182613a7e565b5060808301516141a96080860182613ddb565b5060a08301516141bc60a0860182613ddb565b5060c08301516141cf60c0860182613ddb565b5060e08301516141e260e086018261405e565b506101008301518482036101008601526141fc8282613ae4565b91505061012083015184820361012086015261421882826140ba565b91505061014083015184820361014086015261423482826140ba565b9150508091505092915050565b600061424d838361412f565b905092915050565b6000602082019050919050565b600061426d82613ff9565b6142778185614004565b93508360208202850161428985614015565b8060005b858110156142c557848403895281516142a68582614241565b94506142b183614255565b925060208a0199505060018101905061428d565b50829750879550505050505092915050565b600060208201905081810360008301526142f18184614262565b905092915050565b600080fd5b600080fd5b61430c81613a6c565b811461431757600080fd5b50565b60008135905061432981614303565b92915050565b61433881613dd1565b811461434357600080fd5b50565b6000813590506143558161432f565b92915050565b6005811061436857600080fd5b50565b60008135905061437a8161435b565b92915050565b600067ffffffffffffffff82111561439b5761439a613c5d565b5b602082029050602081019050919050565b600080fd5b60006143c46143bf84614380565b613cbd565b905080838252602082019050602084028301858111156143e7576143e66143ac565b5b835b8181101561442e57803567ffffffffffffffff81111561440c5761440b613c53565b5b8086016144198982613d5a565b855260208501945050506020810190506143e9565b5050509392505050565b600082601f83011261444d5761444c613c53565b5b813561445d8482602086016143b1565b91505092915050565b6000610160828403121561447d5761447c6142f9565b5b614488610160613cbd565b9050600082013567ffffffffffffffff8111156144a8576144a76142fe565b5b6144b484828501613d5a565b600083015250602082013567ffffffffffffffff8111156144d8576144d76142fe565b5b6144e484828501613d5a565b602083015250604082013567ffffffffffffffff811115614508576145076142fe565b5b61451484828501613d5a565b60408301525060606145288482850161431a565b606083015250608061453c84828501614346565b60808301525060a061455084828501614346565b60a08301525060c061456484828501614346565b60c08301525060e06145788482850161436b565b60e08301525061010082013567ffffffffffffffff81111561459d5761459c6142fe565b5b6145a984828501613d5a565b6101008301525061012082013567ffffffffffffffff8111156145cf576145ce6142fe565b5b6145db84828501614438565b6101208301525061014082013567ffffffffffffffff811115614601576146006142fe565b5b61460d84828501614438565b6101408301525092915050565b6000806040838503121561463157614630613c49565b5b600083013567ffffffffffffffff81111561464f5761464e613c4e565b5b61465b85828601614466565b925050602061466c85828601614346565b9150509250929050565b6004811061468357600080fd5b50565b60008135905061469581614676565b92915050565b600060e082840312156146b1576146b06142f9565b5b6146bb60e0613cbd565b9050600082013567ffffffffffffffff8111156146db576146da6142fe565b5b6146e784828501613d5a565b60008301525060206146fb8482850161431a565b602083015250604082013567ffffffffffffffff81111561471f5761471e6142fe565b5b61472b84828501613d5a565b604083015250606082013567ffffffffffffffff81111561474f5761474e6142fe565b5b61475b84828501613d5a565b606083015250608061476f84828501614346565b60808301525060a061478384828501614346565b60a08301525060c061479784828501614686565b60c08301525092915050565b600080604083850312156147ba576147b9613c49565b5b600083013567ffffffffffffffff8111156147d8576147d7613c4e565b5b6147e48582860161469b565b92505060206147f585828601614346565b9150509250929050565b6000806000806080858703121561481957614818613c49565b5b600085013567ffffffffffffffff81111561483757614836613c4e565b5b61484387828801613d5a565b945050602085013567ffffffffffffffff81111561486457614863613c4e565b5b61487087828801613d5a565b935050604061488187828801614346565b925050606061489287828801614346565b91505092959194509250565b60006080830160008301516148b66000860182613a3d565b5060208301516148c96020860182613a7e565b50604083015184820360408601526148e18282613ae4565b915050606083015184820360608601526148fb8282613ae4565b9150508091505092915050565b60006020820190508181036000830152614922818461489e565b905092915050565b60006101608301600083015184820360008601526149488282613ae4565b915050602083015184820360208601526149628282613ae4565b9150506040830151848203604086015261497c8282613ae4565b91505060608301516149916060860182613a7e565b5060808301516149a46080860182613ddb565b5060a08301516149b760a0860182613ddb565b5060c08301516149ca60c0860182613ddb565b5060e08301516149dd60e086018261405e565b506101008301518482036101008601526149f78282613ae4565b915050610120830151848203610120860152614a1382826140ba565b915050610140830151848203610140860152614a2f82826140ba565b9150508091505092915050565b604082016000820151614a526000850182613a7e565b506020820151614a656020850182613ddb565b50505050565b600081519050919050565b600082825260208201905092915050565b6000819050602082019050919050565b6000614aa38383614a3c565b60408301905092915050565b6000602082019050919050565b6000614ac782614a6b565b614ad18185614a76565b9350614adc83614a87565b8060005b83811015614b0d578151614af48882614a97565b9750614aff83614aaf565b925050600181019050614ae0565b5085935050505092915050565b600060e083016000830151614b326000860182614a3c565b506020830151614b456040860182614a3c565b506040830151614b586080860182614a3c565b50606083015184820360c0860152614b708282614abc565b9150508091505092915050565b60006040820190508181036000830152614b97818561492a565b90508181036020830152614bab8184614b1a565b90509392505050565b7f4e487b7100000000000000000000000000000000000000000000000000000000600052602260045260246000fd5b60006002820490506001821680614bfb57607f821691505b602082108103614c0e57614c0d614bb4565b5b50919050565b600081905092915050565b6000614c2a82613a8d565b614c348185614c14565b9350614c44818560208601613aa9565b80840191505092915050565b6000614c5c8284614c1f565b915081905092915050565b7f4f6e6c7920637573746f6d65724e616d652063616e206469737472696275746560008201527f206f726465720000000000000000000000000000000000000000000000000000602082015250565b6000614cc3602683613efe565b9150614cce82614c67565b604082019050919050565b60006020820190508181036000830152614cf281614cb6565b9050919050565b7f4f72646572206d75737420626520696e2047656e65726174656420737461747560008201527f7300000000000000000000000000000000000000000000000000000000000000602082015250565b6000614d55602183613efe565b9150614d6082614cf9565b604082019050919050565b60006020820190508181036000830152614d8481614d48565b9050919050565b60006020820190508181036000830152614da58184613f0f565b905092915050565b7f53656e6465722773206164647265737320697320456d70747900000000000000600082015250565b6000614de3601983613efe565b9150614dee82614dad565b602082019050919050565b60006020820190508181036000830152614e1281614dd6565b9050919050565b7f436c69656e742773206164647265737320697320456d70747900000000000000600082015250565b6000614e4f601983613efe565b9150614e5a82614e19565b602082019050919050565b60006020820190508181036000830152614e7e81614e42565b9050919050565b7f4f6e6c79206d616e7566616374757265722063616e2061646400000000000000600082015250565b6000614ebb601983613efe565b9150614ec682614e85565b602082019050919050565b60006020820190508181036000830152614eea81614eae565b9050919050565b60008190508160005260206000209050919050565b60006020601f8301049050919050565b600082821b905092915050565b600060088302614f537fffffffffffffffffffffffffffffffffffffffffffffffffffffffffffffffff82614f16565b614f5d8683614f16565b95508019841693508086168417925050509392505050565b6000819050919050565b6000614f9a614f95614f9084613dd1565b614f75565b613dd1565b9050919050565b6000819050919050565b614fb483614f7f565b614fc8614fc082614fa1565b848454614f23565b825550505050565b600090565b614fdd614fd0565b614fe8818484614fab565b505050565b5b8181101561500c57615001600082614fd5565b600181019050614fee565b5050565b601f8211156150515761502281614ef1565b61502b84614f06565b8101602085101561503a578190505b61504e61504685614f06565b830182614fed565b50505b505050565b600082821c905092915050565b600061507460001984600802615056565b1980831691505092915050565b600061508d8383615063565b9150826002028217905092915050565b6150a682613a8d565b67ffffffffffffffff8111156150bf576150be613c5d565b5b6150c98254614be3565b6150d4828285615010565b600060209050601f83116001811461510757600084156150f5578287015190505b6150ff8582615081565b865550615167565b601f19841661511586614ef1565b60005b8281101561513d57848901518255600182019150602085019450602081019050615118565b8683101561515a5784890151615156601f891682615063565b8355505b6001600288020188555050505b505050505050565b600060c08201905081810360008301526151898189613f0f565b90506151986020830188613f48565b81810360408301526151aa8187613f0f565b905081810360608301526151be8186613f0f565b90506151cd6080830185613f57565b6151da60a0830184613f57565b979650505050505050565b7f4f6e6c7920637573746f6d65724e616d652063616e2073656c6c206f72646572600082015250565b600061521b602083613efe565b9150615226826151e5565b602082019050919050565b6000602082019050818103600083015261524a8161520e565b9050919050565b7f4f72646572206d75737420626520696e205472616e736665727265642073746160008201527f7475730000000000000000000000000000000000000000000000000000000000602082015250565b60006152ad602383613efe565b91506152b882615251565b604082019050919050565b600060208201905081810360008301526152dc816152a0565b9050919050565b7f4f6e6c7920637573746f6d65722063616e2067656e6572617465206f72646572600082015250565b6000615319602083613efe565b9150615324826152e3565b602082019050919050565b600060208201905081810360008301526153488161530c565b9050919050565b7f4f72646572206d75737420626520696e2050757263686173656420737461747560008201527f7300000000000000000000000000000000000000000000000000000000000000602082015250565b60006153ab602183613efe565b91506153b68261534f565b604082019050919050565b600060208201905081810360008301526153da8161539e565b9050919050565b7f496420697320656d707479000000000000000000000000000000000000000000600082015250565b6000615417600b83613efe565b9150615422826153e1565b602082019050919050565b600060208201905081810360008301526154468161540a565b9050919050565b7f4e6f742076616c6964206f7065726174696f6e00000000000000000000000000600082015250565b6000615483601383613efe565b915061548e8261544d565b602082019050919050565b600060208201905081810360008301526154b281615476565b9050919050565b600060e08201905081810360008301526154d3818a613f0f565b905081810360208301526154e78189613f0f565b90506154f66040830188613f48565b81810360608301526155088187613f0f565b9050818103608083015261551c8186613f0f565b905061552b60a0830185613f57565b61553860c0830184613f57565b98975050505050505050565b7f4e487b7100000000000000000000000000000000000000000000000000000000600052603260045260246000fd5b7f4e487b7100000000000000000000000000000000000000000000000000000000600052601160045260246000fd5b60006155ad82613dd1565b91507fffffffffffffffffffffffffffffffffffffffffffffffffffffffffffffffff82036155df576155de615573565b5b60018201905091905056fea2646970667358221220fc2b911e730725629e0fb289d968d7a45af15c520cc43ad127dbc9affd66717064736f6c63430008130033",
  "immutableReferences": {},
  "source": "// SPDX-License-Identifier: GPL-3.0\npragma experimental ABIEncoderV2;\npragma solidity >=0.4.25 <0.9.0;\n\nimport \"./ProductRSCF.sol\";\nimport \"./OrderRSCF.sol\";\nimport \"./ClientRSCF.sol\";\n\n/**\n * @title SupplyChainRSCF\n * @dev Implements the details of the goods in retail supply chain finance\n */\ncontract SupplyChainRSCF10 is ProductRSCF,OrderRSCF,ClientRSCF {\n    /**\n     * @dev Create a new SupplyChain with the provided 'manufacturer'\n     * @param name_ Name of the manufacturer\n     * @param email_ Email of the manufacturer\n     */\n    constructor(string memory name_, string memory email_) {\n        TypeRSCF.ClientDetails memory mn_ = TypeRSCF.ClientDetails({\n            role: TypeRSCF.ClientRole.Manufacturer,\n            id_: msg.sender,\n            name: name_,\n            email: email_\n        });\n        add(mn_);\n    }\n\n    /**\n     * @dev List all the goods.\n     * @return goodRSCFsList All the goods\n     */\n    function getAllGoodRSCFs() public view returns (TypeRSCF.GoodRSCF[] memory) {\n        return goodRSCFs;\n    }\n\n    /**\n     * @dev Gain all the goods of client\n     * @return goodRSCFsList All the goods of logged-in client\n     */\n    function getSomeGoodRSCFs() public view returns (TypeRSCF.GoodRSCF[] memory) {\n        return getClientGoodRSCFs();\n    }\n\n    /**\n     * @dev Get one good by good ID\n     * @param goodRSCFId_ Unique good ID \n     * @return goodRSCF_ Details of the good & it's history\n     * @return history_ good lifecycle\n     */\n    function getSingleGoodRSCF(string memory goodRSCFId_)\n        public\n        view\n        returns (TypeRSCF.GoodRSCF memory, TypeRSCF.GoodRSCFHistory memory)\n    {\n        return getSpecificGoodRSCF(goodRSCFId_);\n    }\n\n    /**\n     * @dev Adds new good\n     * @param goodRSCF_ unique good ID\n     * @param currentTime_ Current Date, Time in epoch (when add)\n     */\n    function addGoodRSCF(TypeRSCF.GoodRSCF memory goodRSCF_, uint256 currentTime_)\n        public\n        onlyManufacturer\n    {\n        addAGoodRSCF(goodRSCF_, currentTime_);\n    }\n\n        /**\n     * @dev Get one order by order ID\n     * @param orderRSCFId_ Unique order ID \n     * @return orderRSCF_ Details of the order\n     */\n    function getSingleOrderRSCF(string memory orderRSCFId_)\n        public\n        view\n        returns (TypeRSCF.OrderRSCF memory)\n    {\n        return getSpecificOrderRSCF(orderRSCFId_);\n    }\n\n    /**\n     * @dev Adds new order\n     */\n    function addOrderRSCF(string memory orderId_, string memory productName_, uint256 quantity_, uint256 price_)\n        public\n    {\n        // addOrder(orderId_, productName_, quantity_, price_);\n    }\n\n    /**\n     * @dev Transfer the ownership\n     * @param partyId_ buyer account address\n     * @param goodRSCFId_ unique good ID \n     * @param currentTime_ Current Date Time in epoch to track \n     */\n    // function sellGoodRSCF(\n    //     address partyId_,\n    //     string memory goodRSCFId_,\n    //     uint256 currentTime_\n    // ) public {\n    //     require(isPartyExists(partyId_), \"Client not found\");\n    //     TypeRSCF.ClientDetails memory party_ = clients[partyId_];\n    //     sell(partyId_, goodRSCFId_, party_, currentTime_);\n    // }\n\n    // /**\n    //  * @dev To add an client for selling\n    //  * @param client_ Details of the client\n    //  */\n    // function addParty(TypeRSCF.ClientDetails memory client_) public {\n    //     // addparty(client_, msg.sender);\n    // }\n\n    /**\n     * @dev To get details of the client\n     * @param id_ Client Id \n     * @return client_ Details of the current logged-in Client\n     */\n    // function getClientDetails(address id_)\n    //     public\n    //     view\n    //     returns (TypeRSCF.ClientDetails memory)\n    // {\n    //     return getPartyDetails(id_);\n    // }\n\n    /**\n     * @dev Gain details of the  logged-in client\n     * @return client_ Details of the logged-in Client\n     */\n    function getSomeDetails() public view returns (TypeRSCF.ClientDetails memory) {\n        return getPartyDetails(msg.sender);\n    }\n\n    /**\n     * @dev  List of clients added by the logged-in client\n     * @return clientsList_ List of ClientDetail\n     */\n    function getSomeClientsList()\n        public\n        view\n        returns (TypeRSCF.ClientDetails[] memory clientsList_)\n    {\n        return getSomePartyList(msg.sender);\n    }\n}\n",
  "sourcePath": "D:\\SupplyChainDev\\trufflerscf\\contracts\\SupplyChainRSCF1.0.sol",
  "compiler": {
    "name": "solc",
    "version": "0.8.19+commit.7dd6d404.Emscripten.clang"
  },
  "schemaVersion": "3.4.16",
  "updatedAt": "2024-05-20T22:38:43.932Z",
  "devdoc": {
    "details": "Implements the details of the goods in retail supply chain finance",
    "kind": "dev",
    "methods": {
      "addGoodRSCF((string,string,string,address,uint256,uint256,uint256,uint8,string,string[],string[]),uint256)": {
        "details": "Adds new good",
        "params": {
          "currentTime_": "Current Date, Time in epoch (when add)",
          "goodRSCF_": "unique good ID"
        }
      },
      "addOrder((string,address,string,string,uint256,uint256,uint8),uint256)": {
        "details": "Adds new order",
        "params": {
          "currentTime_": "Current Date, Time in epoch (when added)",
          "orderRSCF_": "unique order ID  "
        }
      },
      "addOrderRSCF(string,string,uint256,uint256)": {
        "details": "Adds new order"
      },
      "constructor": {
        "details": "Create a new SupplyChain with the provided 'manufacturer'",
        "params": {
          "email_": "Email of the manufacturer",
          "name_": "Name of the manufacturer"
        }
      },
      "getAllGoodRSCFs()": {
        "details": "List all the goods.",
        "returns": {
          "_0": "goodRSCFsList All the goods"
        }
      },
      "getSingleGoodRSCF(string)": {
        "details": "Get one good by good ID",
        "params": {
          "goodRSCFId_": "Unique good ID "
        },
        "returns": {
          "_0": "goodRSCF_ Details of the good & it's history",
          "_1": "history_ good lifecycle"
        }
      },
      "getSingleOrderRSCF(string)": {
        "details": "Get one order by order ID",
        "params": {
          "orderRSCFId_": "Unique order ID "
        },
        "returns": {
          "_0": "orderRSCF_ Details of the order"
        }
      },
      "getSomeClientsList()": {
        "details": "List of clients added by the logged-in client",
        "returns": {
          "clientsList_": "List of ClientDetail"
        }
      },
      "getSomeDetails()": {
        "details": "Gain details of the  logged-in client",
        "returns": {
          "_0": "client_ Details of the logged-in Client"
        }
      },
      "getSomeGoodRSCFs()": {
        "details": "Gain all the goods of client",
        "returns": {
          "_0": "goodRSCFsList All the goods of logged-in client"
        }
      }
    },
    "title": "SupplyChainRSCF",
    "version": 1
  },
  "userdoc": {
    "kind": "user",
    "methods": {},
    "version": 1
  }
}