{
  "contractName": "SupplyChainRSCF",
  "abi": [
    {
      "inputs": [
        {
          "internalType": "string",
          "name": "name_",
          "type": "string"
        },
        {
          "internalType": "string",
          "name": "email_",
          "type": "string"
        }
      ],
      "stateMutability": "nonpayable",
      "type": "constructor"
    },
    {
      "anonymous": false,
      "inputs": [
        {
          "indexed": false,
          "internalType": "string",
          "name": "goodRSCFName",
          "type": "string"
        },
        {
          "indexed": false,
          "internalType": "string",
          "name": "manufacturerName",
          "type": "string"
        },
        {
          "indexed": false,
          "internalType": "string",
          "name": "categoryName",
          "type": "string"
        },
        {
          "indexed": false,
          "internalType": "string",
          "name": "goodRSCFId",
          "type": "string"
        },
        {
          "indexed": false,
          "internalType": "string",
          "name": "buyerName",
          "type": "string"
        },
        {
          "indexed": false,
          "internalType": "string",
          "name": "buyerEmail",
          "type": "string"
        }
      ],
      "name": "GoodRSCFOwnershipTransfer",
      "type": "event"
    },
    {
      "anonymous": false,
      "inputs": [
        {
          "indexed": false,
          "internalType": "string",
          "name": "name",
          "type": "string"
        },
        {
          "indexed": false,
          "internalType": "string",
          "name": "email",
          "type": "string"
        },
        {
          "indexed": false,
          "internalType": "enum TypeRSCF.ClientRole",
          "name": "role",
          "type": "uint8"
        }
      ],
      "name": "LostClient",
      "type": "event"
    },
    {
      "anonymous": false,
      "inputs": [
        {
          "indexed": false,
          "internalType": "string",
          "name": "name",
          "type": "string"
        },
        {
          "indexed": false,
          "internalType": "string",
          "name": "email",
          "type": "string"
        },
        {
          "indexed": false,
          "internalType": "enum TypeRSCF.ClientRole",
          "name": "role",
          "type": "uint8"
        }
      ],
      "name": "NewClient",
      "type": "event"
    },
    {
      "anonymous": false,
      "inputs": [
        {
          "indexed": false,
          "internalType": "string",
          "name": "goodRSCFName",
          "type": "string"
        },
        {
          "indexed": false,
          "internalType": "string",
          "name": "manufacturerName",
          "type": "string"
        },
        {
          "indexed": false,
          "internalType": "address",
          "name": "manufacturer",
          "type": "address"
        },
        {
          "indexed": false,
          "internalType": "string",
          "name": "categoryName",
          "type": "string"
        },
        {
          "indexed": false,
          "internalType": "string",
          "name": "goodRSCFId",
          "type": "string"
        },
        {
          "indexed": false,
          "internalType": "uint256",
          "name": "manDateEpoch",
          "type": "uint256"
        },
        {
          "indexed": false,
          "internalType": "uint256",
          "name": "expDateEpoch",
          "type": "uint256"
        }
      ],
      "name": "NewGoodRSCF",
      "type": "event"
    },
    {
      "anonymous": false,
      "inputs": [
        {
          "indexed": false,
          "internalType": "string",
          "name": "documentId",
          "type": "string"
        },
        {
          "indexed": false,
          "internalType": "string",
          "name": "hashcodeIPFS",
          "type": "string"
        },
        {
          "indexed": false,
          "internalType": "string",
          "name": "fileName",
          "type": "string"
        },
        {
          "indexed": false,
          "internalType": "string",
          "name": "filePath",
          "type": "string"
        }
      ],
      "name": "NewHashCodeRSCF",
      "type": "event"
    },
    {
      "anonymous": false,
      "inputs": [
        {
          "indexed": false,
          "internalType": "string",
          "name": "orderId",
          "type": "string"
        }
      ],
      "name": "OrderCompleted",
      "type": "event"
    },
    {
      "anonymous": false,
      "inputs": [
        {
          "indexed": false,
          "internalType": "string",
          "name": "orderId",
          "type": "string"
        }
      ],
      "name": "OrderGenerated",
      "type": "event"
    },
    {
      "anonymous": false,
      "inputs": [
        {
          "indexed": false,
          "internalType": "string",
          "name": "orderId",
          "type": "string"
        },
        {
          "indexed": false,
          "internalType": "address",
          "name": "customerName",
          "type": "address"
        },
        {
          "indexed": false,
          "internalType": "string",
          "name": "productId",
          "type": "string"
        },
        {
          "indexed": false,
          "internalType": "string",
          "name": "productName",
          "type": "string"
        },
        {
          "indexed": false,
          "internalType": "uint256",
          "name": "quantity",
          "type": "uint256"
        },
        {
          "indexed": false,
          "internalType": "uint256",
          "name": "price",
          "type": "uint256"
        }
      ],
      "name": "OrderPurchased",
      "type": "event"
    },
    {
      "anonymous": false,
      "inputs": [
        {
          "indexed": false,
          "internalType": "string",
          "name": "orderId",
          "type": "string"
        }
      ],
      "name": "OrderTransferred",
      "type": "event"
    },
    {
      "inputs": [
        {
          "components": [
            {
              "internalType": "string",
              "name": "documentId",
              "type": "string"
            },
            {
              "internalType": "string",
              "name": "hashcodeIPFS",
              "type": "string"
            },
            {
              "internalType": "string",
              "name": "fileName",
              "type": "string"
            },
            {
              "internalType": "string",
              "name": "filePath",
              "type": "string"
            }
          ],
          "internalType": "struct IPFSHashRSCF.HashRSCF",
          "name": "hashRSCF_",
          "type": "tuple"
        }
      ],
      "name": "addFileHashCode",
      "outputs": [],
      "stateMutability": "nonpayable",
      "type": "function"
    },
    {
      "inputs": [
        {
          "components": [
            {
              "internalType": "string",
              "name": "orderId",
              "type": "string"
            },
            {
              "internalType": "address",
              "name": "customerName",
              "type": "address"
            },
            {
              "internalType": "string",
              "name": "productId",
              "type": "string"
            },
            {
              "internalType": "string",
              "name": "productName",
              "type": "string"
            },
            {
              "internalType": "uint256",
              "name": "quantity",
              "type": "uint256"
            },
            {
              "internalType": "uint256",
              "name": "price",
              "type": "uint256"
            },
            {
              "internalType": "enum TypeRSCF.OrderStatus",
              "name": "orderStatus",
              "type": "uint8"
            }
          ],
          "internalType": "struct TypeRSCF.OrderRSCF",
          "name": "orderRSCF_",
          "type": "tuple"
        },
        {
          "internalType": "uint256",
          "name": "currentTime_",
          "type": "uint256"
        }
      ],
      "name": "addOrder",
      "outputs": [],
      "stateMutability": "nonpayable",
      "type": "function"
    },
    {
      "inputs": [
        {
          "internalType": "string",
          "name": "orderId",
          "type": "string"
        }
      ],
      "name": "completeOrder",
      "outputs": [],
      "stateMutability": "nonpayable",
      "type": "function"
    },
    {
      "inputs": [
        {
          "internalType": "string",
          "name": "orderId",
          "type": "string"
        }
      ],
      "name": "generateOrder",
      "outputs": [],
      "stateMutability": "nonpayable",
      "type": "function"
    },
    {
      "inputs": [
        {
          "internalType": "string",
          "name": "",
          "type": "string"
        }
      ],
      "name": "hashRSCFs",
      "outputs": [
        {
          "internalType": "string",
          "name": "documentId",
          "type": "string"
        },
        {
          "internalType": "string",
          "name": "hashcodeIPFS",
          "type": "string"
        },
        {
          "internalType": "string",
          "name": "fileName",
          "type": "string"
        },
        {
          "internalType": "string",
          "name": "filePath",
          "type": "string"
        }
      ],
      "stateMutability": "view",
      "type": "function",
      "constant": true
    },
    {
      "inputs": [
        {
          "internalType": "string",
          "name": "",
          "type": "string"
        }
      ],
      "name": "orders",
      "outputs": [
        {
          "internalType": "string",
          "name": "orderId",
          "type": "string"
        },
        {
          "internalType": "address",
          "name": "customerName",
          "type": "address"
        },
        {
          "internalType": "string",
          "name": "productId",
          "type": "string"
        },
        {
          "internalType": "string",
          "name": "productName",
          "type": "string"
        },
        {
          "internalType": "uint256",
          "name": "quantity",
          "type": "uint256"
        },
        {
          "internalType": "uint256",
          "name": "price",
          "type": "uint256"
        },
        {
          "internalType": "enum TypeRSCF.OrderStatus",
          "name": "orderStatus",
          "type": "uint8"
        }
      ],
      "stateMutability": "view",
      "type": "function",
      "constant": true
    },
    {
      "inputs": [
        {
          "internalType": "string",
          "name": "orderId",
          "type": "string"
        }
      ],
      "name": "transferOrder",
      "outputs": [],
      "stateMutability": "nonpayable",
      "type": "function"
    },
    {
      "inputs": [],
      "name": "getAllGoodRSCFs",
      "outputs": [
        {
          "components": [
            {
              "internalType": "string",
              "name": "goodRSCFName",
              "type": "string"
            },
            {
              "internalType": "string",
              "name": "goodRSCFId",
              "type": "string"
            },
            {
              "internalType": "string",
              "name": "manufacturerName",
              "type": "string"
            },
            {
              "internalType": "address",
              "name": "manufacturer",
              "type": "address"
            },
            {
              "internalType": "uint256",
              "name": "manDateEpoch",
              "type": "uint256"
            },
            {
              "internalType": "uint256",
              "name": "expDateEpoch",
              "type": "uint256"
            },
            {
              "internalType": "uint256",
              "name": "batchCount",
              "type": "uint256"
            },
            {
              "internalType": "enum TypeRSCF.GoodRSCFType",
              "name": "goodRSCFType",
              "type": "uint8"
            },
            {
              "internalType": "string",
              "name": "categoryName",
              "type": "string"
            },
            {
              "internalType": "string[]",
              "name": "composition",
              "type": "string[]"
            },
            {
              "internalType": "string[]",
              "name": "sideEffects",
              "type": "string[]"
            }
          ],
          "internalType": "struct TypeRSCF.GoodRSCF[]",
          "name": "",
          "type": "tuple[]"
        }
      ],
      "stateMutability": "view",
      "type": "function",
      "constant": true
    },
    {
      "inputs": [],
      "name": "getSomeGoodRSCFs",
      "outputs": [
        {
          "components": [
            {
              "internalType": "string",
              "name": "goodRSCFName",
              "type": "string"
            },
            {
              "internalType": "string",
              "name": "goodRSCFId",
              "type": "string"
            },
            {
              "internalType": "string",
              "name": "manufacturerName",
              "type": "string"
            },
            {
              "internalType": "address",
              "name": "manufacturer",
              "type": "address"
            },
            {
              "internalType": "uint256",
              "name": "manDateEpoch",
              "type": "uint256"
            },
            {
              "internalType": "uint256",
              "name": "expDateEpoch",
              "type": "uint256"
            },
            {
              "internalType": "uint256",
              "name": "batchCount",
              "type": "uint256"
            },
            {
              "internalType": "enum TypeRSCF.GoodRSCFType",
              "name": "goodRSCFType",
              "type": "uint8"
            },
            {
              "internalType": "string",
              "name": "categoryName",
              "type": "string"
            },
            {
              "internalType": "string[]",
              "name": "composition",
              "type": "string[]"
            },
            {
              "internalType": "string[]",
              "name": "sideEffects",
              "type": "string[]"
            }
          ],
          "internalType": "struct TypeRSCF.GoodRSCF[]",
          "name": "",
          "type": "tuple[]"
        }
      ],
      "stateMutability": "view",
      "type": "function",
      "constant": true
    },
    {
      "inputs": [
        {
          "internalType": "string",
          "name": "goodRSCFId_",
          "type": "string"
        }
      ],
      "name": "getSingleGoodRSCF",
      "outputs": [
        {
          "components": [
            {
              "internalType": "string",
              "name": "goodRSCFName",
              "type": "string"
            },
            {
              "internalType": "string",
              "name": "goodRSCFId",
              "type": "string"
            },
            {
              "internalType": "string",
              "name": "manufacturerName",
              "type": "string"
            },
            {
              "internalType": "address",
              "name": "manufacturer",
              "type": "address"
            },
            {
              "internalType": "uint256",
              "name": "manDateEpoch",
              "type": "uint256"
            },
            {
              "internalType": "uint256",
              "name": "expDateEpoch",
              "type": "uint256"
            },
            {
              "internalType": "uint256",
              "name": "batchCount",
              "type": "uint256"
            },
            {
              "internalType": "enum TypeRSCF.GoodRSCFType",
              "name": "goodRSCFType",
              "type": "uint8"
            },
            {
              "internalType": "string",
              "name": "categoryName",
              "type": "string"
            },
            {
              "internalType": "string[]",
              "name": "composition",
              "type": "string[]"
            },
            {
              "internalType": "string[]",
              "name": "sideEffects",
              "type": "string[]"
            }
          ],
          "internalType": "struct TypeRSCF.GoodRSCF",
          "name": "",
          "type": "tuple"
        },
        {
          "components": [
            {
              "components": [
                {
                  "internalType": "address",
                  "name": "clientId",
                  "type": "address"
                },
                {
                  "internalType": "uint256",
                  "name": "date",
                  "type": "uint256"
                }
              ],
              "internalType": "struct TypeRSCF.ClientHistory",
              "name": "manufacturer",
              "type": "tuple"
            },
            {
              "components": [
                {
                  "internalType": "address",
                  "name": "clientId",
                  "type": "address"
                },
                {
                  "internalType": "uint256",
                  "name": "date",
                  "type": "uint256"
                }
              ],
              "internalType": "struct TypeRSCF.ClientHistory",
              "name": "supplier",
              "type": "tuple"
            },
            {
              "components": [
                {
                  "internalType": "address",
                  "name": "clientId",
                  "type": "address"
                },
                {
                  "internalType": "uint256",
                  "name": "date",
                  "type": "uint256"
                }
              ],
              "internalType": "struct TypeRSCF.ClientHistory",
              "name": "retailer",
              "type": "tuple"
            },
            {
              "components": [
                {
                  "internalType": "address",
                  "name": "clientId",
                  "type": "address"
                },
                {
                  "internalType": "uint256",
                  "name": "date",
                  "type": "uint256"
                }
              ],
              "internalType": "struct TypeRSCF.ClientHistory[]",
              "name": "customers",
              "type": "tuple[]"
            }
          ],
          "internalType": "struct TypeRSCF.GoodRSCFHistory",
          "name": "",
          "type": "tuple"
        }
      ],
      "stateMutability": "view",
      "type": "function",
      "constant": true
    },
    {
      "inputs": [
        {
          "components": [
            {
              "internalType": "string",
              "name": "goodRSCFName",
              "type": "string"
            },
            {
              "internalType": "string",
              "name": "goodRSCFId",
              "type": "string"
            },
            {
              "internalType": "string",
              "name": "manufacturerName",
              "type": "string"
            },
            {
              "internalType": "address",
              "name": "manufacturer",
              "type": "address"
            },
            {
              "internalType": "uint256",
              "name": "manDateEpoch",
              "type": "uint256"
            },
            {
              "internalType": "uint256",
              "name": "expDateEpoch",
              "type": "uint256"
            },
            {
              "internalType": "uint256",
              "name": "batchCount",
              "type": "uint256"
            },
            {
              "internalType": "enum TypeRSCF.GoodRSCFType",
              "name": "goodRSCFType",
              "type": "uint8"
            },
            {
              "internalType": "string",
              "name": "categoryName",
              "type": "string"
            },
            {
              "internalType": "string[]",
              "name": "composition",
              "type": "string[]"
            },
            {
              "internalType": "string[]",
              "name": "sideEffects",
              "type": "string[]"
            }
          ],
          "internalType": "struct TypeRSCF.GoodRSCF",
          "name": "goodRSCF_",
          "type": "tuple"
        },
        {
          "internalType": "uint256",
          "name": "currentTime_",
          "type": "uint256"
        }
      ],
      "name": "addGoodRSCF",
      "outputs": [],
      "stateMutability": "nonpayable",
      "type": "function"
    },
    {
      "inputs": [
        {
          "internalType": "string",
          "name": "orderRSCFId_",
          "type": "string"
        }
      ],
      "name": "getSingleOrderRSCF",
      "outputs": [
        {
          "components": [
            {
              "internalType": "string",
              "name": "orderId",
              "type": "string"
            },
            {
              "internalType": "address",
              "name": "customerName",
              "type": "address"
            },
            {
              "internalType": "string",
              "name": "productId",
              "type": "string"
            },
            {
              "internalType": "string",
              "name": "productName",
              "type": "string"
            },
            {
              "internalType": "uint256",
              "name": "quantity",
              "type": "uint256"
            },
            {
              "internalType": "uint256",
              "name": "price",
              "type": "uint256"
            },
            {
              "internalType": "enum TypeRSCF.OrderStatus",
              "name": "orderStatus",
              "type": "uint8"
            }
          ],
          "internalType": "struct TypeRSCF.OrderRSCF",
          "name": "",
          "type": "tuple"
        }
      ],
      "stateMutability": "view",
      "type": "function",
      "constant": true
    },
    {
      "inputs": [
        {
          "components": [
            {
              "internalType": "string",
              "name": "orderId",
              "type": "string"
            },
            {
              "internalType": "address",
              "name": "customerName",
              "type": "address"
            },
            {
              "internalType": "string",
              "name": "productId",
              "type": "string"
            },
            {
              "internalType": "string",
              "name": "productName",
              "type": "string"
            },
            {
              "internalType": "uint256",
              "name": "quantity",
              "type": "uint256"
            },
            {
              "internalType": "uint256",
              "name": "price",
              "type": "uint256"
            },
            {
              "internalType": "enum TypeRSCF.OrderStatus",
              "name": "orderStatus",
              "type": "uint8"
            }
          ],
          "internalType": "struct TypeRSCF.OrderRSCF",
          "name": "orderRSCF_",
          "type": "tuple"
        },
        {
          "internalType": "uint256",
          "name": "currentTime_",
          "type": "uint256"
        }
      ],
      "name": "addOrderRSCF",
      "outputs": [],
      "stateMutability": "nonpayable",
      "type": "function"
    },
    {
      "inputs": [],
      "name": "getAllOrderRSCF",
      "outputs": [
        {
          "components": [
            {
              "internalType": "string",
              "name": "orderId",
              "type": "string"
            },
            {
              "internalType": "address",
              "name": "customerName",
              "type": "address"
            },
            {
              "internalType": "string",
              "name": "productId",
              "type": "string"
            },
            {
              "internalType": "string",
              "name": "productName",
              "type": "string"
            },
            {
              "internalType": "uint256",
              "name": "quantity",
              "type": "uint256"
            },
            {
              "internalType": "uint256",
              "name": "price",
              "type": "uint256"
            },
            {
              "internalType": "enum TypeRSCF.OrderStatus",
              "name": "orderStatus",
              "type": "uint8"
            }
          ],
          "internalType": "struct TypeRSCF.OrderRSCF[]",
          "name": "",
          "type": "tuple[]"
        }
      ],
      "stateMutability": "view",
      "type": "function",
      "constant": true
    },
    {
      "inputs": [
        {
          "components": [
            {
              "internalType": "string",
              "name": "documentId",
              "type": "string"
            },
            {
              "internalType": "string",
              "name": "hashcodeIPFS",
              "type": "string"
            },
            {
              "internalType": "string",
              "name": "fileName",
              "type": "string"
            },
            {
              "internalType": "string",
              "name": "filePath",
              "type": "string"
            }
          ],
          "internalType": "struct IPFSHashRSCF.HashRSCF",
          "name": "HashRSCF_",
          "type": "tuple"
        }
      ],
      "name": "addFileIPFSHash",
      "outputs": [],
      "stateMutability": "nonpayable",
      "type": "function"
    },
    {
      "inputs": [],
      "name": "getAllFileIPFSHash",
      "outputs": [
        {
          "components": [
            {
              "internalType": "string",
              "name": "documentId",
              "type": "string"
            },
            {
              "internalType": "string",
              "name": "hashcodeIPFS",
              "type": "string"
            },
            {
              "internalType": "string",
              "name": "fileName",
              "type": "string"
            },
            {
              "internalType": "string",
              "name": "filePath",
              "type": "string"
            }
          ],
          "internalType": "struct IPFSHashRSCF.HashRSCF[]",
          "name": "",
          "type": "tuple[]"
        }
      ],
      "stateMutability": "view",
      "type": "function",
      "constant": true
    }
  ],
  "bytecode": "0x60806040523480156200001157600080fd5b506040516200602f3803806200602f833981810160405281019062000037919062000568565b60006040518060800160405280600160048111156200005b576200005a620005ed565b5b81526020013373ffffffffffffffffffffffffffffffffffffffff1681526020018481526020018381525090506200009981620000a260201b60201c565b50505062000ad4565b600073ffffffffffffffffffffffffffffffffffffffff16816020015173ffffffffffffffffffffffffffffffffffffffff1603620000e057600080fd5b620000fa816000015182602001516200027a60201b60201c565b156200013d576040517f08c379a00000000000000000000000000000000000000000000000000000000081526004016200013490620006a3565b60405180910390fd5b8060066000836020015173ffffffffffffffffffffffffffffffffffffffff1673ffffffffffffffffffffffffffffffffffffffff16815260200190815260200160002060008201518160000160006101000a81548160ff02191690836004811115620001af57620001ae620005ed565b5b021790555060208201518160000160016101000a81548173ffffffffffffffffffffffffffffffffffffffff021916908373ffffffffffffffffffffffffffffffffffffffff160217905550604082015181600101908162000212919062000910565b5060608201518160020190816200022a919062000910565b509050507f50d0ad0c99094df6346bcc2173016e4029c68c201898be23216c4867281a07918160400151826060015183600001516040516200026f9392919062000a89565b60405180910390a150565b60008073ffffffffffffffffffffffffffffffffffffffff168273ffffffffffffffffffffffffffffffffffffffff1603620002b557600080fd5b600073ffffffffffffffffffffffffffffffffffffffff16600660008473ffffffffffffffffffffffffffffffffffffffff1673ffffffffffffffffffffffffffffffffffffffff16815260200190815260200160002060000160019054906101000a900473ffffffffffffffffffffffffffffffffffffffff1673ffffffffffffffffffffffffffffffffffffffff1614158015620003cd5750826004811115620003665762000365620005ed565b5b600660008473ffffffffffffffffffffffffffffffffffffffff1673ffffffffffffffffffffffffffffffffffffffff16815260200190815260200160002060000160009054906101000a900460ff166004811115620003cb57620003ca620005ed565b5b145b905092915050565b6000604051905090565b600080fd5b600080fd5b600080fd5b600080fd5b6000601f19601f8301169050919050565b7f4e487b7100000000000000000000000000000000000000000000000000000000600052604160045260246000fd5b6200043e82620003f3565b810181811067ffffffffffffffff8211171562000460576200045f62000404565b5b80604052505050565b600062000475620003d5565b905062000483828262000433565b919050565b600067ffffffffffffffff821115620004a657620004a562000404565b5b620004b182620003f3565b9050602081019050919050565b60005b83811015620004de578082015181840152602081019050620004c1565b60008484015250505050565b600062000501620004fb8462000488565b62000469565b90508281526020810184848401111562000520576200051f620003ee565b5b6200052d848285620004be565b509392505050565b600082601f8301126200054d576200054c620003e9565b5b81516200055f848260208601620004ea565b91505092915050565b60008060408385031215620005825762000581620003df565b5b600083015167ffffffffffffffff811115620005a357620005a2620003e4565b5b620005b18582860162000535565b925050602083015167ffffffffffffffff811115620005d557620005d4620003e4565b5b620005e38582860162000535565b9150509250929050565b7f4e487b7100000000000000000000000000000000000000000000000000000000600052602160045260246000fd5b600082825260208201905092915050565b7f53616d6520636c69656e7420776974682073616d6520726f6c6520657869737460008201527f7300000000000000000000000000000000000000000000000000000000000000602082015250565b60006200068b6021836200061c565b915062000698826200062d565b604082019050919050565b60006020820190508181036000830152620006be816200067c565b9050919050565b600081519050919050565b7f4e487b7100000000000000000000000000000000000000000000000000000000600052602260045260246000fd5b600060028204905060018216806200071857607f821691505b6020821081036200072e576200072d620006d0565b5b50919050565b60008190508160005260206000209050919050565b60006020601f8301049050919050565b600082821b905092915050565b600060088302620007987fffffffffffffffffffffffffffffffffffffffffffffffffffffffffffffffff8262000759565b620007a4868362000759565b95508019841693508086168417925050509392505050565b6000819050919050565b6000819050919050565b6000620007f1620007eb620007e584620007bc565b620007c6565b620007bc565b9050919050565b6000819050919050565b6200080d83620007d0565b620008256200081c82620007f8565b84845462000766565b825550505050565b600090565b6200083c6200082d565b6200084981848462000802565b505050565b5b8181101562000871576200086560008262000832565b6001810190506200084f565b5050565b601f821115620008c0576200088a8162000734565b620008958462000749565b81016020851015620008a5578190505b620008bd620008b48562000749565b8301826200084e565b50505b505050565b600082821c905092915050565b6000620008e560001984600802620008c5565b1980831691505092915050565b6000620009008383620008d2565b9150826002028217905092915050565b6200091b82620006c5565b67ffffffffffffffff81111562000937576200093662000404565b5b620009438254620006ff565b6200095082828562000875565b600060209050601f83116001811462000988576000841562000973578287015190505b6200097f8582620008f2565b865550620009ef565b601f198416620009988662000734565b60005b82811015620009c2578489015182556001820191506020850194506020810190506200099b565b86831015620009e25784890151620009de601f891682620008d2565b8355505b6001600288020188555050505b505050505050565b600062000a0482620006c5565b62000a1081856200061c565b935062000a22818560208601620004be565b62000a2d81620003f3565b840191505092915050565b6005811062000a4c5762000a4b620005ed565b5b50565b600081905062000a5f8262000a38565b919050565b600062000a718262000a4f565b9050919050565b62000a838162000a64565b82525050565b6000606082019050818103600083015262000aa58186620009f7565b9050818103602083015262000abb8185620009f7565b905062000acc604083018462000a78565b949350505050565b61554b8062000ae46000396000f3fe608060405234801561001057600080fd5b50600436106101005760003560e01c806370bcfcb111610097578063d11d955e11610066578063d11d955e1461028b578063e545121d146102be578063e74a8093146102ef578063fff055691461030b57610100565b806370bcfcb1146102195780638d998a1014610235578063a1168c4214610253578063b96c08661461026f57610100565b8063428303b6116100d3578063428303b6146101a357806347ed0763146101c15780634807add6146101df57806354080d83146101fd57610100565b80630b6d008a14610105578063113539ad146101215780631a948947146101515780632a1a47f814610187575b600080fd5b61011f600480360381019061011a9190613a3d565b610327565b005b61013b60048036038101906101369190613a86565b610333565b6040516101489190613cc9565b60405180910390f35b61016b60048036038101906101669190613a86565b61034b565b60405161017e9796959493929190613d62565b60405180910390f35b6101a1600480360381019061019c9190613a86565b610568565b005b6101ab6106fc565b6040516101b89190613f20565b60405180910390f35b6101c961070b565b6040516101d69190614220565b60405180910390f35b6101e7610c14565b6040516101f491906143ae565b60405180910390f35b61021760048036038101906102129190614555565b610c23565b005b610233600480360381019061022e9190614870565b610c31565b005b61023d610e35565b60405161024a9190614220565b60405180910390f35b61026d60048036038101906102689190614555565b610e44565b005b61028960048036038101906102849190613a86565b6110f8565b005b6102a560048036038101906102a09190613a86565b61128c565b6040516102b594939291906148cc565b60405180910390f35b6102d860048036038101906102d39190613a86565b6114f2565b6040516102e6929190614b80565b60405180910390f35b61030960048036038101906103049190613a86565b611514565b005b61032560048036038101906103209190613a3d565b6118e5565b005b610330816118e5565b50565b61033b6135c6565b61034482611a39565b9050919050565b60058180516020810182018051848252602083016020850120818352809550505050505060009150905080600001805461038490614be6565b80601f01602080910402602001604051908101604052809291908181526020018280546103b090614be6565b80156103fd5780601f106103d2576101008083540402835291602001916103fd565b820191906000526020600020905b8154815290600101906020018083116103e057829003601f168201915b5050505050908060010160009054906101000a900473ffffffffffffffffffffffffffffffffffffffff169080600201805461043890614be6565b80601f016020809104026020016040519081016040528092919081815260200182805461046490614be6565b80156104b15780601f10610486576101008083540402835291602001916104b1565b820191906000526020600020905b81548152906001019060200180831161049457829003601f168201915b5050505050908060030180546104c690614be6565b80601f01602080910402602001604051908101604052809291908181526020018280546104f290614be6565b801561053f5780601f106105145761010080835404028352916020019161053f565b820191906000526020600020905b81548152906001019060200180831161052257829003601f168201915b5050505050908060040154908060050154908060060160009054906101000a900460ff16905087565b600060058260405161057a9190614c53565b908152602001604051809103902090503373ffffffffffffffffffffffffffffffffffffffff168160010160009054906101000a900473ffffffffffffffffffffffffffffffffffffffff1673ffffffffffffffffffffffffffffffffffffffff161461061c576040517f08c379a000000000000000000000000000000000000000000000000000000000815260040161061390614cdc565b60405180910390fd5b600160038111156106305761062f613ba8565b5b8160060160009054906101000a900460ff16600381111561065457610653613ba8565b5b14610694576040517f08c379a000000000000000000000000000000000000000000000000000000000815260040161068b90614d6e565b60405180910390fd5b60028160060160006101000a81548160ff021916908360038111156106bc576106bb613ba8565b5b02179055507fac14f6f0cc901964c24513b4eef52446d25d1da3d20792622418673ea2d80eb2826040516106f09190614d8e565b60405180910390a15050565b6060610706611ccc565b905090565b60606000805480602002602001604051908101604052809291908181526020016000905b82821015610c0b57838290600052602060002090600b02016040518061016001604052908160008201805461076390614be6565b80601f016020809104026020016040519081016040528092919081815260200182805461078f90614be6565b80156107dc5780601f106107b1576101008083540402835291602001916107dc565b820191906000526020600020905b8154815290600101906020018083116107bf57829003601f168201915b505050505081526020016001820180546107f590614be6565b80601f016020809104026020016040519081016040528092919081815260200182805461082190614be6565b801561086e5780601f106108435761010080835404028352916020019161086e565b820191906000526020600020905b81548152906001019060200180831161085157829003601f168201915b5050505050815260200160028201805461088790614be6565b80601f01602080910402602001604051908101604052809291908181526020018280546108b390614be6565b80156109005780601f106108d557610100808354040283529160200191610900565b820191906000526020600020905b8154815290600101906020018083116108e357829003601f168201915b505050505081526020016003820160009054906101000a900473ffffffffffffffffffffffffffffffffffffffff1673ffffffffffffffffffffffffffffffffffffffff1673ffffffffffffffffffffffffffffffffffffffff1681526020016004820154815260200160058201548152602001600682015481526020016007820160009054906101000a900460ff1660048111156109a2576109a1613ba8565b5b60048111156109b4576109b3613ba8565b5b81526020016008820180546109c890614be6565b80601f01602080910402602001604051908101604052809291908181526020018280546109f490614be6565b8015610a415780601f10610a1657610100808354040283529160200191610a41565b820191906000526020600020905b815481529060010190602001808311610a2457829003601f168201915b5050505050815260200160098201805480602002602001604051908101604052809291908181526020016000905b82821015610b1b578382906000526020600020018054610a8e90614be6565b80601f0160208091040260200160405190810160405280929190818152602001828054610aba90614be6565b8015610b075780601f10610adc57610100808354040283529160200191610b07565b820191906000526020600020905b815481529060010190602001808311610aea57829003601f168201915b505050505081526020019060010190610a6f565b505050508152602001600a8201805480602002602001604051908101604052809291908181526020016000905b82821015610bf4578382906000526020600020018054610b6790614be6565b80601f0160208091040260200160405190810160405280929190818152602001828054610b9390614be6565b8015610be05780601f10610bb557610100808354040283529160200191610be0565b820191906000526020600020905b815481529060010190602001808311610bc357829003601f168201915b505050505081526020019060010190610b48565b50505050815250508152602001906001019061072f565b50505050905090565b6060610c1e611f73565b905090565b610c2d8282610e44565b5050565b600073ffffffffffffffffffffffffffffffffffffffff163373ffffffffffffffffffffffffffffffffffffffff1603610ca0576040517f08c379a0000000000000000000000000000000000000000000000000000000008152600401610c9790614dfc565b60405180910390fd5b600073ffffffffffffffffffffffffffffffffffffffff16600660003373ffffffffffffffffffffffffffffffffffffffff1673ffffffffffffffffffffffffffffffffffffffff16815260200190815260200160002060000160019054906101000a900473ffffffffffffffffffffffffffffffffffffffff1673ffffffffffffffffffffffffffffffffffffffff1603610d71576040517f08c379a0000000000000000000000000000000000000000000000000000000008152600401610d6890614e68565b60405180910390fd5b60016004811115610d8557610d84613ba8565b5b600660003373ffffffffffffffffffffffffffffffffffffffff1673ffffffffffffffffffffffffffffffffffffffff16815260200190815260200160002060000160009054906101000a900460ff166004811115610de757610de6613ba8565b5b14610e27576040517f08c379a0000000000000000000000000000000000000000000000000000000008152600401610e1e90614ed4565b60405180910390fd5b610e31828261222d565b5050565b6060610e3f612796565b905090565b33826020019073ffffffffffffffffffffffffffffffffffffffff16908173ffffffffffffffffffffffffffffffffffffffff168152505060008260c001906003811115610e9557610e94613ba8565b5b90816003811115610ea957610ea8613ba8565b5b815250508160058360000151604051610ec29190614c53565b90815260200160405180910390206000820151816000019081610ee591906150a0565b5060208201518160010160006101000a81548173ffffffffffffffffffffffffffffffffffffffff021916908373ffffffffffffffffffffffffffffffffffffffff1602179055506040820151816002019081610f4291906150a0565b506060820151816003019081610f5891906150a0565b506080820151816004015560a0820151816005015560c08201518160060160006101000a81548160ff02191690836003811115610f9857610f97613ba8565b5b021790555090505060048290806001815401808255809150506001900390600052602060002090600702016000909190919091506000820151816000019081610fe191906150a0565b5060208201518160010160006101000a81548173ffffffffffffffffffffffffffffffffffffffff021916908373ffffffffffffffffffffffffffffffffffffffff160217905550604082015181600201908161103e91906150a0565b50606082015181600301908161105491906150a0565b506080820151816004015560a0820151816005015560c08201518160060160006101000a81548160ff0219169083600381111561109457611093613ba8565b5b021790555050507fe36918c4e178c1be44849f3ac6dda1fc6dd191b53f504dd4475ce7eccc2c37ed826000015183602001518460400151856060015186608001518760a001516040516110ec96959493929190615172565b60405180910390a15050565b600060058260405161110a9190614c53565b908152602001604051809103902090503373ffffffffffffffffffffffffffffffffffffffff168160010160009054906101000a900473ffffffffffffffffffffffffffffffffffffffff1673ffffffffffffffffffffffffffffffffffffffff16146111ac576040517f08c379a00000000000000000000000000000000000000000000000000000000081526004016111a390615234565b60405180910390fd5b600260038111156111c0576111bf613ba8565b5b8160060160009054906101000a900460ff1660038111156111e4576111e3613ba8565b5b14611224576040517f08c379a000000000000000000000000000000000000000000000000000000000815260040161121b906152c6565b60405180910390fd5b60038160060160006101000a81548160ff0219169083600381111561124c5761124b613ba8565b5b02179055507fc54168d3090b6f00fab4ccb0e6661857004c64ab480534010cdf71800c75241d826040516112809190614d8e565b60405180910390a15050565b600b818051602081018201805184825260208301602085012081835280955050505050506000915090508060000180546112c590614be6565b80601f01602080910402602001604051908101604052809291908181526020018280546112f190614be6565b801561133e5780601f106113135761010080835404028352916020019161133e565b820191906000526020600020905b81548152906001019060200180831161132157829003601f168201915b50505050509080600101805461135390614be6565b80601f016020809104026020016040519081016040528092919081815260200182805461137f90614be6565b80156113cc5780601f106113a1576101008083540402835291602001916113cc565b820191906000526020600020905b8154815290600101906020018083116113af57829003601f168201915b5050505050908060020180546113e190614be6565b80601f016020809104026020016040519081016040528092919081815260200182805461140d90614be6565b801561145a5780601f1061142f5761010080835404028352916020019161145a565b820191906000526020600020905b81548152906001019060200180831161143d57829003601f168201915b50505050509080600301805461146f90614be6565b80601f016020809104026020016040519081016040528092919081815260200182805461149b90614be6565b80156114e85780601f106114bd576101008083540402835291602001916114e8565b820191906000526020600020905b8154815290600101906020018083116114cb57829003601f168201915b5050505050905084565b6114fa61362b565b6115026136ad565b61150b83612e37565b91509150915091565b60006005826040516115269190614c53565b90815260200160405180910390206040518060e001604052908160008201805461154f90614be6565b80601f016020809104026020016040519081016040528092919081815260200182805461157b90614be6565b80156115c85780601f1061159d576101008083540402835291602001916115c8565b820191906000526020600020905b8154815290600101906020018083116115ab57829003601f168201915b505050505081526020016001820160009054906101000a900473ffffffffffffffffffffffffffffffffffffffff1673ffffffffffffffffffffffffffffffffffffffff1673ffffffffffffffffffffffffffffffffffffffff16815260200160028201805461163790614be6565b80601f016020809104026020016040519081016040528092919081815260200182805461166390614be6565b80156116b05780601f10611685576101008083540402835291602001916116b0565b820191906000526020600020905b81548152906001019060200180831161169357829003601f168201915b505050505081526020016003820180546116c990614be6565b80601f01602080910402602001604051908101604052809291908181526020018280546116f590614be6565b80156117425780601f1061171757610100808354040283529160200191611742565b820191906000526020600020905b81548152906001019060200180831161172557829003601f168201915b5050505050815260200160048201548152602001600582015481526020016006820160009054906101000a900460ff16600381111561178457611783613ba8565b5b600381111561179657611795613ba8565b5b8152505090503373ffffffffffffffffffffffffffffffffffffffff16816020015173ffffffffffffffffffffffffffffffffffffffff161461180e576040517f08c379a000000000000000000000000000000000000000000000000000000000815260040161180590615332565b60405180910390fd5b6000600381111561182257611821613ba8565b5b8160c00151600381111561183957611838613ba8565b5b14611879576040517f08c379a0000000000000000000000000000000000000000000000000000000008152600401611870906153c4565b60405180910390fd5b60018160c00190600381111561189257611891613ba8565b5b908160038111156118a6576118a5613ba8565b5b815250507f49a8e1507a6f693a113e03a6b7d2ca032ebdf2908f1fcbc1b021ed7845cadf8a826040516118d99190614d8e565b60405180910390a15050565b80600b82602001516040516118fa9190614c53565b9081526020016040518091039020600082015181600001908161191d91906150a0565b50602082015181600101908161193391906150a0565b50604082015181600201908161194991906150a0565b50606082015181600301908161195f91906150a0565b50905050600a81908060018154018082558091505060019003906000526020600020906004020160009091909190915060008201518160000190816119a491906150a0565b5060208201518160010190816119ba91906150a0565b5060408201518160020190816119d091906150a0565b5060608201518160030190816119e691906150a0565b5050507f2f7f24d89e8a8330d01593b20e580c10b60ae4e8733af2055029b49d46756fa88160000151826020015183604001518460600151604051611a2e94939291906148cc565b60405180910390a150565b611a416135c6565b600582604051611a519190614c53565b90815260200160405180910390206040518060e0016040529081600082018054611a7a90614be6565b80601f0160208091040260200160405190810160405280929190818152602001828054611aa690614be6565b8015611af35780601f10611ac857610100808354040283529160200191611af3565b820191906000526020600020905b815481529060010190602001808311611ad657829003601f168201915b505050505081526020016001820160009054906101000a900473ffffffffffffffffffffffffffffffffffffffff1673ffffffffffffffffffffffffffffffffffffffff1673ffffffffffffffffffffffffffffffffffffffff168152602001600282018054611b6290614be6565b80601f0160208091040260200160405190810160405280929190818152602001828054611b8e90614be6565b8015611bdb5780601f10611bb057610100808354040283529160200191611bdb565b820191906000526020600020905b815481529060010190602001808311611bbe57829003601f168201915b50505050508152602001600382018054611bf490614be6565b80601f0160208091040260200160405190810160405280929190818152602001828054611c2090614be6565b8015611c6d5780601f10611c4257610100808354040283529160200191611c6d565b820191906000526020600020905b815481529060010190602001808311611c5057829003601f168201915b5050505050815260200160048201548152602001600582015481526020016006820160009054906101000a900460ff166003811115611caf57611cae613ba8565b5b6003811115611cc157611cc0613ba8565b5b815250509050919050565b6060600a805480602002602001604051908101604052809291908181526020016000905b82821015611f6a5783829060005260206000209060040201604051806080016040529081600082018054611d2390614be6565b80601f0160208091040260200160405190810160405280929190818152602001828054611d4f90614be6565b8015611d9c5780601f10611d7157610100808354040283529160200191611d9c565b820191906000526020600020905b815481529060010190602001808311611d7f57829003601f168201915b50505050508152602001600182018054611db590614be6565b80601f0160208091040260200160405190810160405280929190818152602001828054611de190614be6565b8015611e2e5780601f10611e0357610100808354040283529160200191611e2e565b820191906000526020600020905b815481529060010190602001808311611e1157829003601f168201915b50505050508152602001600282018054611e4790614be6565b80601f0160208091040260200160405190810160405280929190818152602001828054611e7390614be6565b8015611ec05780601f10611e9557610100808354040283529160200191611ec0565b820191906000526020600020905b815481529060010190602001808311611ea357829003601f168201915b50505050508152602001600382018054611ed990614be6565b80601f0160208091040260200160405190810160405280929190818152602001828054611f0590614be6565b8015611f525780601f10611f2757610100808354040283529160200191611f52565b820191906000526020600020905b815481529060010190602001808311611f3557829003601f168201915b50505050508152505081526020019060010190611cf0565b50505050905090565b60606004805480602002602001604051908101604052809291908181526020016000905b8282101561222457838290600052602060002090600702016040518060e0016040529081600082018054611fca90614be6565b80601f0160208091040260200160405190810160405280929190818152602001828054611ff690614be6565b80156120435780601f1061201857610100808354040283529160200191612043565b820191906000526020600020905b81548152906001019060200180831161202657829003601f168201915b505050505081526020016001820160009054906101000a900473ffffffffffffffffffffffffffffffffffffffff1673ffffffffffffffffffffffffffffffffffffffff1673ffffffffffffffffffffffffffffffffffffffff1681526020016002820180546120b290614be6565b80601f01602080910402602001604051908101604052809291908181526020018280546120de90614be6565b801561212b5780601f106121005761010080835404028352916020019161212b565b820191906000526020600020905b81548152906001019060200180831161210e57829003601f168201915b5050505050815260200160038201805461214490614be6565b80601f016020809104026020016040519081016040528092919081815260200182805461217090614be6565b80156121bd5780601f10612192576101008083540402835291602001916121bd565b820191906000526020600020905b8154815290600101906020018083116121a057829003601f168201915b5050505050815260200160048201548152602001600582015481526020016006820160009054906101000a900460ff1660038111156121ff576121fe613ba8565b5b600381111561221157612210613ba8565b5b8152505081526020019060010190611f97565b50505050905090565b81602001516122f46001826040516122459190614c53565b9081526020016040518091039020600101805461226190614be6565b80601f016020809104026020016040519081016040528092919081815260200182805461228d90614be6565b80156122da5780601f106122af576101008083540402835291602001916122da565b820191906000526020600020905b8154815290600101906020018083116122bd57829003601f168201915b50505050506040518060200160405280600081525061356d565b6122fd57600080fd5b3373ffffffffffffffffffffffffffffffffffffffff16836060015173ffffffffffffffffffffffffffffffffffffffff161461236f576040517f08c379a000000000000000000000000000000000000000000000000000000000815260040161236690614ed4565b60405180910390fd5b60008390806001815401808255809150506001900390600052602060002090600b020160009091909190915060008201518160000190816123b091906150a0565b5060208201518160010190816123c691906150a0565b5060408201518160020190816123dc91906150a0565b5060608201518160030160006101000a81548173ffffffffffffffffffffffffffffffffffffffff021916908373ffffffffffffffffffffffffffffffffffffffff1602179055506080820151816004015560a0820151816005015560c0820151816006015560e08201518160070160006101000a81548160ff0219169083600481111561246d5761246c613ba8565b5b021790555061010082015181600801908161248891906150a0565b506101208201518160090190805190602001906124a69291906136e7565b5061014082015181600a0190805190602001906124c49291906136e7565b50505082600184602001516040516124dc9190614c53565b908152602001604051809103902060008201518160000190816124ff91906150a0565b50602082015181600101908161251591906150a0565b50604082015181600201908161252b91906150a0565b5060608201518160030160006101000a81548173ffffffffffffffffffffffffffffffffffffffff021916908373ffffffffffffffffffffffffffffffffffffffff1602179055506080820151816004015560a0820151816005015560c0820151816006015560e08201518160070160006101000a81548160ff021916908360048111156125bc576125bb613ba8565b5b02179055506101008201518160080190816125d791906150a0565b506101208201518160090190805190602001906125f59291906136e7565b5061014082015181600a0190805190602001906126139291906136e7565b5090505060405180604001604052803373ffffffffffffffffffffffffffffffffffffffff16815260200183815250600384602001516040516126569190614c53565b908152602001604051809103902060000160008201518160000160006101000a81548173ffffffffffffffffffffffffffffffffffffffff021916908373ffffffffffffffffffffffffffffffffffffffff16021790555060208201518160010155905050600260003373ffffffffffffffffffffffffffffffffffffffff1673ffffffffffffffffffffffffffffffffffffffff168152602001908152602001600020836020015190806001815401808255809150506001900390600052602060002001600090919091909150908161273091906150a0565b507fe8c37fe18c7329d1420a01ba778581fb07afa62e7bc27cd96c5b9666a3b8c767836000015184604001518560600151866101000151876020015188608001518960a0015160405161278997969594939291906153e4565b60405180910390a1505050565b60606000600260003373ffffffffffffffffffffffffffffffffffffffff1673ffffffffffffffffffffffffffffffffffffffff168152602001908152602001600020805480602002602001604051908101604052809291908181526020016000905b828210156128a557838290600052602060002001805461281890614be6565b80601f016020809104026020016040519081016040528092919081815260200182805461284490614be6565b80156128915780601f1061286657610100808354040283529160200191612891565b820191906000526020600020905b81548152906001019060200180831161287457829003601f168201915b5050505050815260200190600101906127f9565b5050505090506000815167ffffffffffffffff8111156128c8576128c761381b565b5b60405190808252806020026020018201604052801561290157816020015b6128ee61362b565b8152602001906001900390816128e65790505b50905060005b8251811015612e2e5760018382815181106129255761292461546f565b5b602002602001015160405161293a9190614c53565b90815260200160405180910390206040518061016001604052908160008201805461296490614be6565b80601f016020809104026020016040519081016040528092919081815260200182805461299090614be6565b80156129dd5780601f106129b2576101008083540402835291602001916129dd565b820191906000526020600020905b8154815290600101906020018083116129c057829003601f168201915b505050505081526020016001820180546129f690614be6565b80601f0160208091040260200160405190810160405280929190818152602001828054612a2290614be6565b8015612a6f5780601f10612a4457610100808354040283529160200191612a6f565b820191906000526020600020905b815481529060010190602001808311612a5257829003601f168201915b50505050508152602001600282018054612a8890614be6565b80601f0160208091040260200160405190810160405280929190818152602001828054612ab490614be6565b8015612b015780601f10612ad657610100808354040283529160200191612b01565b820191906000526020600020905b815481529060010190602001808311612ae457829003601f168201915b505050505081526020016003820160009054906101000a900473ffffffffffffffffffffffffffffffffffffffff1673ffffffffffffffffffffffffffffffffffffffff1673ffffffffffffffffffffffffffffffffffffffff1681526020016004820154815260200160058201548152602001600682015481526020016007820160009054906101000a900460ff166004811115612ba357612ba2613ba8565b5b6004811115612bb557612bb4613ba8565b5b8152602001600882018054612bc990614be6565b80601f0160208091040260200160405190810160405280929190818152602001828054612bf590614be6565b8015612c425780601f10612c1757610100808354040283529160200191612c42565b820191906000526020600020905b815481529060010190602001808311612c2557829003601f168201915b5050505050815260200160098201805480602002602001604051908101604052809291908181526020016000905b82821015612d1c578382906000526020600020018054612c8f90614be6565b80601f0160208091040260200160405190810160405280929190818152602001828054612cbb90614be6565b8015612d085780601f10612cdd57610100808354040283529160200191612d08565b820191906000526020600020905b815481529060010190602001808311612ceb57829003601f168201915b505050505081526020019060010190612c70565b505050508152602001600a8201805480602002602001604051908101604052809291908181526020016000905b82821015612df5578382906000526020600020018054612d6890614be6565b80601f0160208091040260200160405190810160405280929190818152602001828054612d9490614be6565b8015612de15780601f10612db657610100808354040283529160200191612de1565b820191906000526020600020905b815481529060010190602001808311612dc457829003601f168201915b505050505081526020019060010190612d49565b5050505081525050828281518110612e1057612e0f61546f565b5b60200260200101819052508080612e26906154cd565b915050612907565b50809250505090565b612e3f61362b565b612e476136ad565b600183604051612e579190614c53565b9081526020016040518091039020600384604051612e759190614c53565b90815260200160405180910390208160405180610160016040529081600082018054612ea090614be6565b80601f0160208091040260200160405190810160405280929190818152602001828054612ecc90614be6565b8015612f195780601f10612eee57610100808354040283529160200191612f19565b820191906000526020600020905b815481529060010190602001808311612efc57829003601f168201915b50505050508152602001600182018054612f3290614be6565b80601f0160208091040260200160405190810160405280929190818152602001828054612f5e90614be6565b8015612fab5780601f10612f8057610100808354040283529160200191612fab565b820191906000526020600020905b815481529060010190602001808311612f8e57829003601f168201915b50505050508152602001600282018054612fc490614be6565b80601f0160208091040260200160405190810160405280929190818152602001828054612ff090614be6565b801561303d5780601f106130125761010080835404028352916020019161303d565b820191906000526020600020905b81548152906001019060200180831161302057829003601f168201915b505050505081526020016003820160009054906101000a900473ffffffffffffffffffffffffffffffffffffffff1673ffffffffffffffffffffffffffffffffffffffff1673ffffffffffffffffffffffffffffffffffffffff1681526020016004820154815260200160058201548152602001600682015481526020016007820160009054906101000a900460ff1660048111156130df576130de613ba8565b5b60048111156130f1576130f0613ba8565b5b815260200160088201805461310590614be6565b80601f016020809104026020016040519081016040528092919081815260200182805461313190614be6565b801561317e5780601f106131535761010080835404028352916020019161317e565b820191906000526020600020905b81548152906001019060200180831161316157829003601f168201915b5050505050815260200160098201805480602002602001604051908101604052809291908181526020016000905b828210156132585783829060005260206000200180546131cb90614be6565b80601f01602080910402602001604051908101604052809291908181526020018280546131f790614be6565b80156132445780601f1061321957610100808354040283529160200191613244565b820191906000526020600020905b81548152906001019060200180831161322757829003601f168201915b5050505050815260200190600101906131ac565b505050508152602001600a8201805480602002602001604051908101604052809291908181526020016000905b828210156133315783829060005260206000200180546132a490614be6565b80601f01602080910402602001604051908101604052809291908181526020018280546132d090614be6565b801561331d5780601f106132f25761010080835404028352916020019161331d565b820191906000526020600020905b81548152906001019060200180831161330057829003601f168201915b505050505081526020019060010190613285565b5050505081525050915080604051806080016040529081600082016040518060400160405290816000820160009054906101000a900473ffffffffffffffffffffffffffffffffffffffff1673ffffffffffffffffffffffffffffffffffffffff1673ffffffffffffffffffffffffffffffffffffffff1681526020016001820154815250508152602001600282016040518060400160405290816000820160009054906101000a900473ffffffffffffffffffffffffffffffffffffffff1673ffffffffffffffffffffffffffffffffffffffff1673ffffffffffffffffffffffffffffffffffffffff1681526020016001820154815250508152602001600482016040518060400160405290816000820160009054906101000a900473ffffffffffffffffffffffffffffffffffffffff1673ffffffffffffffffffffffffffffffffffffffff1673ffffffffffffffffffffffffffffffffffffffff168152602001600182015481525050815260200160068201805480602002602001604051908101604052809291908181526020016000905b8282101561355a57838290600052602060002090600202016040518060400160405290816000820160009054906101000a900473ffffffffffffffffffffffffffffffffffffffff1673ffffffffffffffffffffffffffffffffffffffff1673ffffffffffffffffffffffffffffffffffffffff168152602001600182015481525050815260200190600101906134c8565b5050505081525050905091509150915091565b6000816040516020016135809190614c53565b60405160208183030381529060405280519060200120836040516020016135a79190614c53565b6040516020818303038152906040528051906020012014905092915050565b6040518060e0016040528060608152602001600073ffffffffffffffffffffffffffffffffffffffff168152602001606081526020016060815260200160008152602001600081526020016000600381111561362557613624613ba8565b5b81525090565b604051806101600160405280606081526020016060815260200160608152602001600073ffffffffffffffffffffffffffffffffffffffff1681526020016000815260200160008152602001600081526020016000600481111561369257613691613ba8565b5b81526020016060815260200160608152602001606081525090565b60405180608001604052806136c0613740565b81526020016136cd613740565b81526020016136da613740565b8152602001606081525090565b82805482825590600052602060002090810192821561372f579160200282015b8281111561372e57825182908161371e91906150a0565b5091602001919060010190613707565b5b50905061373c9190613770565b5090565b6040518060400160405280600073ffffffffffffffffffffffffffffffffffffffff168152602001600081525090565b5b8082111561379057600081816137879190613794565b50600101613771565b5090565b5080546137a090614be6565b6000825580601f106137b257506137d1565b601f0160209004906000526020600020908101906137d091906137d4565b5b50565b5b808211156137ed5760008160009055506001016137d5565b5090565b6000604051905090565b600080fd5b600080fd5b600080fd5b6000601f19601f8301169050919050565b7f4e487b7100000000000000000000000000000000000000000000000000000000600052604160045260246000fd5b6138538261380a565b810181811067ffffffffffffffff821117156138725761387161381b565b5b80604052505050565b60006138856137f1565b9050613891828261384a565b919050565b600080fd5b600080fd5b600080fd5b600067ffffffffffffffff8211156138c0576138bf61381b565b5b6138c98261380a565b9050602081019050919050565b82818337600083830152505050565b60006138f86138f3846138a5565b61387b565b905082815260208101848484011115613914576139136138a0565b5b61391f8482856138d6565b509392505050565b600082601f83011261393c5761393b61389b565b5b813561394c8482602086016138e5565b91505092915050565b60006080828403121561396b5761396a613805565b5b613975608061387b565b9050600082013567ffffffffffffffff81111561399557613994613896565b5b6139a184828501613927565b600083015250602082013567ffffffffffffffff8111156139c5576139c4613896565b5b6139d184828501613927565b602083015250604082013567ffffffffffffffff8111156139f5576139f4613896565b5b613a0184828501613927565b604083015250606082013567ffffffffffffffff811115613a2557613a24613896565b5b613a3184828501613927565b60608301525092915050565b600060208284031215613a5357613a526137fb565b5b600082013567ffffffffffffffff811115613a7157613a70613800565b5b613a7d84828501613955565b91505092915050565b600060208284031215613a9c57613a9b6137fb565b5b600082013567ffffffffffffffff811115613aba57613ab9613800565b5b613ac684828501613927565b91505092915050565b600081519050919050565b600082825260208201905092915050565b60005b83811015613b09578082015181840152602081019050613aee565b60008484015250505050565b6000613b2082613acf565b613b2a8185613ada565b9350613b3a818560208601613aeb565b613b438161380a565b840191505092915050565b600073ffffffffffffffffffffffffffffffffffffffff82169050919050565b6000613b7982613b4e565b9050919050565b613b8981613b6e565b82525050565b6000819050919050565b613ba281613b8f565b82525050565b7f4e487b7100000000000000000000000000000000000000000000000000000000600052602160045260246000fd5b60048110613be857613be7613ba8565b5b50565b6000819050613bf982613bd7565b919050565b6000613c0982613beb565b9050919050565b613c1981613bfe565b82525050565b600060e0830160008301518482036000860152613c3c8282613b15565b9150506020830151613c516020860182613b80565b5060408301518482036040860152613c698282613b15565b91505060608301518482036060860152613c838282613b15565b9150506080830151613c986080860182613b99565b5060a0830151613cab60a0860182613b99565b5060c0830151613cbe60c0860182613c10565b508091505092915050565b60006020820190508181036000830152613ce38184613c1f565b905092915050565b600082825260208201905092915050565b6000613d0782613acf565b613d118185613ceb565b9350613d21818560208601613aeb565b613d2a8161380a565b840191505092915050565b613d3e81613b6e565b82525050565b613d4d81613b8f565b82525050565b613d5c81613bfe565b82525050565b600060e0820190508181036000830152613d7c818a613cfc565b9050613d8b6020830189613d35565b8181036040830152613d9d8188613cfc565b90508181036060830152613db18187613cfc565b9050613dc06080830186613d44565b613dcd60a0830185613d44565b613dda60c0830184613d53565b98975050505050505050565b600081519050919050565b600082825260208201905092915050565b6000819050602082019050919050565b60006080830160008301518482036000860152613e2f8282613b15565b91505060208301518482036020860152613e498282613b15565b91505060408301518482036040860152613e638282613b15565b91505060608301518482036060860152613e7d8282613b15565b9150508091505092915050565b6000613e968383613e12565b905092915050565b6000602082019050919050565b6000613eb682613de6565b613ec08185613df1565b935083602082028501613ed285613e02565b8060005b85811015613f0e5784840389528151613eef8582613e8a565b9450613efa83613e9e565b925060208a01995050600181019050613ed6565b50829750879550505050505092915050565b60006020820190508181036000830152613f3a8184613eab565b905092915050565b600081519050919050565b600082825260208201905092915050565b6000819050602082019050919050565b60058110613f7f57613f7e613ba8565b5b50565b6000819050613f9082613f6e565b919050565b6000613fa082613f82565b9050919050565b613fb081613f95565b82525050565b600081519050919050565b600082825260208201905092915050565b6000819050602082019050919050565b6000613fee8383613b15565b905092915050565b6000602082019050919050565b600061400e82613fb6565b6140188185613fc1565b93508360208202850161402a85613fd2565b8060005b8581101561406657848403895281516140478582613fe2565b945061405283613ff6565b925060208a0199505060018101905061402e565b50829750879550505050505092915050565b60006101608301600083015184820360008601526140968282613b15565b915050602083015184820360208601526140b08282613b15565b915050604083015184820360408601526140ca8282613b15565b91505060608301516140df6060860182613b80565b5060808301516140f26080860182613b99565b5060a083015161410560a0860182613b99565b5060c083015161411860c0860182613b99565b5060e083015161412b60e0860182613fa7565b506101008301518482036101008601526141458282613b15565b9150506101208301518482036101208601526141618282614003565b91505061014083015184820361014086015261417d8282614003565b9150508091505092915050565b60006141968383614078565b905092915050565b6000602082019050919050565b60006141b682613f42565b6141c08185613f4d565b9350836020820285016141d285613f5e565b8060005b8581101561420e57848403895281516141ef858261418a565b94506141fa8361419e565b925060208a019950506001810190506141d6565b50829750879550505050505092915050565b6000602082019050818103600083015261423a81846141ab565b905092915050565b600081519050919050565b600082825260208201905092915050565b6000819050602082019050919050565b600060e083016000830151848203600086015261428b8282613b15565b91505060208301516142a06020860182613b80565b50604083015184820360408601526142b88282613b15565b915050606083015184820360608601526142d28282613b15565b91505060808301516142e76080860182613b99565b5060a08301516142fa60a0860182613b99565b5060c083015161430d60c0860182613c10565b508091505092915050565b6000614324838361426e565b905092915050565b6000602082019050919050565b600061434482614242565b61434e818561424d565b9350836020820285016143608561425e565b8060005b8581101561439c578484038952815161437d8582614318565b94506143888361432c565b925060208a01995050600181019050614364565b50829750879550505050505092915050565b600060208201905081810360008301526143c88184614339565b905092915050565b6143d981613b6e565b81146143e457600080fd5b50565b6000813590506143f6816143d0565b92915050565b61440581613b8f565b811461441057600080fd5b50565b600081359050614422816143fc565b92915050565b6004811061443557600080fd5b50565b60008135905061444781614428565b92915050565b600060e0828403121561446357614462613805565b5b61446d60e061387b565b9050600082013567ffffffffffffffff81111561448d5761448c613896565b5b61449984828501613927565b60008301525060206144ad848285016143e7565b602083015250604082013567ffffffffffffffff8111156144d1576144d0613896565b5b6144dd84828501613927565b604083015250606082013567ffffffffffffffff81111561450157614500613896565b5b61450d84828501613927565b606083015250608061452184828501614413565b60808301525060a061453584828501614413565b60a08301525060c061454984828501614438565b60c08301525092915050565b6000806040838503121561456c5761456b6137fb565b5b600083013567ffffffffffffffff81111561458a57614589613800565b5b6145968582860161444d565b92505060206145a785828601614413565b9150509250929050565b600581106145be57600080fd5b50565b6000813590506145d0816145b1565b92915050565b600067ffffffffffffffff8211156145f1576145f061381b565b5b602082029050602081019050919050565b600080fd5b600061461a614615846145d6565b61387b565b9050808382526020820190506020840283018581111561463d5761463c614602565b5b835b8181101561468457803567ffffffffffffffff8111156146625761466161389b565b5b80860161466f8982613927565b8552602085019450505060208101905061463f565b5050509392505050565b600082601f8301126146a3576146a261389b565b5b81356146b3848260208601614607565b91505092915050565b600061016082840312156146d3576146d2613805565b5b6146de61016061387b565b9050600082013567ffffffffffffffff8111156146fe576146fd613896565b5b61470a84828501613927565b600083015250602082013567ffffffffffffffff81111561472e5761472d613896565b5b61473a84828501613927565b602083015250604082013567ffffffffffffffff81111561475e5761475d613896565b5b61476a84828501613927565b604083015250606061477e848285016143e7565b606083015250608061479284828501614413565b60808301525060a06147a684828501614413565b60a08301525060c06147ba84828501614413565b60c08301525060e06147ce848285016145c1565b60e08301525061010082013567ffffffffffffffff8111156147f3576147f2613896565b5b6147ff84828501613927565b6101008301525061012082013567ffffffffffffffff81111561482557614824613896565b5b6148318482850161468e565b6101208301525061014082013567ffffffffffffffff81111561485757614856613896565b5b6148638482850161468e565b6101408301525092915050565b60008060408385031215614887576148866137fb565b5b600083013567ffffffffffffffff8111156148a5576148a4613800565b5b6148b1858286016146bc565b92505060206148c285828601614413565b9150509250929050565b600060808201905081810360008301526148e68187613cfc565b905081810360208301526148fa8186613cfc565b9050818103604083015261490e8185613cfc565b905081810360608301526149228184613cfc565b905095945050505050565b600061016083016000830151848203600086015261494b8282613b15565b915050602083015184820360208601526149658282613b15565b9150506040830151848203604086015261497f8282613b15565b91505060608301516149946060860182613b80565b5060808301516149a76080860182613b99565b5060a08301516149ba60a0860182613b99565b5060c08301516149cd60c0860182613b99565b5060e08301516149e060e0860182613fa7565b506101008301518482036101008601526149fa8282613b15565b915050610120830151848203610120860152614a168282614003565b915050610140830151848203610140860152614a328282614003565b9150508091505092915050565b604082016000820151614a556000850182613b80565b506020820151614a686020850182613b99565b50505050565b600081519050919050565b600082825260208201905092915050565b6000819050602082019050919050565b6000614aa68383614a3f565b60408301905092915050565b6000602082019050919050565b6000614aca82614a6e565b614ad48185614a79565b9350614adf83614a8a565b8060005b83811015614b10578151614af78882614a9a565b9750614b0283614ab2565b925050600181019050614ae3565b5085935050505092915050565b600060e083016000830151614b356000860182614a3f565b506020830151614b486040860182614a3f565b506040830151614b5b6080860182614a3f565b50606083015184820360c0860152614b738282614abf565b9150508091505092915050565b60006040820190508181036000830152614b9a818561492d565b90508181036020830152614bae8184614b1d565b90509392505050565b7f4e487b7100000000000000000000000000000000000000000000000000000000600052602260045260246000fd5b60006002820490506001821680614bfe57607f821691505b602082108103614c1157614c10614bb7565b5b50919050565b600081905092915050565b6000614c2d82613acf565b614c378185614c17565b9350614c47818560208601613aeb565b80840191505092915050565b6000614c5f8284614c22565b915081905092915050565b7f4f6e6c7920637573746f6d65724e616d652063616e206469737472696275746560008201527f206f726465720000000000000000000000000000000000000000000000000000602082015250565b6000614cc6602683613ceb565b9150614cd182614c6a565b604082019050919050565b60006020820190508181036000830152614cf581614cb9565b9050919050565b7f4f72646572206d75737420626520696e2047656e65726174656420737461747560008201527f7300000000000000000000000000000000000000000000000000000000000000602082015250565b6000614d58602183613ceb565b9150614d6382614cfc565b604082019050919050565b60006020820190508181036000830152614d8781614d4b565b9050919050565b60006020820190508181036000830152614da88184613cfc565b905092915050565b7f53656e6465722773206164647265737320697320456d70747900000000000000600082015250565b6000614de6601983613ceb565b9150614df182614db0565b602082019050919050565b60006020820190508181036000830152614e1581614dd9565b9050919050565b7f436c69656e742773206164647265737320697320456d70747900000000000000600082015250565b6000614e52601983613ceb565b9150614e5d82614e1c565b602082019050919050565b60006020820190508181036000830152614e8181614e45565b9050919050565b7f4f6e6c79206d616e7566616374757265722063616e2061646400000000000000600082015250565b6000614ebe601983613ceb565b9150614ec982614e88565b602082019050919050565b60006020820190508181036000830152614eed81614eb1565b9050919050565b60008190508160005260206000209050919050565b60006020601f8301049050919050565b600082821b905092915050565b600060088302614f567fffffffffffffffffffffffffffffffffffffffffffffffffffffffffffffffff82614f19565b614f608683614f19565b95508019841693508086168417925050509392505050565b6000819050919050565b6000614f9d614f98614f9384613b8f565b614f78565b613b8f565b9050919050565b6000819050919050565b614fb783614f82565b614fcb614fc382614fa4565b848454614f26565b825550505050565b600090565b614fe0614fd3565b614feb818484614fae565b505050565b5b8181101561500f57615004600082614fd8565b600181019050614ff1565b5050565b601f8211156150545761502581614ef4565b61502e84614f09565b8101602085101561503d578190505b61505161504985614f09565b830182614ff0565b50505b505050565b600082821c905092915050565b600061507760001984600802615059565b1980831691505092915050565b60006150908383615066565b9150826002028217905092915050565b6150a982613acf565b67ffffffffffffffff8111156150c2576150c161381b565b5b6150cc8254614be6565b6150d7828285615013565b600060209050601f83116001811461510a57600084156150f8578287015190505b6151028582615084565b86555061516a565b601f19841661511886614ef4565b60005b828110156151405784890151825560018201915060208501945060208101905061511b565b8683101561515d5784890151615159601f891682615066565b8355505b6001600288020188555050505b505050505050565b600060c082019050818103600083015261518c8189613cfc565b905061519b6020830188613d35565b81810360408301526151ad8187613cfc565b905081810360608301526151c18186613cfc565b90506151d06080830185613d44565b6151dd60a0830184613d44565b979650505050505050565b7f4f6e6c7920637573746f6d65724e616d652063616e2073656c6c206f72646572600082015250565b600061521e602083613ceb565b9150615229826151e8565b602082019050919050565b6000602082019050818103600083015261524d81615211565b9050919050565b7f4f72646572206d75737420626520696e205472616e736665727265642073746160008201527f7475730000000000000000000000000000000000000000000000000000000000602082015250565b60006152b0602383613ceb565b91506152bb82615254565b604082019050919050565b600060208201905081810360008301526152df816152a3565b9050919050565b7f4f6e6c7920637573746f6d65722063616e2067656e6572617465206f72646572600082015250565b600061531c602083613ceb565b9150615327826152e6565b602082019050919050565b6000602082019050818103600083015261534b8161530f565b9050919050565b7f4f72646572206d75737420626520696e2050757263686173656420737461747560008201527f7300000000000000000000000000000000000000000000000000000000000000602082015250565b60006153ae602183613ceb565b91506153b982615352565b604082019050919050565b600060208201905081810360008301526153dd816153a1565b9050919050565b600060e08201905081810360008301526153fe818a613cfc565b905081810360208301526154128189613cfc565b90506154216040830188613d35565b81810360608301526154338187613cfc565b905081810360808301526154478186613cfc565b905061545660a0830185613d44565b61546360c0830184613d44565b98975050505050505050565b7f4e487b7100000000000000000000000000000000000000000000000000000000600052603260045260246000fd5b7f4e487b7100000000000000000000000000000000000000000000000000000000600052601160045260246000fd5b60006154d882613b8f565b91507fffffffffffffffffffffffffffffffffffffffffffffffffffffffffffffffff820361550a5761550961549e565b5b60018201905091905056fea2646970667358221220a2015b1a786cf3e210643b13c4123d041dcf1757fb18216ae8822db08784eb4464736f6c63430008130033",
  "immutableReferences": {},
  "source": "// SPDX-License-Identifier: GPL-3.0\npragma experimental ABIEncoderV2;\npragma solidity >=0.4.25 <0.9.0;\n\nimport \"./ProductRSCF.sol\";\nimport \"./OrderRSCF.sol\";\nimport \"./ClientRSCF.sol\";\nimport \"./IPFSHashRSCF.sol\";\n\n/**\n * @title SupplyChainRSCF\n * @dev Implements the details of the goods in retail supply chain finance\n */\ncontract SupplyChainRSCF is ProductRSCF,OrderRSCF,ClientRSCF,IPFSHashRSCF {\n    /**\n     * @dev Create a new SupplyChain with the provided 'manufacturer'\n     * @param name_ Name of the manufacturer\n     * @param email_ Email of the manufacturer\n     */\n    constructor(string memory name_, string memory email_) {\n        TypeRSCF.ClientDetails memory mn_ = TypeRSCF.ClientDetails({\n            role: TypeRSCF.ClientRole.Manufacturer,\n            id_: msg.sender,\n            name: name_,\n            email: email_\n        });\n        add(mn_);\n    }\n\n    /**\n     * @dev List all the goods.\n     * @return goodRSCFsList All the goods\n     */\n    function getAllGoodRSCFs() public view returns (TypeRSCF.GoodRSCF[] memory) {\n        return goodRSCFs;\n    }\n\n    /**\n     * @dev Gain all the goods of client\n     * @return goodRSCFsList All the goods of logged-in client\n     */\n    function getSomeGoodRSCFs() public view returns (TypeRSCF.GoodRSCF[] memory) {\n        return getClientGoodRSCFs();\n    }\n\n    /**\n     * @dev Get one good by good ID\n     * @param goodRSCFId_ Unique good ID \n     * @return goodRSCF_ Details of the good & it's history\n     * @return history_ good lifecycle\n     */\n    function getSingleGoodRSCF(string memory goodRSCFId_)\n        public\n        view\n        returns (TypeRSCF.GoodRSCF memory, TypeRSCF.GoodRSCFHistory memory)\n    {\n        return getSpecificGoodRSCF(goodRSCFId_);\n    }\n\n    /**\n     * @dev Adds new good\n     * @param goodRSCF_ unique good ID\n     * @param currentTime_ Current Date, Time in epoch (when add)\n     */\n    function addGoodRSCF(TypeRSCF.GoodRSCF memory goodRSCF_, uint256 currentTime_)\n        public\n        onlyManufacturer\n    {\n        addAGoodRSCF(goodRSCF_, currentTime_);\n    }\n\n        /**\n     * @dev Get one order by order ID\n     * @param orderRSCFId_ Unique order ID \n     * @return orderRSCF_ Details of the order\n     */\n    function getSingleOrderRSCF(string memory orderRSCFId_)\n        public\n        view\n        returns (TypeRSCF.OrderRSCF memory)\n    {\n        return getSpecificOrderRSCF(orderRSCFId_);\n    }\n\n    /**\n     * @dev Adds new order\n     */\n    function addOrderRSCF(TypeRSCF.OrderRSCF memory orderRSCF_, uint256 currentTime_)\n        public\n    {\n        addOrder(orderRSCF_, currentTime_);\n    }\n\n    function getAllOrderRSCF() \n        public \n        view \n        returns (TypeRSCF.OrderRSCF[] memory)         \n    {\n        return getAllOrder();\n    }\n\n    /**\n     * @dev Adds new order\n     */\n    function addFileIPFSHash(IPFSHashRSCF.HashRSCF memory HashRSCF_)\n        public\n    {\n        addFileHashCode(HashRSCF_);\n    }\n\n    function getAllFileIPFSHash() \n        public \n        view \n        returns (IPFSHashRSCF.HashRSCF[] memory)         \n    {\n        return getAllFileIPFSHashRSCF();\n    }\n\n    // /**\n    //  * @dev Transfer the ownership\n    //  * @param partyId_ buyer account address\n    //  * @param goodRSCFId_ unique good ID \n    //  * @param currentTime_ Current Date Time in epoch to track \n    //  */\n    // function sellGoodRSCF(\n    //     address partyId_,\n    //     string memory goodRSCFId_,\n    //     uint256 currentTime_\n    // ) public {\n    //     require(isPartyExists(partyId_), \"Client not found\");\n    //     TypeRSCF.ClientDetails memory party_ = clients[partyId_];\n    //     sell(partyId_, goodRSCFId_, party_, currentTime_);\n    // }\n}\n",
  "sourcePath": "D:\\SupplyChainDev\\trufflerscf\\contracts\\SupplyChainRSCF.sol",
  "compiler": {
    "name": "solc",
    "version": "0.8.19+commit.7dd6d404.Emscripten.clang"
  },
  "schemaVersion": "3.4.16",
  "updatedAt": "2024-05-15T06:59:13.099Z",
  "networkType": "ethereum",
  "devdoc": {
    "details": "Implements the details of the goods in retail supply chain finance",
    "kind": "dev",
    "methods": {
      "addFileHashCode((string,string,string,string))": {
        "details": "Adds new Hashcode",
        "params": {
          "hashRSCF_": "file IPFS information"
        }
      },
      "addFileIPFSHash((string,string,string,string))": {
        "details": "Adds new order"
      },
      "addGoodRSCF((string,string,string,address,uint256,uint256,uint256,uint8,string,string[],string[]),uint256)": {
        "details": "Adds new good",
        "params": {
          "currentTime_": "Current Date, Time in epoch (when add)",
          "goodRSCF_": "unique good ID"
        }
      },
      "addOrder((string,address,string,string,uint256,uint256,uint8),uint256)": {
        "details": "Adds new order",
        "params": {
          "currentTime_": "Current Date, Time in epoch (when added)",
          "orderRSCF_": "unique order ID  "
        }
      },
      "addOrderRSCF((string,address,string,string,uint256,uint256,uint8),uint256)": {
        "details": "Adds new order"
      },
      "constructor": {
        "details": "Create a new SupplyChain with the provided 'manufacturer'",
        "params": {
          "email_": "Email of the manufacturer",
          "name_": "Name of the manufacturer"
        }
      },
      "getAllGoodRSCFs()": {
        "details": "List all the goods.",
        "returns": {
          "_0": "goodRSCFsList All the goods"
        }
      },
      "getSingleGoodRSCF(string)": {
        "details": "Get one good by good ID",
        "params": {
          "goodRSCFId_": "Unique good ID "
        },
        "returns": {
          "_0": "goodRSCF_ Details of the good & it's history",
          "_1": "history_ good lifecycle"
        }
      },
      "getSingleOrderRSCF(string)": {
        "details": "Get one order by order ID",
        "params": {
          "orderRSCFId_": "Unique order ID "
        },
        "returns": {
          "_0": "orderRSCF_ Details of the order"
        }
      },
      "getSomeGoodRSCFs()": {
        "details": "Gain all the goods of client",
        "returns": {
          "_0": "goodRSCFsList All the goods of logged-in client"
        }
      }
    },
    "title": "SupplyChainRSCF",
    "version": 1
  },
  "userdoc": {
    "kind": "user",
    "methods": {},
    "version": 1
  }
}